{
  "contractName": "DevRev",
  "abi": [
    {
      "constant": true,
      "inputs": [],
      "name": "maxInvestment",
      "outputs": [
        {
          "name": "",
          "type": "uint256"
        }
      ],
      "payable": false,
      "stateMutability": "view",
      "type": "function"
    },
    {
      "constant": true,
      "inputs": [
        {
          "name": "_ID",
          "type": "uint256"
        }
      ],
      "name": "getProposalStart",
      "outputs": [
        {
          "name": "start",
          "type": "uint256"
        }
      ],
      "payable": false,
      "stateMutability": "view",
      "type": "function"
    },
    {
      "constant": true,
      "inputs": [],
      "name": "name",
      "outputs": [
        {
          "name": "",
          "type": "string"
        }
      ],
      "payable": false,
      "stateMutability": "view",
      "type": "function"
    },
    {
      "constant": false,
      "inputs": [
        {
          "name": "_ID",
          "type": "uint256"
        }
      ],
      "name": "end",
      "outputs": [],
      "payable": false,
      "stateMutability": "nonpayable",
      "type": "function"
    },
    {
      "constant": true,
      "inputs": [],
      "name": "totalSupply",
      "outputs": [
        {
          "name": "",
          "type": "uint256"
        }
      ],
      "payable": false,
      "stateMutability": "view",
      "type": "function"
    },
    {
      "constant": true,
      "inputs": [
        {
          "name": "_ID",
          "type": "uint256"
        }
      ],
      "name": "getProposalDescription",
      "outputs": [
        {
          "name": "description",
          "type": "string"
        }
      ],
      "payable": false,
      "stateMutability": "view",
      "type": "function"
    },
    {
      "constant": true,
      "inputs": [],
      "name": "decimals",
      "outputs": [
        {
          "name": "",
          "type": "uint8"
        }
      ],
      "payable": false,
      "stateMutability": "view",
      "type": "function"
    },
    {
      "constant": true,
      "inputs": [
        {
          "name": "_ID",
          "type": "uint256"
        }
      ],
      "name": "getProposalName",
      "outputs": [
        {
          "name": "name",
          "type": "string"
        }
      ],
      "payable": false,
      "stateMutability": "view",
      "type": "function"
    },
    {
      "constant": true,
      "inputs": [],
      "name": "RevTokenAddress",
      "outputs": [
        {
          "name": "",
          "type": "address"
        }
      ],
      "payable": false,
      "stateMutability": "view",
      "type": "function"
    },
    {
      "constant": true,
      "inputs": [],
      "name": "allowanceTimeCounter",
      "outputs": [
        {
          "name": "",
          "type": "uint256"
        }
      ],
      "payable": false,
      "stateMutability": "view",
      "type": "function"
    },
    {
      "constant": true,
      "inputs": [],
      "name": "getTokenPrice",
      "outputs": [
        {
          "name": "_tokensPerEther",
          "type": "uint256"
        }
      ],
      "payable": false,
      "stateMutability": "view",
      "type": "function"
    },
    {
      "constant": true,
      "inputs": [
        {
          "name": "",
          "type": "address"
        }
      ],
      "name": "balanceOf",
      "outputs": [
        {
          "name": "",
          "type": "uint256"
        }
      ],
      "payable": false,
      "stateMutability": "view",
      "type": "function"
    },
    {
      "constant": true,
      "inputs": [
        {
          "name": "_ID",
          "type": "uint256"
        }
      ],
      "name": "getProposalYes",
      "outputs": [
        {
          "name": "yes",
          "type": "uint256"
        }
      ],
      "payable": false,
      "stateMutability": "view",
      "type": "function"
    },
    {
      "constant": true,
      "inputs": [],
      "name": "getProposalLength",
      "outputs": [
        {
          "name": "length",
          "type": "uint256"
        }
      ],
      "payable": false,
      "stateMutability": "view",
      "type": "function"
    },
    {
      "constant": true,
      "inputs": [],
      "name": "owner",
      "outputs": [
        {
          "name": "",
          "type": "address"
        }
      ],
      "payable": false,
      "stateMutability": "view",
      "type": "function"
    },
    {
      "constant": true,
      "inputs": [],
      "name": "allowanceBalance",
      "outputs": [
        {
          "name": "",
          "type": "uint256"
        }
      ],
      "payable": false,
      "stateMutability": "view",
      "type": "function"
    },
    {
      "constant": true,
      "inputs": [
        {
          "name": "_ID",
          "type": "uint256"
        }
      ],
      "name": "getProposalRewarded",
      "outputs": [
        {
          "name": "rewarded",
          "type": "bool"
        }
      ],
      "payable": false,
      "stateMutability": "view",
      "type": "function"
    },
    {
      "constant": true,
      "inputs": [],
      "name": "symbol",
      "outputs": [
        {
          "name": "",
          "type": "string"
        }
      ],
      "payable": false,
      "stateMutability": "view",
      "type": "function"
    },
    {
      "constant": true,
      "inputs": [],
      "name": "allowanceInterval",
      "outputs": [
        {
          "name": "",
          "type": "uint256"
        }
      ],
      "payable": false,
      "stateMutability": "view",
      "type": "function"
    },
    {
      "constant": false,
      "inputs": [
        {
          "name": "_name",
          "type": "string"
        },
        {
          "name": "_description",
          "type": "string"
        },
        {
          "name": "_value",
          "type": "uint256"
        }
      ],
      "name": "propose",
      "outputs": [],
      "payable": false,
      "stateMutability": "nonpayable",
      "type": "function"
    },
    {
      "constant": true,
      "inputs": [
        {
          "name": "_ID",
          "type": "uint256"
        }
      ],
      "name": "getProposalActive",
      "outputs": [
        {
          "name": "active",
          "type": "bool"
        }
      ],
      "payable": false,
      "stateMutability": "view",
      "type": "function"
    },
    {
      "constant": true,
      "inputs": [
        {
          "name": "_ID",
          "type": "uint256"
        }
      ],
      "name": "getProposalAccepted",
      "outputs": [
        {
          "name": "accepted",
          "type": "bool"
        }
      ],
      "payable": false,
      "stateMutability": "view",
      "type": "function"
    },
    {
      "constant": true,
      "inputs": [
        {
          "name": "_ID",
          "type": "uint256"
        }
      ],
      "name": "getProposalValue",
      "outputs": [
        {
          "name": "value",
          "type": "uint256"
        }
      ],
      "payable": false,
      "stateMutability": "view",
      "type": "function"
    },
    {
      "constant": false,
      "inputs": [
        {
          "name": "_value",
          "type": "uint256"
        }
      ],
      "name": "allowanceWithdrawal",
      "outputs": [],
      "payable": false,
      "stateMutability": "nonpayable",
      "type": "function"
    },
    {
      "constant": true,
      "inputs": [
        {
          "name": "",
          "type": "uint256"
        }
      ],
      "name": "proposals_Task",
      "outputs": [
        {
          "name": "ID",
          "type": "uint256"
        },
        {
          "name": "name",
          "type": "string"
        },
        {
          "name": "description",
          "type": "string"
        },
        {
          "name": "value",
          "type": "uint256"
        },
        {
          "name": "start",
          "type": "uint256"
        },
        {
          "name": "yes",
          "type": "uint256"
        },
        {
          "name": "no",
          "type": "uint256"
        },
        {
          "name": "active",
          "type": "bool"
        },
        {
          "name": "accepted",
          "type": "bool"
        },
        {
          "name": "rewarded",
          "type": "bool"
        }
      ],
      "payable": false,
      "stateMutability": "view",
      "type": "function"
    },
    {
      "constant": false,
      "inputs": [
        {
          "name": "_ID",
          "type": "uint256"
        },
        {
          "name": "_vote",
          "type": "bool"
        }
      ],
      "name": "vote",
      "outputs": [],
      "payable": false,
      "stateMutability": "nonpayable",
      "type": "function"
    },
    {
      "constant": true,
      "inputs": [
        {
          "name": "_ID",
          "type": "uint256"
        }
      ],
      "name": "getProposalNo",
      "outputs": [
        {
          "name": "no",
          "type": "uint256"
        }
      ],
      "payable": false,
      "stateMutability": "view",
      "type": "function"
    },
    {
      "constant": true,
      "inputs": [],
      "name": "maxSupply",
      "outputs": [
        {
          "name": "",
          "type": "uint256"
        }
      ],
      "payable": false,
      "stateMutability": "view",
      "type": "function"
    },
    {
      "constant": true,
      "inputs": [],
      "name": "allowanceValue",
      "outputs": [
        {
          "name": "",
          "type": "uint256"
        }
      ],
      "payable": false,
      "stateMutability": "view",
      "type": "function"
    },
    {
      "constant": true,
      "inputs": [],
      "name": "maxStake",
      "outputs": [
        {
          "name": "",
          "type": "uint256"
        }
      ],
      "payable": false,
      "stateMutability": "view",
      "type": "function"
    },
    {
      "constant": true,
      "inputs": [],
      "name": "tokensPerEther",
      "outputs": [
        {
          "name": "",
          "type": "uint256"
        }
      ],
      "payable": false,
      "stateMutability": "view",
      "type": "function"
    },
    {
      "payable": true,
      "stateMutability": "payable",
      "type": "fallback"
    },
    {
      "anonymous": false,
      "inputs": [
        {
          "indexed": true,
          "name": "ID",
          "type": "uint256"
        },
        {
          "indexed": true,
          "name": "description",
          "type": "string"
        }
      ],
      "name": "ProposalCreation_Task",
      "type": "event"
    },
    {
      "anonymous": false,
      "inputs": [
        {
          "indexed": true,
          "name": "ID",
          "type": "uint256"
        },
        {
          "indexed": true,
          "name": "user",
          "type": "address"
        },
        {
          "indexed": true,
          "name": "value",
          "type": "bool"
        }
      ],
      "name": "UserVote_Task",
      "type": "event"
    },
    {
      "anonymous": false,
      "inputs": [
        {
          "indexed": true,
          "name": "ID",
          "type": "uint256"
        },
        {
          "indexed": true,
          "name": "description",
          "type": "string"
        },
        {
          "indexed": true,
          "name": "value",
          "type": "uint256"
        }
      ],
      "name": "SuccessfulProposal_Task",
      "type": "event"
    },
    {
      "anonymous": false,
      "inputs": [
        {
          "indexed": true,
          "name": "ID",
          "type": "uint256"
        },
        {
          "indexed": true,
          "name": "description",
          "type": "string"
        },
        {
          "indexed": true,
          "name": "reason",
          "type": "string"
        }
      ],
      "name": "RejectedProposal_Task",
      "type": "event"
    },
    {
      "anonymous": false,
      "inputs": [
        {
          "indexed": true,
          "name": "from",
          "type": "address"
        },
        {
          "indexed": true,
          "name": "to",
          "type": "address"
        },
        {
          "indexed": false,
          "name": "value",
          "type": "uint256"
        }
      ],
      "name": "Transfer",
      "type": "event"
    },
    {
      "constant": false,
      "inputs": [
        {
          "name": "_contractAddress",
          "type": "address"
        }
      ],
      "name": "setRevContract",
      "outputs": [],
      "payable": false,
      "stateMutability": "nonpayable",
      "type": "function"
    },
    {
      "constant": false,
      "inputs": [
        {
          "name": "_tokenAmount",
          "type": "uint256"
        }
      ],
      "name": "swap",
      "outputs": [],
      "payable": false,
      "stateMutability": "nonpayable",
      "type": "function"
    }
  ],
  "bytecode": "0x60606040526000601060006101000a81548160ff021916908315150217905550341561002a57600080fd5b6125c3806100396000396000f3006060604052600436106101a0576000357c0100000000000000000000000000000000000000000000000000000000900463ffffffff1680622e13161461033157806306aebc421461035a57806306fdde03146103915780630ad245281461041f57806318160ddd14610442578063229acb171461046b578063313ce56714610507578063429b92bf1461053657806343ea17be146105d257806348489ed0146106275780634b94f50e1461065057806363a116e31461067957806370a08231146106b25780637a6c5544146106ff5780638263a938146107365780638da5cb5b1461075f5780638f776ff1146107b4578063921f9f27146107dd57806394b918de1461081857806395d89b411461083b5780639a892b45146108c9578063ab43015a146108f2578063aeccd0031461099b578063b8e4783d146109d6578063ba63453f14610a11578063c2c9813114610a48578063c6f17bc114610a6b578063c9d27afe14610bb7578063cc1f3e5514610be5578063d5abeb0114610c1c578063deb80fe814610c45578063ea1b28e014610c6e578063f856d60514610c97575b6102056101b860075434610cc090919063ffffffff16565b6000803373ffffffffffffffffffffffffffffffffffffffff1673ffffffffffffffffffffffffffffffffffffffff16815260200190815260200160002054610cf690919063ffffffff16565b5061022f61021e60075434610cc090919063ffffffff16565b600154610cf690919063ffffffff16565b6001819055506005546001541115151561024857600080fd5b6064610261600654600154610cc090919063ffffffff16565b81151561026a57fe5b046000803373ffffffffffffffffffffffffffffffffffffffff1673ffffffffffffffffffffffffffffffffffffffff168152602001908152602001600020541015156102b657600080fd5b3373ffffffffffffffffffffffffffffffffffffffff163073ffffffffffffffffffffffffffffffffffffffff167fddf252ad1be2c89b69c2b068fc378daa952ba7f163c4a11628f55a4df523b3ef61031a60075434610cc090919063ffffffff16565b6040518082815260200191505060405180910390a3005b341561033c57600080fd5b610344610d23565b6040518082815260200191505060405180910390f35b341561036557600080fd5b61037b6004808035906020019091905050610d4d565b6040518082815260200191505060405180910390f35b341561039c57600080fd5b6103a4610d77565b6040518080602001828103825283818151815260200191508051906020019080838360005b838110156103e45780820151818401526020810190506103c9565b50505050905090810190601f1680156104115780820380516001836020036101000a031916815260200191505b509250505060405180910390f35b341561042a57600080fd5b6104406004808035906020019091905050610e15565b005b341561044d57600080fd5b6104556112cf565b6040518082815260200191505060405180910390f35b341561047657600080fd5b61048c60048080359060200190919050506112d5565b6040518080602001828103825283818151815260200191508051906020019080838360005b838110156104cc5780820151818401526020810190506104b1565b50505050905090810190601f1680156104f95780820380516001836020036101000a031916815260200191505b509250505060405180910390f35b341561051257600080fd5b61051a61139d565b604051808260ff1660ff16815260200191505060405180910390f35b341561054157600080fd5b61055760048080359060200190919050506113b0565b6040518080602001828103825283818151815260200191508051906020019080838360005b8381101561059757808201518184015260208101905061057c565b50505050905090810190601f1680156105c45780820380516001836020036101000a031916815260200191505b509250505060405180910390f35b34156105dd57600080fd5b6105e5611478565b604051808273ffffffffffffffffffffffffffffffffffffffff1673ffffffffffffffffffffffffffffffffffffffff16815260200191505060405180910390f35b341561063257600080fd5b61063a61149e565b6040518082815260200191505060405180910390f35b341561065b57600080fd5b6106636114a4565b6040518082815260200191505060405180910390f35b341561068457600080fd5b6106b0600480803573ffffffffffffffffffffffffffffffffffffffff169060200190919050506114d8565b005b34156106bd57600080fd5b6106e9600480803573ffffffffffffffffffffffffffffffffffffffff169060200190919050506115d2565b6040518082815260200191505060405180910390f35b341561070a57600080fd5b61072060048080359060200190919050506115ea565b6040518082815260200191505060405180910390f35b341561074157600080fd5b610749611614565b6040518082815260200191505060405180910390f35b341561076a57600080fd5b610772611621565b604051808273ffffffffffffffffffffffffffffffffffffffff1673ffffffffffffffffffffffffffffffffffffffff16815260200191505060405180910390f35b34156107bf57600080fd5b6107c7611647565b6040518082815260200191505060405180910390f35b34156107e857600080fd5b6107fe600480803590602001909190505061164d565b604051808215151515815260200191505060405180910390f35b341561082357600080fd5b6108396004808035906020019091905050611684565b005b341561084657600080fd5b61084e611925565b6040518080602001828103825283818151815260200191508051906020019080838360005b8381101561088e578082015181840152602081019050610873565b50505050905090810190601f1680156108bb5780820380516001836020036101000a031916815260200191505b509250505060405180910390f35b34156108d457600080fd5b6108dc6119c3565b6040518082815260200191505060405180910390f35b34156108fd57600080fd5b610999600480803590602001908201803590602001908080601f0160208091040260200160405190810160405280939291908181526020018383808284378201915050505050509190803590602001908201803590602001908080601f016020809104026020016040519081016040528093929190818152602001838380828437820191505050505050919080359060200190919050506119c9565b005b34156109a657600080fd5b6109bc6004808035906020019091905050611ccb565b604051808215151515815260200191505060405180910390f35b34156109e157600080fd5b6109f76004808035906020019091905050611d02565b604051808215151515815260200191505060405180910390f35b3415610a1c57600080fd5b610a326004808035906020019091905050611d39565b6040518082815260200191505060405180910390f35b3415610a5357600080fd5b610a696004808035906020019091905050611d63565b005b3415610a7657600080fd5b610a8c6004808035906020019091905050611e6e565b604051808b815260200180602001806020018a815260200189815260200188815260200187815260200186151515158152602001851515151581526020018415151515815260200183810383528c818151815260200191508051906020019080838360005b83811015610b0c578082015181840152602081019050610af1565b50505050905090810190601f168015610b395780820380516001836020036101000a031916815260200191505b5083810382528b818151815260200191508051906020019080838360005b83811015610b72578082015181840152602081019050610b57565b50505050905090810190601f168015610b9f5780820380516001836020036101000a031916815260200191505b509c5050505050505050505050505060405180910390f35b3415610bc257600080fd5b610be360048080359060200190919080351515906020019091905050612028565b005b3415610bf057600080fd5b610c066004808035906020019091905050612363565b6040518082815260200191505060405180910390f35b3415610c2757600080fd5b610c2f61238d565b6040518082815260200191505060405180910390f35b3415610c5057600080fd5b610c58612393565b6040518082815260200191505060405180910390f35b3415610c7957600080fd5b610c81612399565b6040518082815260200191505060405180910390f35b3415610ca257600080fd5b610caa61239f565b6040518082815260200191505060405180910390f35b60008082840290506000841480610ce15750828482811515610cde57fe5b04145b1515610cec57600080fd5b8091505092915050565b6000808284019050838110158015610d0e5750828110155b1515610d1957600080fd5b8091505092915050565b60006064610d3e600654600154610cc090919063ffffffff16565b811515610d4757fe5b04905090565b6000600f82815481101515610d5e57fe5b9060005260206000209060090201600401549050919050565b60028054600181600116156101000203166002900480601f016020809104026020016040519081016040528092919081815260200182805460018160011615610100020316600290048015610e0d5780601f10610de257610100808354040283529160200191610e0d565b820191906000526020600020905b815481529060010190602001808311610df057829003601f168201915b505050505081565b60008060003373ffffffffffffffffffffffffffffffffffffffff1673ffffffffffffffffffffffffffffffffffffffff16815260200190815260200160002054111515610e6257600080fd5b600d54610e98600f83815481101515610e7757fe5b906000526020600020906009020160040154426123a590919063ffffffff16565b10151515610ea557600080fd5b600f81815481101515610eb457fe5b906000526020600020906009020160080160009054906101000a900460ff161515610ede57600080fd5b6000600f82815481101515610eef57fe5b906000526020600020906009020160080160006101000a81548160ff0219169083151502179055506064610f30600154600e54610cc090919063ffffffff16565b811515610f3957fe5b04610f8d600f83815481101515610f4c57fe5b906000526020600020906009020160050154600f84815481101515610f6d57fe5b906000526020600020906009020160060154610cf690919063ffffffff16565b10156110835760405180807f50617274696369706174696f6e20746f6f206c6f77000000000000000000000081525060150190506040518091039020600f82815481101515610fd857fe5b906000526020600020906009020160020160405180828054600181600116156101000203166002900480156110445780601f10611022576101008083540402835291820191611044565b820191906000526020600020905b815481529060010190602001808311611030575b50509150506040518091039020827f876c20b08550f4ae22fba74da817782aae5c3948223df4d406846d04aae91bf560405160405180910390a46112cc565b600f8181548110151561109257fe5b906000526020600020906009020160060154600f828154811015156110b357fe5b90600052602060002090600902016005015411156111df576001600f828154811015156110dc57fe5b906000526020600020906009020160080160016101000a81548160ff021916908315150217905550600f8181548110151561111357fe5b906000526020600020906009020160030154600f8281548110151561113457fe5b906000526020600020906009020160020160405180828054600181600116156101000203166002900480156111a05780601f1061117e5761010080835404028352918201916111a0565b820191906000526020600020905b81548152906001019060200180831161118c575b50509150506040518091039020827fa9acdc5e61d2a6ae00c0c76f856a20d9c9c247c3731151c32d842f0117d8b53c60405160405180910390a46112cb565b60405180807f50726f706f73616c2072656a656374656420627920766f74650000000000000081525060190190506040518091039020600f8281548110151561122457fe5b906000526020600020906009020160020160405180828054600181600116156101000203166002900480156112905780601f1061126e576101008083540402835291820191611290565b820191906000526020600020905b81548152906001019060200180831161127c575b50509150506040518091039020827f876c20b08550f4ae22fba74da817782aae5c3948223df4d406846d04aae91bf560405160405180910390a45b5b50565b60015481565b6112dd6123c1565b600f828154811015156112ec57fe5b90600052602060002090600902016002018054600181600116156101000203166002900480601f0160208091040260200160405190810160405280929190818152602001828054600181600116156101000203166002900480156113915780601f1061136657610100808354040283529160200191611391565b820191906000526020600020905b81548152906001019060200180831161137457829003601f168201915b50505050509050919050565b600460009054906101000a900460ff1681565b6113b86123c1565b600f828154811015156113c757fe5b90600052602060002090600902016001018054600181600116156101000203166002900480601f01602080910402602001604051908101604052809291908181526020018280546001816001161561010002031660029004801561146c5780601f106114415761010080835404028352916020019161146c565b820191906000526020600020905b81548152906001019060200180831161144f57829003601f168201915b50505050509050919050565b601060019054906101000a900473ffffffffffffffffffffffffffffffffffffffff1681565b60085481565b60006114d3600460009054906101000a900460ff1660ff16601203600a0a600754610cc090919063ffffffff16565b905090565b600460019054906101000a900473ffffffffffffffffffffffffffffffffffffffff1673ffffffffffffffffffffffffffffffffffffffff163373ffffffffffffffffffffffffffffffffffffffff1614151561153457600080fd5b601060009054906101000a900460ff16158015611568575060008173ffffffffffffffffffffffffffffffffffffffff1614155b151561157357600080fd5b6001601060006101000a81548160ff02191690831515021790555080601060016101000a81548173ffffffffffffffffffffffffffffffffffffffff021916908373ffffffffffffffffffffffffffffffffffffffff16021790555050565b60006020528060005260406000206000915090505481565b6000600f828154811015156115fb57fe5b9060005260206000209060090201600501549050919050565b6000600f80549050905090565b600460019054906101000a900473ffffffffffffffffffffffffffffffffffffffff1681565b600b5481565b6000600f8281548110151561165e57fe5b906000526020600020906009020160080160029054906101000a900460ff169050919050565b60008060003373ffffffffffffffffffffffffffffffffffffffff1673ffffffffffffffffffffffffffffffffffffffff168152602001908152602001600020541115156116d157600080fd5b601060009054906101000a900460ff1615156116ec57600080fd5b61173d816000803373ffffffffffffffffffffffffffffffffffffffff1673ffffffffffffffffffffffffffffffffffffffff168152602001908152602001600020546123a590919063ffffffff16565b6000803373ffffffffffffffffffffffffffffffffffffffff1673ffffffffffffffffffffffffffffffffffffffff16815260200190815260200160002081905550611794816001546123a590919063ffffffff16565b6001819055506117af816005546123a590919063ffffffff16565b600581905550601060019054906101000a900473ffffffffffffffffffffffffffffffffffffffff1673ffffffffffffffffffffffffffffffffffffffff1663d3986f0882336040518363ffffffff167c0100000000000000000000000000000000000000000000000000000000028152600401808381526020018273ffffffffffffffffffffffffffffffffffffffff1673ffffffffffffffffffffffffffffffffffffffff16815260200192505050602060405180830381600087803b151561187957600080fd5b5af1151561188657600080fd5b50505060405180519050151561189b57600080fd5b601060019054906101000a900473ffffffffffffffffffffffffffffffffffffffff1673ffffffffffffffffffffffffffffffffffffffff163373ffffffffffffffffffffffffffffffffffffffff167fddf252ad1be2c89b69c2b068fc378daa952ba7f163c4a11628f55a4df523b3ef836040518082815260200191505060405180910390a350565b60038054600181600116156101000203166002900480601f0160208091040260200160405190810160405280929190818152602001828054600181600116156101000203166002900480156119bb5780601f10611990576101008083540402835291602001916119bb565b820191906000526020600020905b81548152906001019060200180831161199e57829003601f168201915b505050505081565b60095481565b6000806000803373ffffffffffffffffffffffffffffffffffffffff1673ffffffffffffffffffffffffffffffffffffffff16815260200190815260200160002054111515611a1757600080fd5b3073ffffffffffffffffffffffffffffffffffffffff163182111515611a3c57600080fd5b600d54611a91600c60003373ffffffffffffffffffffffffffffffffffffffff1673ffffffffffffffffffffffffffffffffffffffff16815260200190815260200160002054426123a590919063ffffffff16565b111515611a9d57600080fd5b42600c60003373ffffffffffffffffffffffffffffffffffffffff1673ffffffffffffffffffffffffffffffffffffffff16815260200190815260200160002081905550600f805490509050600f8054806001018281611afd91906123d5565b91600052602060002090600902016000610140604051908101604052808581526020018881526020018781526020018681526020014281526020016000815260200160008152602001600115158152602001600015158152602001600015158152509091909150600082015181600001556020820151816001019080519060200190611b8a929190612407565b506040820151816002019080519060200190611ba7929190612407565b50606082015181600301556080820151816004015560a0820151816005015560c0820151816006015560e08201518160080160006101000a81548160ff0219169083151502179055506101008201518160080160016101000a81548160ff0219169083151502179055506101208201518160080160026101000a81548160ff021916908315150217905550505050826040518082805190602001908083835b602083101515611c6b5780518252602082019150602081019050602083039250611c46565b6001836020036101000a0380198251168184511680821785525050505050509050019150506040518091039020817f99302e2af76c2b15baadb0a49b1bd6eb054e52aca45affa743c730af4492643960405160405180910390a350505050565b6000600f82815481101515611cdc57fe5b906000526020600020906009020160080160009054906101000a900460ff169050919050565b6000600f82815481101515611d1357fe5b906000526020600020906009020160080160019054906101000a900460ff169050919050565b6000600f82815481101515611d4a57fe5b9060005260206000209060090201600301549050919050565b600460019054906101000a900473ffffffffffffffffffffffffffffffffffffffff1673ffffffffffffffffffffffffffffffffffffffff163373ffffffffffffffffffffffffffffffffffffffff16141515611dbf57600080fd5b600954611dd7600854426123a590919063ffffffff16565b1115611dee57600a54600b81905550426008819055505b611e0381600b546123a590919063ffffffff16565b600b81905550600460019054906101000a900473ffffffffffffffffffffffffffffffffffffffff1673ffffffffffffffffffffffffffffffffffffffff166108fc829081150290604051600060405180830381858888f193505050501515611e6b57600080fd5b50565b600f81815481101515611e7d57fe5b9060005260206000209060090201600091509050806000015490806001018054600181600116156101000203166002900480601f016020809104026020016040519081016040528092919081815260200182805460018160011615610100020316600290048015611f2f5780601f10611f0457610100808354040283529160200191611f2f565b820191906000526020600020905b815481529060010190602001808311611f1257829003601f168201915b505050505090806002018054600181600116156101000203166002900480601f016020809104026020016040519081016040528092919081815260200182805460018160011615610100020316600290048015611fcd5780601f10611fa257610100808354040283529160200191611fcd565b820191906000526020600020905b815481529060010190602001808311611fb057829003601f168201915b5050505050908060030154908060040154908060050154908060060154908060080160009054906101000a900460ff16908060080160019054906101000a900460ff16908060080160029054906101000a900460ff1690508a565b60008060003373ffffffffffffffffffffffffffffffffffffffff1673ffffffffffffffffffffffffffffffffffffffff1681526020019081526020016000205411151561207557600080fd5b600f8281548110151561208457fe5b906000526020600020906009020160080160009054906101000a900460ff1615156120ae57600080fd5b600d546120e4600f848154811015156120c357fe5b906000526020600020906009020160040154426123a590919063ffffffff16565b1015156120f5576120f482610e15565b5b600f8281548110151561210457fe5b906000526020600020906009020160070160003373ffffffffffffffffffffffffffffffffffffffff1673ffffffffffffffffffffffffffffffffffffffff16815260200190815260200160002060009054906101000a900460ff1615151561216c57600080fd5b6001600f8381548110151561217d57fe5b906000526020600020906009020160070160003373ffffffffffffffffffffffffffffffffffffffff1673ffffffffffffffffffffffffffffffffffffffff16815260200190815260200160002060006101000a81548160ff0219169083151502179055508015612282576122596000803373ffffffffffffffffffffffffffffffffffffffff1673ffffffffffffffffffffffffffffffffffffffff16815260200190815260200160002054600f8481548110151561223957fe5b906000526020600020906009020160050154610cf690919063ffffffff16565b600f8381548110151561226857fe5b906000526020600020906009020160050181905550612318565b6122f36000803373ffffffffffffffffffffffffffffffffffffffff1673ffffffffffffffffffffffffffffffffffffffff16815260200190815260200160002054600f848154811015156122d357fe5b906000526020600020906009020160060154610cf690919063ffffffff16565b600f8381548110151561230257fe5b9060005260206000209060090201600601819055505b8015153373ffffffffffffffffffffffffffffffffffffffff16837f1d595aa6b214c8b2455e6ce08896d7de7750ad057c9370772d798e85b664790e60405160405180910390a45050565b6000600f8281548110151561237457fe5b9060005260206000209060090201600601549050919050565b60055481565b600a5481565b60065481565b60075481565b60008282111515156123b657600080fd5b818303905092915050565b602060405190810160405280600081525090565b815481835581811511612402576009028160090283600052602060002091820191016124019190612487565b5b505050565b828054600181600116156101000203166002900490600052602060002090601f016020900481019282601f1061244857805160ff1916838001178555612476565b82800160010185558215612476579182015b8281111561247557825182559160200191906001019061245a565b5b509050612483919061252a565b5090565b61252791905b80821115612523576000808201600090556001820160006124ae919061254f565b6002820160006124be919061254f565b60038201600090556004820160009055600582016000905560068201600090556008820160006101000a81549060ff02191690556008820160016101000a81549060ff02191690556008820160026101000a81549060ff02191690555060090161248d565b5090565b90565b61254c91905b80821115612548576000816000905550600101612530565b5090565b90565b50805460018160011615610100020316600290046000825580601f106125755750612594565b601f016020900490600052602060002090810190612593919061252a565b5b505600a165627a7a7230582088a9f45b00f5f4f55fce523cac904a042afecf950a68ee1f3d901d3ef73a6ff30029",
  "source": "pragma solidity 0.4.21;\r\n\r\ninterface RevToken {\r\n    function swap(uint256 _tokenAmount, address _tokenHolder) external returns(bool success);\r\n}\r\n\r\n// Safe Math library that automatically checks for overflows and underflows\r\nlibrary SafeMath {\r\n    // Safe multiplication\r\n    function mul(uint256 a, uint256 b) internal pure returns (uint256) {\r\n        uint256 c = a * b;\r\n        require(a == 0 || c / a == b);\r\n        return c;\r\n    }\r\n    // Safe subtraction\r\n    function sub(uint256 a, uint256 b) internal pure returns (uint256) {\r\n        require(b <= a);\r\n        return a - b;\r\n    }\r\n    // Safe addition\r\n    function add(uint256 a, uint256 b) internal pure returns (uint256) {\r\n        uint256 c = a + b;\r\n        require(c>=a && c>=b);\r\n        return c;\r\n    }\r\n}\r\n\r\n// Basic ERC20 functions\r\ncontract Token {\r\n\r\n    using SafeMath for uint256;\r\n\r\n    event Transfer(address indexed from, address indexed to, uint256 value);\r\n\r\n    // mapping of all balances\r\n    mapping (address => uint256) public balanceOf;\r\n    // The total supply of the token\r\n    uint256 public totalSupply;\r\n\r\n    // Some variables for nice wallet integration\r\n    string public name;          // name of token\r\n    string public symbol;        // symbol of token\r\n    uint8 public decimals;       // decimals of token\r\n}\r\n\r\ncontract Owned is Token {\r\n    // address of the developers\r\n    address public owner;\r\n    // modifiers: only allows Owner/Pool/Contract to call certain functions\r\n    modifier onlyOwner {\r\n        require(msg.sender == owner);\r\n        _;\r\n    }\r\n    modifier onlyTokenHolder {\r\n        require(balanceOf[msg.sender] > 0);\r\n        _;\r\n    }\r\n}\r\n\r\n// DevToken functions which are active during development phase\r\ncontract Funding is Owned {\r\n\r\n    // maximum supply of the token\r\n    uint256 public maxSupply;\r\n    // maximum stake someone can have of all tokens (in percent)\r\n    uint256 public maxStake;\r\n    // tokens that are being sold per ether\r\n    uint256 public tokensPerEther;\r\n\r\n    // lock ETH in contract and return DevTokens\r\n    function () public payable {\r\n        // adds the amount of ETH sent as DevToken value and increases total supply\r\n        balanceOf[msg.sender].add(msg.value.mul(tokensPerEther));\r\n        totalSupply = totalSupply.add(msg.value.mul(tokensPerEther));\r\n\r\n        // fails if total supply surpasses maximum supply\r\n        require(totalSupply <= maxSupply);\r\n        // user cannot deposit more than \"maxStake\"% of the total supply\r\n        require(balanceOf[msg.sender] < totalSupply.mul(maxStake)/100);\r\n\r\n        // transfer event\r\n        emit Transfer(address(this), msg.sender, msg.value.mul(tokensPerEther));\r\n    }\r\n\r\n    // constant function: return maximum possible investment per person\r\n    function maxInvestment() public view returns(uint256) {\r\n        return totalSupply.mul(maxStake)/100;\r\n    }\r\n\r\n\r\n    // Get the number of DevTokens that will be sold for 1 ETH\r\n    function getTokenPrice() view public returns(uint _tokensPerEther) {\r\n        // Adjust the token value to variable decimal-counts\r\n        return tokensPerEther.mul(10**(18-uint256(decimals)));\r\n    }\r\n\r\n}\r\n\r\ncontract OwnerAllowance is Funding {\r\n    // time since last use of allowance\r\n    uint256 public allowanceTimeCounter;\r\n    // interval how often allowance is reset\r\n    uint256 public allowanceInterval;\r\n    // allowance amount per interval\r\n    uint256 public allowanceValue;\r\n    // current allowance balance\r\n    uint256 public allowanceBalance;\r\n\r\n    // allows owner to withdraw ether in an interval\r\n    function allowanceWithdrawal(uint256 _value) public onlyOwner {\r\n        if (now.sub(allowanceTimeCounter) > allowanceInterval) {\r\n            allowanceBalance = allowanceValue;\r\n            allowanceTimeCounter = now;\r\n        }\r\n        allowanceBalance = allowanceBalance.sub(_value);\r\n        owner.transfer(_value);\r\n    }\r\n}\r\n\r\ncontract Voting_X is Owned {\r\n    // allows one proposal at a time per person\r\n    mapping(address => uint256) lastProposal_X;\r\n    // duration of voting on a proposal\r\n    uint256 proposalDuration_X;\r\n    // percentage of minimum votes for proposal to get accepted\r\n    uint256 minVotes_X;\r\n    // constructor\r\n    function Voting_X(uint256 _proposalDuration_X, uint256 _minVotes_X) public {}\r\n    // Events\r\n    // creation event\r\n    event ProposalCreation_X(uint256 indexed ID, string indexed description);\r\n    // vote event\r\n    event UserVote_X(uint256 indexed ID, address indexed user, bool indexed value);\r\n    // successful proposal event\r\n    event SuccessfulProposal_X(uint256 indexed ID, string indexed description, uint256 indexed value);\r\n    // rejected proposal event\r\n    event RejectedProposal_X(uint256 indexed ID, string indexed description, string indexed reason);\r\n    // proposal structure\r\n    struct Proposal_X {\r\n        // ID of proposal\r\n        uint256 ID;\r\n        // short name\r\n        string name;\r\n        // description of proposal\r\n        string description;\r\n        // timestamp when poll started\r\n        uint256 start;\r\n        // collects votes\r\n        uint256 yes;\r\n        uint256 no;\r\n        // mapping that saves if user voted\r\n        mapping(address => bool) voted;\r\n        // bool if poll is active\r\n        bool active;\r\n        // bool if proposal was accepted\r\n        bool accepted;\r\n    }\r\n    // array of polls\r\n    Proposal_X[] public proposals_X;\r\n    // propose a new development task\r\n    // appends proposal struct to array\r\n    // emits ProposalCreation_X event\r\n    function propose_X(string _name, string _description) public onlyTokenHolder {}\r\n    // vote on a development task\r\n    // emits UserVote_X event\r\n    function vote(uint256 _ID, bool _vote) public onlyTokenHolder {}\r\n    // end voting for a development task\r\n    // emits SuccessfulProposal_X or RejectedProposal_X Event\r\n    function end(uint256 _ID) public onlyTokenHolder {}\r\n\r\n}\r\n\r\n// task voting implementation\r\ncontract Voting_Task is OwnerAllowance {\r\n\r\n    mapping(address => uint256) lastProposal_Task;\r\n    uint256 proposalDuration_Task;\r\n    uint256 minVotes_Task;\r\n\r\n    event ProposalCreation_Task(uint256 indexed ID, string indexed description);\r\n    event UserVote_Task(uint256 indexed ID, address indexed user, bool indexed value);\r\n    event SuccessfulProposal_Task(uint256 indexed ID, string indexed description, uint256 indexed value);\r\n    event RejectedProposal_Task(uint256 indexed ID, string indexed description, string indexed reason);\r\n\r\n    struct Proposal_Task {\r\n        uint256 ID;\r\n        string name;\r\n        string description;\r\n        // (optional) amount of ETH-reward for development tasks\r\n        uint256 value;\r\n        uint256 start;\r\n        uint256 yes;\r\n        uint256 no;\r\n        mapping(address => bool) voted;\r\n        bool active;\r\n        bool accepted;\r\n        // (optional) bool if proposal was rewarded\r\n        bool rewarded;\r\n    }\r\n\r\n    // array of polls\r\n    Proposal_Task[] public proposals_Task;\r\n\r\n    function propose(string _name, string _description, uint256 _value) public onlyTokenHolder {\r\n\r\n        require(_value > address(this).balance);\r\n        // allows one proposal per week and resets value after successful proposal\r\n        require(now.sub(lastProposal_Task[msg.sender]) > proposalDuration_Task);\r\n        lastProposal_Task[msg.sender] = now;\r\n\r\n        // saves ID of proposal which is equal to the array index\r\n        uint256 ID = proposals_Task.length;\r\n\r\n        // initializes new proposal as a struct and pushes it into the proposal array\r\n        proposals_Task.push(Proposal_Task({ID: ID, name: _name, description: _description, value: _value, start: now, yes: 0, no: 0, active: true, accepted: false, rewarded: false}));\r\n\r\n        // event generated for proposal creation\r\n        emit ProposalCreation_Task(ID, _description);\r\n\r\n    }\r\n\r\n    // vote on a development task\r\n    function vote(uint256 _ID, bool _vote) public onlyTokenHolder {\r\n\r\n        // proposal has to be active\r\n        require(proposals_Task[_ID].active);\r\n\r\n        // proposal has to be active less than one week\r\n        if (now.sub(proposals_Task[_ID].start) >= proposalDuration_Task) {\r\n            end(_ID);\r\n        }\r\n\r\n        // checks if tokenholder has already voted\r\n        require(!proposals_Task[_ID].voted[msg.sender]);\r\n        // registers vote\r\n        proposals_Task[_ID].voted[msg.sender] = true;\r\n\r\n        // if the value is 0 it's considered no\r\n        if (_vote) {\r\n            // registers the balance of msg.sender as a yes vote\r\n            proposals_Task[_ID].yes = proposals_Task[_ID].yes.add(balanceOf[msg.sender]);\r\n        } else {\r\n            // registers the balance of msg.sender as a no vote\r\n            proposals_Task[_ID].no = proposals_Task[_ID].no.add(balanceOf[msg.sender]);\r\n        }\r\n        // event generated for tokenholder vote\r\n        emit UserVote_Task(_ID, msg.sender, _vote);\r\n\r\n    }\r\n\r\n\r\n    // end voting for a development task\r\n    function end(uint256 _ID) public onlyTokenHolder {\r\n\r\n        // requires proposal to be running for a week\r\n        require(now.sub(proposals_Task[_ID].start) >= proposalDuration_Task);\r\n\r\n        // requires proposal to be active\r\n        require(proposals_Task[_ID].active);\r\n        proposals_Task[_ID].active = false;\r\n\r\n        // rejects proposal if not enough people voted on it\r\n        if (proposals_Task[_ID].no.add(proposals_Task[_ID].yes) < (minVotes_Task.mul(totalSupply))/100) {\r\n            // event generation\r\n            emit RejectedProposal_Task(_ID, proposals_Task[_ID].description, \"Participation too low\");\r\n\r\n        // compares yes and no votes\r\n        } else if (proposals_Task[_ID].yes > proposals_Task[_ID].no) {\r\n            proposals_Task[_ID].accepted = true;\r\n            // event generation\r\n            emit SuccessfulProposal_Task(_ID, proposals_Task[_ID].description, proposals_Task[_ID].value);\r\n\r\n        } else {\r\n            // event generation\r\n            emit RejectedProposal_Task(_ID, proposals_Task[_ID].description, \"Proposal rejected by vote\");\r\n        }\r\n    \r\n    }\r\n\r\n    function getProposalLength() public view returns(uint256 length) {\r\n        return proposals_Task.length;\r\n    }\r\n\r\n    function getProposalName(uint256 _ID) public view returns(string name) {\r\n        return proposals_Task[_ID].name;\r\n    }\r\n\r\n    function getProposalDescription(uint256 _ID) public view returns(string description) {\r\n        return proposals_Task[_ID].description;\r\n    }\r\n\r\n    function getProposalValue(uint256 _ID) public view returns(uint256 value) {\r\n        return proposals_Task[_ID].value;\r\n    }\r\n\r\n    function getProposalStart(uint256 _ID) public view returns(uint256 start) {\r\n        return proposals_Task[_ID].start;\r\n    }\r\n\r\n    function getProposalYes(uint256 _ID) public view returns(uint256 yes) {\r\n        return proposals_Task[_ID].yes;\r\n    }\r\n\r\n    function getProposalNo(uint256 _ID) public view returns(uint256 no) {\r\n        return proposals_Task[_ID].no;\r\n    }\r\n\r\n    function getProposalActive(uint256 _ID) public view returns(bool active) {\r\n        return proposals_Task[_ID].active;\r\n    }\r\n\r\n    function getProposalAccepted(uint256 _ID) public view returns(bool accepted) {\r\n        return proposals_Task[_ID].accepted;\r\n    }\r\n\r\n    function getProposalRewarded(uint256 _ID) public view returns(bool rewarded) {\r\n        return proposals_Task[_ID].rewarded;\r\n    }\r\n}\r\n\r\ncontract DevRev is Voting_Task {\r\n    // bool to see if RevToken was set\r\n    bool private set = false;\r\n    address public RevTokenAddress;\r\n\r\n    function setRevContract(address _contractAddress) public onlyOwner {\r\n        require(!set && _contractAddress != 0x0);\r\n        set = true;\r\n        RevTokenAddress = _contractAddress;\r\n    }\r\n\r\n    function swap(uint256 _tokenAmount) public onlyTokenHolder {\r\n        require(set);\r\n        balanceOf[msg.sender] = balanceOf[msg.sender].sub(_tokenAmount);\r\n        totalSupply = totalSupply.sub(_tokenAmount);\r\n        maxSupply = maxSupply.sub(_tokenAmount);\r\n        require(RevToken(RevTokenAddress).swap(_tokenAmount, msg.sender));\r\n        emit Transfer(msg.sender, RevTokenAddress, _tokenAmount);\r\n    }\r\n\r\n}\r\n\r\n// DevRevToken combines DevToken and RevToken into one token\r\ncontract DevToken is DevRev {\r\n    function DevToken() public {\r\n\r\n        // constructor Token\r\n        name = \"TEST DEV\";\r\n        symbol = \"TT\";\r\n        require(decimals <= 18);\r\n        decimals = 18;\r\n        // constructor Funding\r\n        owner = msg.sender;\r\n        allowanceTimeCounter = now;\r\n        maxSupply = 100;\r\n        // Adjust the token value to variable decimal-counts\r\n        tokensPerEther = 5/(10**(18 - uint256(decimals)));  //5 ist Token per Ether\r\n        totalSupply = 0;\r\n        require(maxSupply >= totalSupply);\r\n        maxStake = 25;\r\n        // constructor TaskVoting\r\n        proposalDuration_Task = 3600;\r\n        minVotes_Task = 51;\r\n    }\r\n}",
  "sourcePath": "D:\\Projects\\TESTING\\contracts\\DevToken.sol",
  "compiler": {
    "name": "solc",
    "version": "0.4.21+commit.dfe3193c.Emscripten.clang"
  },
  "schemaVersion": "2.0.0",
  "updatedAt": "2018-04-08T12:58:14.184Z"
}