{
  "contractName": "DevToken",
  "abi": [
    {
      "constant": true,
      "inputs": [],
      "name": "maxInvestment",
      "outputs": [
        {
          "name": "",
          "type": "uint256"
        }
      ],
      "payable": false,
      "stateMutability": "view",
      "type": "function"
    },
    {
      "constant": true,
      "inputs": [
        {
          "name": "_ID",
          "type": "uint256"
        }
      ],
      "name": "getProposalStart",
      "outputs": [
        {
          "name": "start",
          "type": "uint256"
        }
      ],
      "payable": false,
      "stateMutability": "view",
      "type": "function"
    },
    {
      "constant": true,
      "inputs": [],
      "name": "name",
      "outputs": [
        {
          "name": "",
          "type": "string"
        }
      ],
      "payable": false,
      "stateMutability": "view",
      "type": "function"
    },
    {
      "constant": false,
      "inputs": [
        {
          "name": "_ID",
          "type": "uint256"
        }
      ],
      "name": "end",
      "outputs": [],
      "payable": false,
      "stateMutability": "nonpayable",
      "type": "function"
    },
    {
      "constant": true,
      "inputs": [],
      "name": "totalSupply",
      "outputs": [
        {
          "name": "",
          "type": "uint256"
        }
      ],
      "payable": false,
      "stateMutability": "view",
      "type": "function"
    },
    {
      "constant": true,
      "inputs": [
        {
          "name": "_ID",
          "type": "uint256"
        }
      ],
      "name": "getProposalDescription",
      "outputs": [
        {
          "name": "description",
          "type": "string"
        }
      ],
      "payable": false,
      "stateMutability": "view",
      "type": "function"
    },
    {
      "constant": true,
      "inputs": [],
      "name": "decimals",
      "outputs": [
        {
          "name": "",
          "type": "uint8"
        }
      ],
      "payable": false,
      "stateMutability": "view",
      "type": "function"
    },
    {
      "constant": true,
      "inputs": [
        {
          "name": "_ID",
          "type": "uint256"
        }
      ],
      "name": "getProposalName",
      "outputs": [
        {
          "name": "name",
          "type": "string"
        }
      ],
      "payable": false,
      "stateMutability": "view",
      "type": "function"
    },
    {
      "constant": true,
      "inputs": [],
      "name": "RevTokenAddress",
      "outputs": [
        {
          "name": "",
          "type": "address"
        }
      ],
      "payable": false,
      "stateMutability": "view",
      "type": "function"
    },
    {
      "constant": true,
      "inputs": [],
      "name": "allowanceTimeCounter",
      "outputs": [
        {
          "name": "",
          "type": "uint256"
        }
      ],
      "payable": false,
      "stateMutability": "view",
      "type": "function"
    },
    {
      "constant": false,
      "inputs": [
        {
          "name": "_contractAddress",
          "type": "address"
        }
      ],
      "name": "setRevContract",
      "outputs": [],
      "payable": false,
      "stateMutability": "nonpayable",
      "type": "function"
    },
    {
      "constant": true,
      "inputs": [
        {
          "name": "",
          "type": "address"
        }
      ],
      "name": "balanceOf",
      "outputs": [
        {
          "name": "",
          "type": "uint256"
        }
      ],
      "payable": false,
      "stateMutability": "view",
      "type": "function"
    },
    {
      "constant": true,
      "inputs": [
        {
          "name": "_ID",
          "type": "uint256"
        }
      ],
      "name": "getProposalYes",
      "outputs": [
        {
          "name": "yes",
          "type": "uint256"
        }
      ],
      "payable": false,
      "stateMutability": "view",
      "type": "function"
    },
    {
      "constant": true,
      "inputs": [],
      "name": "getProposalLength",
      "outputs": [
        {
          "name": "length",
          "type": "uint256"
        }
      ],
      "payable": false,
      "stateMutability": "view",
      "type": "function"
    },
    {
      "constant": true,
      "inputs": [],
      "name": "owner",
      "outputs": [
        {
          "name": "",
          "type": "address"
        }
      ],
      "payable": false,
      "stateMutability": "view",
      "type": "function"
    },
    {
      "constant": true,
      "inputs": [],
      "name": "allowanceBalance",
      "outputs": [
        {
          "name": "",
          "type": "uint256"
        }
      ],
      "payable": false,
      "stateMutability": "view",
      "type": "function"
    },
    {
      "constant": true,
      "inputs": [
        {
          "name": "_ID",
          "type": "uint256"
        }
      ],
      "name": "getProposalRewarded",
      "outputs": [
        {
          "name": "rewarded",
          "type": "bool"
        }
      ],
      "payable": false,
      "stateMutability": "view",
      "type": "function"
    },
    {
      "constant": false,
      "inputs": [
        {
          "name": "_tokenAmount",
          "type": "uint256"
        }
      ],
      "name": "swap",
      "outputs": [],
      "payable": false,
      "stateMutability": "nonpayable",
      "type": "function"
    },
    {
      "constant": true,
      "inputs": [],
      "name": "symbol",
      "outputs": [
        {
          "name": "",
          "type": "string"
        }
      ],
      "payable": false,
      "stateMutability": "view",
      "type": "function"
    },
    {
      "constant": true,
      "inputs": [],
      "name": "allowanceInterval",
      "outputs": [
        {
          "name": "",
          "type": "uint256"
        }
      ],
      "payable": false,
      "stateMutability": "view",
      "type": "function"
    },
    {
      "constant": false,
      "inputs": [
        {
          "name": "_name",
          "type": "string"
        },
        {
          "name": "_description",
          "type": "string"
        },
        {
          "name": "_value",
          "type": "uint256"
        }
      ],
      "name": "propose",
      "outputs": [],
      "payable": false,
      "stateMutability": "nonpayable",
      "type": "function"
    },
    {
      "constant": true,
      "inputs": [
        {
          "name": "_ID",
          "type": "uint256"
        }
      ],
      "name": "getProposalActive",
      "outputs": [
        {
          "name": "active",
          "type": "bool"
        }
      ],
      "payable": false,
      "stateMutability": "view",
      "type": "function"
    },
    {
      "constant": true,
      "inputs": [
        {
          "name": "_ID",
          "type": "uint256"
        }
      ],
      "name": "getProposalAccepted",
      "outputs": [
        {
          "name": "accepted",
          "type": "bool"
        }
      ],
      "payable": false,
      "stateMutability": "view",
      "type": "function"
    },
    {
      "constant": true,
      "inputs": [
        {
          "name": "_ID",
          "type": "uint256"
        }
      ],
      "name": "getProposalValue",
      "outputs": [
        {
          "name": "value",
          "type": "uint256"
        }
      ],
      "payable": false,
      "stateMutability": "view",
      "type": "function"
    },
    {
      "constant": false,
      "inputs": [
        {
          "name": "_value",
          "type": "uint256"
        }
      ],
      "name": "allowanceWithdrawal",
      "outputs": [],
      "payable": false,
      "stateMutability": "nonpayable",
      "type": "function"
    },
    {
      "constant": true,
      "inputs": [
        {
          "name": "",
          "type": "uint256"
        }
      ],
      "name": "proposals_Task",
      "outputs": [
        {
          "name": "ID",
          "type": "uint256"
        },
        {
          "name": "name",
          "type": "string"
        },
        {
          "name": "description",
          "type": "string"
        },
        {
          "name": "value",
          "type": "uint256"
        },
        {
          "name": "start",
          "type": "uint256"
        },
        {
          "name": "yes",
          "type": "uint256"
        },
        {
          "name": "no",
          "type": "uint256"
        },
        {
          "name": "active",
          "type": "bool"
        },
        {
          "name": "accepted",
          "type": "bool"
        },
        {
          "name": "rewarded",
          "type": "bool"
        }
      ],
      "payable": false,
      "stateMutability": "view",
      "type": "function"
    },
    {
      "constant": false,
      "inputs": [
        {
          "name": "_ID",
          "type": "uint256"
        },
        {
          "name": "_vote",
          "type": "bool"
        }
      ],
      "name": "vote",
      "outputs": [],
      "payable": false,
      "stateMutability": "nonpayable",
      "type": "function"
    },
    {
      "constant": true,
      "inputs": [],
      "name": "tokensPerEth",
      "outputs": [
        {
          "name": "",
          "type": "uint256"
        }
      ],
      "payable": false,
      "stateMutability": "view",
      "type": "function"
    },
    {
      "constant": true,
      "inputs": [
        {
          "name": "_ID",
          "type": "uint256"
        }
      ],
      "name": "getProposalNo",
      "outputs": [
        {
          "name": "no",
          "type": "uint256"
        }
      ],
      "payable": false,
      "stateMutability": "view",
      "type": "function"
    },
    {
      "constant": true,
      "inputs": [],
      "name": "maxSupply",
      "outputs": [
        {
          "name": "",
          "type": "uint256"
        }
      ],
      "payable": false,
      "stateMutability": "view",
      "type": "function"
    },
    {
      "constant": true,
      "inputs": [],
      "name": "allowanceValue",
      "outputs": [
        {
          "name": "",
          "type": "uint256"
        }
      ],
      "payable": false,
      "stateMutability": "view",
      "type": "function"
    },
    {
      "constant": true,
      "inputs": [],
      "name": "maxStake",
      "outputs": [
        {
          "name": "",
          "type": "uint256"
        }
      ],
      "payable": false,
      "stateMutability": "view",
      "type": "function"
    },
    {
      "inputs": [
        {
          "name": "_name",
          "type": "string"
        },
        {
          "name": "_symbol",
          "type": "string"
        },
        {
          "name": "_maxSupply",
          "type": "uint256"
        },
        {
          "name": "_maxStake",
          "type": "uint256"
        },
        {
          "name": "_tokensPerEth",
          "type": "uint256"
        },
        {
          "name": "_owners",
          "type": "address[]"
        },
        {
          "name": "_balances",
          "type": "uint256[]"
        },
        {
          "name": "_allowanceInterval",
          "type": "uint256"
        },
        {
          "name": "_allowanceValue",
          "type": "uint256"
        },
        {
          "name": "_proposalDuration_Task",
          "type": "uint256"
        },
        {
          "name": "_minVotes_Task",
          "type": "uint256"
        }
      ],
      "payable": false,
      "stateMutability": "nonpayable",
      "type": "constructor"
    },
    {
      "payable": true,
      "stateMutability": "payable",
      "type": "fallback"
    },
    {
      "anonymous": false,
      "inputs": [
        {
          "indexed": true,
          "name": "ID",
          "type": "uint256"
        },
        {
          "indexed": true,
          "name": "description",
          "type": "string"
        }
      ],
      "name": "ProposalCreation_Task",
      "type": "event"
    },
    {
      "anonymous": false,
      "inputs": [
        {
          "indexed": true,
          "name": "ID",
          "type": "uint256"
        },
        {
          "indexed": true,
          "name": "user",
          "type": "address"
        },
        {
          "indexed": true,
          "name": "value",
          "type": "bool"
        }
      ],
      "name": "UserVote_Task",
      "type": "event"
    },
    {
      "anonymous": false,
      "inputs": [
        {
          "indexed": true,
          "name": "ID",
          "type": "uint256"
        },
        {
          "indexed": true,
          "name": "description",
          "type": "string"
        },
        {
          "indexed": true,
          "name": "value",
          "type": "uint256"
        }
      ],
      "name": "SuccessfulProposal_Task",
      "type": "event"
    },
    {
      "anonymous": false,
      "inputs": [
        {
          "indexed": true,
          "name": "ID",
          "type": "uint256"
        },
        {
          "indexed": true,
          "name": "description",
          "type": "string"
        },
        {
          "indexed": true,
          "name": "reason",
          "type": "string"
        }
      ],
      "name": "RejectedProposal_Task",
      "type": "event"
    },
    {
      "anonymous": false,
      "inputs": [
        {
          "indexed": true,
          "name": "from",
          "type": "address"
        },
        {
          "indexed": true,
          "name": "to",
          "type": "address"
        },
        {
          "indexed": false,
          "name": "value",
          "type": "uint256"
        }
      ],
      "name": "Transfer",
      "type": "event"
    }
  ],
  "bytecode": "0x60606040526000601060006101000a81548160ff02191690831515021790555034156200002b57600080fd5b60405162002a5338038062002a538339810160405280805182019190602001805182019190602001805190602001909190805190602001909190805190602001909190805182019190602001805182019190602001805190602001909190805190602001909190805190602001909190805190602001909190505060008b60029080519060200190620000c0929190620003e8565b508a60039080519060200190620000d9929190620003e8565b506012600460006101000a81548160ff021916908360ff16021790555033600460016101000a81548173ffffffffffffffffffffffffffffffffffffffff021916908373ffffffffffffffffffffffffffffffffffffffff160217905550896005819055506000881115156200014e57600080fd5b87600781905550855187511415156200016657600080fd5b600090505b865181101562000346576200020686828151811015156200018857fe5b906020019060200201516000808a85815181101515620001a457fe5b9060200190602002015173ffffffffffffffffffffffffffffffffffffffff1673ffffffffffffffffffffffffffffffffffffffff16815260200190815260200160002054620003b96401000000000262000d13179091906401000000009004565b60008089848151811015156200021857fe5b9060200190602002015173ffffffffffffffffffffffffffffffffffffffff1673ffffffffffffffffffffffffffffffffffffffff168152602001908152602001600020819055506200029d86828151811015156200027357fe5b90602001906020020151600154620003b96401000000000262000d13179091906401000000009004565b6001819055508681815181101515620002b257fe5b9060200190602002015173ffffffffffffffffffffffffffffffffffffffff163073ffffffffffffffffffffffffffffffffffffffff167fddf252ad1be2c89b69c2b068fc378daa952ba7f163c4a11628f55a4df523b3ef88848151811015156200031957fe5b906020019060200201516040518082815260200191505060405180910390a380806001019150506200016b565b6001548a101515156200035857600080fd5b6000891180156200036a575060648911155b15156200037657600080fd5b88600681905550426008819055508460098190555083600a8190555083600b8190555082600d8190555081600e8190555050505050505050505050505062000497565b6000808284019050838110158015620003d25750828110155b1515620003de57600080fd5b8091505092915050565b828054600181600116156101000203166002900490600052602060002090601f016020900481019282601f106200042b57805160ff19168380011785556200045c565b828001600101855582156200045c579182015b828111156200045b5782518255916020019190600101906200043e565b5b5090506200046b91906200046f565b5090565b6200049491905b808211156200049057600081600090555060010162000476565b5090565b90565b6125ac80620004a76000396000f300606060405260043610610195576000357c0100000000000000000000000000000000000000000000000000000000900463ffffffff1680622e13161461037757806306aebc42146103a057806306fdde03146103d75780630ad245281461046557806318160ddd14610488578063229acb17146104b1578063313ce5671461054d578063429b92bf1461057c57806343ea17be1461061857806348489ed01461066d57806363a116e31461069657806370a08231146106cf5780637a6c55441461071c5780638263a938146107535780638da5cb5b1461077c5780638f776ff1146107d1578063921f9f27146107fa57806394b918de1461083557806395d89b41146108585780639a892b45146108e6578063ab43015a1461090f578063aeccd003146109b8578063b8e4783d146109f3578063ba63453f14610a2e578063c2c9813114610a65578063c6f17bc114610a88578063c9d27afe14610bd4578063cbdd69b514610c02578063cc1f3e5514610c2b578063d5abeb0114610c62578063deb80fe814610c8b578063ea1b28e014610cb4575b6000341115156101a457600080fd5b6102096101bc60075434610cdd90919063ffffffff16565b6000803373ffffffffffffffffffffffffffffffffffffffff1673ffffffffffffffffffffffffffffffffffffffff16815260200190815260200160002054610d1390919063ffffffff16565b6000803373ffffffffffffffffffffffffffffffffffffffff1673ffffffffffffffffffffffffffffffffffffffff1681526020019081526020016000208190555061027461026360075434610cdd90919063ffffffff16565b600154610d1390919063ffffffff16565b6001819055506064610293600654600554610cdd90919063ffffffff16565b81151561029c57fe5b046000803373ffffffffffffffffffffffffffffffffffffffff1673ffffffffffffffffffffffffffffffffffffffff16815260200190815260200160002054111515156102e957600080fd5b600554600154111515156102fc57600080fd5b3373ffffffffffffffffffffffffffffffffffffffff163073ffffffffffffffffffffffffffffffffffffffff167fddf252ad1be2c89b69c2b068fc378daa952ba7f163c4a11628f55a4df523b3ef61036060075434610cdd90919063ffffffff16565b6040518082815260200191505060405180910390a3005b341561038257600080fd5b61038a610d40565b6040518082815260200191505060405180910390f35b34156103ab57600080fd5b6103c16004808035906020019091905050610d6a565b6040518082815260200191505060405180910390f35b34156103e257600080fd5b6103ea610d94565b6040518080602001828103825283818151815260200191508051906020019080838360005b8381101561042a57808201518184015260208101905061040f565b50505050905090810190601f1680156104575780820380516001836020036101000a031916815260200191505b509250505060405180910390f35b341561047057600080fd5b6104866004808035906020019091905050610e32565b005b341561049357600080fd5b61049b6112ec565b6040518082815260200191505060405180910390f35b34156104bc57600080fd5b6104d260048080359060200190919050506112f2565b6040518080602001828103825283818151815260200191508051906020019080838360005b838110156105125780820151818401526020810190506104f7565b50505050905090810190601f16801561053f5780820380516001836020036101000a031916815260200191505b509250505060405180910390f35b341561055857600080fd5b6105606113ba565b604051808260ff1660ff16815260200191505060405180910390f35b341561058757600080fd5b61059d60048080359060200190919050506113cd565b6040518080602001828103825283818151815260200191508051906020019080838360005b838110156105dd5780820151818401526020810190506105c2565b50505050905090810190601f16801561060a5780820380516001836020036101000a031916815260200191505b509250505060405180910390f35b341561062357600080fd5b61062b611495565b604051808273ffffffffffffffffffffffffffffffffffffffff1673ffffffffffffffffffffffffffffffffffffffff16815260200191505060405180910390f35b341561067857600080fd5b6106806114bb565b6040518082815260200191505060405180910390f35b34156106a157600080fd5b6106cd600480803573ffffffffffffffffffffffffffffffffffffffff169060200190919050506114c1565b005b34156106da57600080fd5b610706600480803573ffffffffffffffffffffffffffffffffffffffff169060200190919050506115bb565b6040518082815260200191505060405180910390f35b341561072757600080fd5b61073d60048080359060200190919050506115d3565b6040518082815260200191505060405180910390f35b341561075e57600080fd5b6107666115fd565b6040518082815260200191505060405180910390f35b341561078757600080fd5b61078f61160a565b604051808273ffffffffffffffffffffffffffffffffffffffff1673ffffffffffffffffffffffffffffffffffffffff16815260200191505060405180910390f35b34156107dc57600080fd5b6107e4611630565b6040518082815260200191505060405180910390f35b341561080557600080fd5b61081b6004808035906020019091905050611636565b604051808215151515815260200191505060405180910390f35b341561084057600080fd5b610856600480803590602001909190505061166d565b005b341561086357600080fd5b61086b61190e565b6040518080602001828103825283818151815260200191508051906020019080838360005b838110156108ab578082015181840152602081019050610890565b50505050905090810190601f1680156108d85780820380516001836020036101000a031916815260200191505b509250505060405180910390f35b34156108f157600080fd5b6108f96119ac565b6040518082815260200191505060405180910390f35b341561091a57600080fd5b6109b6600480803590602001908201803590602001908080601f0160208091040260200160405190810160405280939291908181526020018383808284378201915050505050509190803590602001908201803590602001908080601f016020809104026020016040519081016040528093929190818152602001838380828437820191505050505050919080359060200190919050506119b2565b005b34156109c357600080fd5b6109d96004808035906020019091905050611cb4565b604051808215151515815260200191505060405180910390f35b34156109fe57600080fd5b610a146004808035906020019091905050611ceb565b604051808215151515815260200191505060405180910390f35b3415610a3957600080fd5b610a4f6004808035906020019091905050611d22565b6040518082815260200191505060405180910390f35b3415610a7057600080fd5b610a866004808035906020019091905050611d4c565b005b3415610a9357600080fd5b610aa96004808035906020019091905050611e57565b604051808b815260200180602001806020018a815260200189815260200188815260200187815260200186151515158152602001851515151581526020018415151515815260200183810383528c818151815260200191508051906020019080838360005b83811015610b29578082015181840152602081019050610b0e565b50505050905090810190601f168015610b565780820380516001836020036101000a031916815260200191505b5083810382528b818151815260200191508051906020019080838360005b83811015610b8f578082015181840152602081019050610b74565b50505050905090810190601f168015610bbc5780820380516001836020036101000a031916815260200191505b509c5050505050505050505050505060405180910390f35b3415610bdf57600080fd5b610c0060048080359060200190919080351515906020019091905050612011565b005b3415610c0d57600080fd5b610c1561234c565b6040518082815260200191505060405180910390f35b3415610c3657600080fd5b610c4c6004808035906020019091905050612352565b6040518082815260200191505060405180910390f35b3415610c6d57600080fd5b610c7561237c565b6040518082815260200191505060405180910390f35b3415610c9657600080fd5b610c9e612382565b6040518082815260200191505060405180910390f35b3415610cbf57600080fd5b610cc7612388565b6040518082815260200191505060405180910390f35b60008082840290506000841480610cfe5750828482811515610cfb57fe5b04145b1515610d0957600080fd5b8091505092915050565b6000808284019050838110158015610d2b5750828110155b1515610d3657600080fd5b8091505092915050565b60006064610d5b600654600154610cdd90919063ffffffff16565b811515610d6457fe5b04905090565b6000600f82815481101515610d7b57fe5b9060005260206000209060090201600401549050919050565b60028054600181600116156101000203166002900480601f016020809104026020016040519081016040528092919081815260200182805460018160011615610100020316600290048015610e2a5780601f10610dff57610100808354040283529160200191610e2a565b820191906000526020600020905b815481529060010190602001808311610e0d57829003601f168201915b505050505081565b60008060003373ffffffffffffffffffffffffffffffffffffffff1673ffffffffffffffffffffffffffffffffffffffff16815260200190815260200160002054111515610e7f57600080fd5b600d54610eb5600f83815481101515610e9457fe5b9060005260206000209060090201600401544261238e90919063ffffffff16565b10151515610ec257600080fd5b600f81815481101515610ed157fe5b906000526020600020906009020160080160009054906101000a900460ff161515610efb57600080fd5b6000600f82815481101515610f0c57fe5b906000526020600020906009020160080160006101000a81548160ff0219169083151502179055506064610f4d600154600e54610cdd90919063ffffffff16565b811515610f5657fe5b04610faa600f83815481101515610f6957fe5b906000526020600020906009020160050154600f84815481101515610f8a57fe5b906000526020600020906009020160060154610d1390919063ffffffff16565b10156110a05760405180807f50617274696369706174696f6e20746f6f206c6f77000000000000000000000081525060150190506040518091039020600f82815481101515610ff557fe5b906000526020600020906009020160020160405180828054600181600116156101000203166002900480156110615780601f1061103f576101008083540402835291820191611061565b820191906000526020600020905b81548152906001019060200180831161104d575b50509150506040518091039020827f876c20b08550f4ae22fba74da817782aae5c3948223df4d406846d04aae91bf560405160405180910390a46112e9565b600f818154811015156110af57fe5b906000526020600020906009020160060154600f828154811015156110d057fe5b90600052602060002090600902016005015411156111fc576001600f828154811015156110f957fe5b906000526020600020906009020160080160016101000a81548160ff021916908315150217905550600f8181548110151561113057fe5b906000526020600020906009020160030154600f8281548110151561115157fe5b906000526020600020906009020160020160405180828054600181600116156101000203166002900480156111bd5780601f1061119b5761010080835404028352918201916111bd565b820191906000526020600020905b8154815290600101906020018083116111a9575b50509150506040518091039020827fa9acdc5e61d2a6ae00c0c76f856a20d9c9c247c3731151c32d842f0117d8b53c60405160405180910390a46112e8565b60405180807f50726f706f73616c2072656a656374656420627920766f74650000000000000081525060190190506040518091039020600f8281548110151561124157fe5b906000526020600020906009020160020160405180828054600181600116156101000203166002900480156112ad5780601f1061128b5761010080835404028352918201916112ad565b820191906000526020600020905b815481529060010190602001808311611299575b50509150506040518091039020827f876c20b08550f4ae22fba74da817782aae5c3948223df4d406846d04aae91bf560405160405180910390a45b5b50565b60015481565b6112fa6123aa565b600f8281548110151561130957fe5b90600052602060002090600902016002018054600181600116156101000203166002900480601f0160208091040260200160405190810160405280929190818152602001828054600181600116156101000203166002900480156113ae5780601f10611383576101008083540402835291602001916113ae565b820191906000526020600020905b81548152906001019060200180831161139157829003601f168201915b50505050509050919050565b600460009054906101000a900460ff1681565b6113d56123aa565b600f828154811015156113e457fe5b90600052602060002090600902016001018054600181600116156101000203166002900480601f0160208091040260200160405190810160405280929190818152602001828054600181600116156101000203166002900480156114895780601f1061145e57610100808354040283529160200191611489565b820191906000526020600020905b81548152906001019060200180831161146c57829003601f168201915b50505050509050919050565b601060019054906101000a900473ffffffffffffffffffffffffffffffffffffffff1681565b60085481565b600460019054906101000a900473ffffffffffffffffffffffffffffffffffffffff1673ffffffffffffffffffffffffffffffffffffffff163373ffffffffffffffffffffffffffffffffffffffff1614151561151d57600080fd5b601060009054906101000a900460ff16158015611551575060008173ffffffffffffffffffffffffffffffffffffffff1614155b151561155c57600080fd5b6001601060006101000a81548160ff02191690831515021790555080601060016101000a81548173ffffffffffffffffffffffffffffffffffffffff021916908373ffffffffffffffffffffffffffffffffffffffff16021790555050565b60006020528060005260406000206000915090505481565b6000600f828154811015156115e457fe5b9060005260206000209060090201600501549050919050565b6000600f80549050905090565b600460019054906101000a900473ffffffffffffffffffffffffffffffffffffffff1681565b600b5481565b6000600f8281548110151561164757fe5b906000526020600020906009020160080160029054906101000a900460ff169050919050565b60008060003373ffffffffffffffffffffffffffffffffffffffff1673ffffffffffffffffffffffffffffffffffffffff168152602001908152602001600020541115156116ba57600080fd5b601060009054906101000a900460ff1615156116d557600080fd5b611726816000803373ffffffffffffffffffffffffffffffffffffffff1673ffffffffffffffffffffffffffffffffffffffff1681526020019081526020016000205461238e90919063ffffffff16565b6000803373ffffffffffffffffffffffffffffffffffffffff1673ffffffffffffffffffffffffffffffffffffffff1681526020019081526020016000208190555061177d8160015461238e90919063ffffffff16565b6001819055506117988160055461238e90919063ffffffff16565b600581905550601060019054906101000a900473ffffffffffffffffffffffffffffffffffffffff1673ffffffffffffffffffffffffffffffffffffffff1663d3986f0882336040518363ffffffff167c0100000000000000000000000000000000000000000000000000000000028152600401808381526020018273ffffffffffffffffffffffffffffffffffffffff1673ffffffffffffffffffffffffffffffffffffffff16815260200192505050602060405180830381600087803b151561186257600080fd5b5af1151561186f57600080fd5b50505060405180519050151561188457600080fd5b601060019054906101000a900473ffffffffffffffffffffffffffffffffffffffff1673ffffffffffffffffffffffffffffffffffffffff163373ffffffffffffffffffffffffffffffffffffffff167fddf252ad1be2c89b69c2b068fc378daa952ba7f163c4a11628f55a4df523b3ef836040518082815260200191505060405180910390a350565b60038054600181600116156101000203166002900480601f0160208091040260200160405190810160405280929190818152602001828054600181600116156101000203166002900480156119a45780601f10611979576101008083540402835291602001916119a4565b820191906000526020600020905b81548152906001019060200180831161198757829003601f168201915b505050505081565b60095481565b6000806000803373ffffffffffffffffffffffffffffffffffffffff1673ffffffffffffffffffffffffffffffffffffffff16815260200190815260200160002054111515611a0057600080fd5b3073ffffffffffffffffffffffffffffffffffffffff163182111515611a2557600080fd5b600d54611a7a600c60003373ffffffffffffffffffffffffffffffffffffffff1673ffffffffffffffffffffffffffffffffffffffff168152602001908152602001600020544261238e90919063ffffffff16565b111515611a8657600080fd5b42600c60003373ffffffffffffffffffffffffffffffffffffffff1673ffffffffffffffffffffffffffffffffffffffff16815260200190815260200160002081905550600f805490509050600f8054806001018281611ae691906123be565b91600052602060002090600902016000610140604051908101604052808581526020018881526020018781526020018681526020014281526020016000815260200160008152602001600115158152602001600015158152602001600015158152509091909150600082015181600001556020820151816001019080519060200190611b739291906123f0565b506040820151816002019080519060200190611b909291906123f0565b50606082015181600301556080820151816004015560a0820151816005015560c0820151816006015560e08201518160080160006101000a81548160ff0219169083151502179055506101008201518160080160016101000a81548160ff0219169083151502179055506101208201518160080160026101000a81548160ff021916908315150217905550505050826040518082805190602001908083835b602083101515611c545780518252602082019150602081019050602083039250611c2f565b6001836020036101000a0380198251168184511680821785525050505050509050019150506040518091039020817f99302e2af76c2b15baadb0a49b1bd6eb054e52aca45affa743c730af4492643960405160405180910390a350505050565b6000600f82815481101515611cc557fe5b906000526020600020906009020160080160009054906101000a900460ff169050919050565b6000600f82815481101515611cfc57fe5b906000526020600020906009020160080160019054906101000a900460ff169050919050565b6000600f82815481101515611d3357fe5b9060005260206000209060090201600301549050919050565b600460019054906101000a900473ffffffffffffffffffffffffffffffffffffffff1673ffffffffffffffffffffffffffffffffffffffff163373ffffffffffffffffffffffffffffffffffffffff16141515611da857600080fd5b600954611dc06008544261238e90919063ffffffff16565b1115611dd757600a54600b81905550426008819055505b611dec81600b5461238e90919063ffffffff16565b600b81905550600460019054906101000a900473ffffffffffffffffffffffffffffffffffffffff1673ffffffffffffffffffffffffffffffffffffffff166108fc829081150290604051600060405180830381858888f193505050501515611e5457600080fd5b50565b600f81815481101515611e6657fe5b9060005260206000209060090201600091509050806000015490806001018054600181600116156101000203166002900480601f016020809104026020016040519081016040528092919081815260200182805460018160011615610100020316600290048015611f185780601f10611eed57610100808354040283529160200191611f18565b820191906000526020600020905b815481529060010190602001808311611efb57829003601f168201915b505050505090806002018054600181600116156101000203166002900480601f016020809104026020016040519081016040528092919081815260200182805460018160011615610100020316600290048015611fb65780601f10611f8b57610100808354040283529160200191611fb6565b820191906000526020600020905b815481529060010190602001808311611f9957829003601f168201915b5050505050908060030154908060040154908060050154908060060154908060080160009054906101000a900460ff16908060080160019054906101000a900460ff16908060080160029054906101000a900460ff1690508a565b60008060003373ffffffffffffffffffffffffffffffffffffffff1673ffffffffffffffffffffffffffffffffffffffff1681526020019081526020016000205411151561205e57600080fd5b600f8281548110151561206d57fe5b906000526020600020906009020160080160009054906101000a900460ff16151561209757600080fd5b600d546120cd600f848154811015156120ac57fe5b9060005260206000209060090201600401544261238e90919063ffffffff16565b1015156120de576120dd82610e32565b5b600f828154811015156120ed57fe5b906000526020600020906009020160070160003373ffffffffffffffffffffffffffffffffffffffff1673ffffffffffffffffffffffffffffffffffffffff16815260200190815260200160002060009054906101000a900460ff1615151561215557600080fd5b6001600f8381548110151561216657fe5b906000526020600020906009020160070160003373ffffffffffffffffffffffffffffffffffffffff1673ffffffffffffffffffffffffffffffffffffffff16815260200190815260200160002060006101000a81548160ff021916908315150217905550801561226b576122426000803373ffffffffffffffffffffffffffffffffffffffff1673ffffffffffffffffffffffffffffffffffffffff16815260200190815260200160002054600f8481548110151561222257fe5b906000526020600020906009020160050154610d1390919063ffffffff16565b600f8381548110151561225157fe5b906000526020600020906009020160050181905550612301565b6122dc6000803373ffffffffffffffffffffffffffffffffffffffff1673ffffffffffffffffffffffffffffffffffffffff16815260200190815260200160002054600f848154811015156122bc57fe5b906000526020600020906009020160060154610d1390919063ffffffff16565b600f838154811015156122eb57fe5b9060005260206000209060090201600601819055505b8015153373ffffffffffffffffffffffffffffffffffffffff16837f1d595aa6b214c8b2455e6ce08896d7de7750ad057c9370772d798e85b664790e60405160405180910390a45050565b60075481565b6000600f8281548110151561236357fe5b9060005260206000209060090201600601549050919050565b60055481565b600a5481565b60065481565b600082821115151561239f57600080fd5b818303905092915050565b602060405190810160405280600081525090565b8154818355818115116123eb576009028160090283600052602060002091820191016123ea9190612470565b5b505050565b828054600181600116156101000203166002900490600052602060002090601f016020900481019282601f1061243157805160ff191683800117855561245f565b8280016001018555821561245f579182015b8281111561245e578251825591602001919060010190612443565b5b50905061246c9190612513565b5090565b61251091905b8082111561250c576000808201600090556001820160006124979190612538565b6002820160006124a79190612538565b60038201600090556004820160009055600582016000905560068201600090556008820160006101000a81549060ff02191690556008820160016101000a81549060ff02191690556008820160026101000a81549060ff021916905550600901612476565b5090565b90565b61253591905b80821115612531576000816000905550600101612519565b5090565b90565b50805460018160011615610100020316600290046000825580601f1061255e575061257d565b601f01602090049060005260206000209081019061257c9190612513565b5b505600a165627a7a723058200c616e6f6794f8db599f7b0bba851957f8e4b944aa376605da16ea5ff67ac18a0029",
  "source": "pragma solidity 0.4.21;\n\ninterface RevToken {\n    function swap(uint256 _tokenAmount, address _tokenHolder) external returns(bool success);\n}\n\n// Safe Math library that automatically checks for overflows and underflows\nlibrary SafeMath {\n    // Safe multiplication\n    function mul(uint256 a, uint256 b) internal pure returns (uint256) {\n        uint256 c = a * b;\n        require(a == 0 || c / a == b);\n        return c;\n    }\n\n    // Safe subtraction\n    function sub(uint256 a, uint256 b) internal pure returns (uint256) {\n        require(b <= a);\n        return a - b;\n    }\n\n    // Safe addition\n    function add(uint256 a, uint256 b) internal pure returns (uint256) {\n        uint256 c = a + b;\n        require(c>=a && c>=b);\n        return c;\n    }\n}\n\n// Basic ERC20 functions\ncontract Token {\n\n    using SafeMath for uint256;\n\n    event Transfer(address indexed from, address indexed to, uint256 value);\n\n    // mapping of all balances\n    mapping (address => uint256) public balanceOf;\n    // The total supply of the token\n    uint256 public totalSupply;\n\n    // Some variables for nice wallet integration\n    string public name;          // name of token\n    string public symbol;        // symbol of token\n    uint8 public decimals;       // decimals of token\n}\n\ncontract Owned is Token {\n    // address of the developers\n    address public owner;\n    // modifiers: only allows Owner/Pool/Contract to call certain functions\n    modifier onlyOwner {\n        require(msg.sender == owner);\n        _;\n    }\n    modifier onlyTokenHolder {\n        require(balanceOf[msg.sender] > 0);\n        _;\n    }\n}\n\n// DevToken functions which are active during development phase\ncontract Funding is Owned {\n\n    // maximum supply of the token\n    uint256 public maxSupply;\n    // maximum stake someone can have of all tokens (in percent)\n    uint256 public maxStake;\n    // tokens that are being sold per ether\n    uint256 public tokensPerEth;\n\n    // lock ETH in contract and return DevTokens\n    function () public payable {\n        require(msg.value > 0);\n\n        // adds the amount of ETH sent as DevToken value and increases total supply\n        balanceOf[msg.sender] = balanceOf[msg.sender].add(msg.value.mul(tokensPerEth));\n        totalSupply = totalSupply.add(msg.value.mul(tokensPerEth));\n\n        // user cannot deposit more than \"maxStake\"% of the total supply\n        require(balanceOf[msg.sender] <= maxSupply.mul(maxStake)/100);\n        // fails if total supply surpasses maximum supply\n        require(totalSupply <= maxSupply);\n\n        // transfer event\n        emit Transfer(address(this), msg.sender, msg.value.mul(tokensPerEth));\n    }\n\n    // constant function: return maximum possible investment per person\n    function maxInvestment() public view returns(uint256) {\n        return totalSupply.mul(maxStake)/100;\n    }\n}\n\ncontract OwnerAllowance is Funding {\n    // time since last use of allowance\n    uint256 public allowanceTimeCounter;\n    // interval how often allowance is reset\n    uint256 public allowanceInterval;\n    // allowance amount per interval\n    uint256 public allowanceValue;\n    // current allowance balance\n    uint256 public allowanceBalance;\n\n    // allows owner to withdraw ether in an interval\n    function allowanceWithdrawal(uint256 _value) public onlyOwner {\n        if (now.sub(allowanceTimeCounter) > allowanceInterval) {\n            allowanceBalance = allowanceValue;\n            allowanceTimeCounter = now;\n        }\n        allowanceBalance = allowanceBalance.sub(_value);\n        owner.transfer(_value);\n    }\n}\n\n// task voting implementation\ncontract Voting_Task is OwnerAllowance {\n\n    mapping(address => uint256) lastProposal_Task;\n    uint256 proposalDuration_Task;\n    uint256 minVotes_Task;\n\n    event ProposalCreation_Task(uint256 indexed ID, string indexed description);\n    event UserVote_Task(uint256 indexed ID, address indexed user, bool indexed value);\n    event SuccessfulProposal_Task(uint256 indexed ID, string indexed description, uint256 indexed value);\n    event RejectedProposal_Task(uint256 indexed ID, string indexed description, string indexed reason);\n\n    struct Proposal_Task {\n        uint256 ID;\n        string name;\n        string description;\n        // (optional) amount of ETH-reward for development tasks\n        uint256 value;\n        uint256 start;\n        uint256 yes;\n        uint256 no;\n        mapping(address => bool) voted;\n        bool active;\n        bool accepted;\n        // (optional) bool if proposal was rewarded\n        bool rewarded;\n    }\n\n    // array of polls\n    Proposal_Task[] public proposals_Task;\n\n    function propose(string _name, string _description, uint256 _value) public onlyTokenHolder {\n\n        require(_value > address(this).balance);\n        // allows one proposal per week and resets value after successful proposal\n        require(now.sub(lastProposal_Task[msg.sender]) > proposalDuration_Task);\n        lastProposal_Task[msg.sender] = now;\n\n        // saves ID of proposal which is equal to the array index\n        uint256 ID = proposals_Task.length;\n\n        // initializes new proposal as a struct and pushes it into the proposal array\n        proposals_Task.push(Proposal_Task({ID: ID, name: _name, description: _description, value: _value, start: now, yes: 0, no: 0, active: true, accepted: false, rewarded: false}));\n\n        // event generated for proposal creation\n        emit ProposalCreation_Task(ID, _description);\n\n    }\n\n    // vote on a development task\n    function vote(uint256 _ID, bool _vote) public onlyTokenHolder {\n\n        // proposal has to be active\n        require(proposals_Task[_ID].active);\n\n        // proposal has to be active less than one week\n        if (now.sub(proposals_Task[_ID].start) >= proposalDuration_Task) {\n            end(_ID);\n        }\n\n        // checks if tokenholder has already voted\n        require(!proposals_Task[_ID].voted[msg.sender]);\n        // registers vote\n        proposals_Task[_ID].voted[msg.sender] = true;\n\n        // if the value is 0 it's considered no\n        if (_vote) {\n            // registers the balance of msg.sender as a yes vote\n            proposals_Task[_ID].yes = proposals_Task[_ID].yes.add(balanceOf[msg.sender]);\n        } else {\n            // registers the balance of msg.sender as a no vote\n            proposals_Task[_ID].no = proposals_Task[_ID].no.add(balanceOf[msg.sender]);\n        }\n        // event generated for tokenholder vote\n        emit UserVote_Task(_ID, msg.sender, _vote);\n\n    }\n\n\n    // end voting for a development task\n    function end(uint256 _ID) public onlyTokenHolder {\n\n        // requires proposal to be running for a week\n        require(now.sub(proposals_Task[_ID].start) >= proposalDuration_Task);\n\n        // requires proposal to be active\n        require(proposals_Task[_ID].active);\n        proposals_Task[_ID].active = false;\n\n        // rejects proposal if not enough people voted on it\n        if (proposals_Task[_ID].no.add(proposals_Task[_ID].yes) < (minVotes_Task.mul(totalSupply))/100) {\n            // event generation\n            emit RejectedProposal_Task(_ID, proposals_Task[_ID].description, \"Participation too low\");\n\n        // compares yes and no votes\n        } else if (proposals_Task[_ID].yes > proposals_Task[_ID].no) {\n            proposals_Task[_ID].accepted = true;\n            // event generation\n            emit SuccessfulProposal_Task(_ID, proposals_Task[_ID].description, proposals_Task[_ID].value);\n\n        } else {\n            // event generation\n            emit RejectedProposal_Task(_ID, proposals_Task[_ID].description, \"Proposal rejected by vote\");\n        }\n\n    }\n\n    function getProposalLength() public view returns(uint256 length) {\n        return proposals_Task.length;\n    }\n\n    function getProposalName(uint256 _ID) public view returns(string name) {\n        return proposals_Task[_ID].name;\n    }\n\n    function getProposalDescription(uint256 _ID) public view returns(string description) {\n        return proposals_Task[_ID].description;\n    }\n\n    function getProposalValue(uint256 _ID) public view returns(uint256 value) {\n        return proposals_Task[_ID].value;\n    }\n\n    function getProposalStart(uint256 _ID) public view returns(uint256 start) {\n        return proposals_Task[_ID].start;\n    }\n\n    function getProposalYes(uint256 _ID) public view returns(uint256 yes) {\n        return proposals_Task[_ID].yes;\n    }\n\n    function getProposalNo(uint256 _ID) public view returns(uint256 no) {\n        return proposals_Task[_ID].no;\n    }\n\n    function getProposalActive(uint256 _ID) public view returns(bool active) {\n        return proposals_Task[_ID].active;\n    }\n\n    function getProposalAccepted(uint256 _ID) public view returns(bool accepted) {\n        return proposals_Task[_ID].accepted;\n    }\n\n    function getProposalRewarded(uint256 _ID) public view returns(bool rewarded) {\n        return proposals_Task[_ID].rewarded;\n    }\n}\n\ncontract DevRev is Voting_Task {\n    // bool to see if RevToken was set\n    bool private set = false;\n    address public RevTokenAddress;\n\n    function setRevContract(address _contractAddress) public onlyOwner {\n        require(!set && _contractAddress != 0x0);\n        set = true;\n        RevTokenAddress = _contractAddress;\n    }\n\n    function swap(uint256 _tokenAmount) public onlyTokenHolder {\n        require(set);\n        balanceOf[msg.sender] = balanceOf[msg.sender].sub(_tokenAmount);\n        totalSupply = totalSupply.sub(_tokenAmount);\n        maxSupply = maxSupply.sub(_tokenAmount);\n        require(RevToken(RevTokenAddress).swap(_tokenAmount, msg.sender));\n        emit Transfer(msg.sender, RevTokenAddress, _tokenAmount);\n    }\n\n}\n\n// DevRevToken combines DevToken and RevToken into one token\ncontract DevToken is DevRev {\n    function DevToken(\n        // arguments Token\n        string _name, string _symbol,\n        // arguments Funding\n        uint256 _maxSupply, uint256 _maxStake, uint256 _tokensPerEth, address[] _owners, uint256[] _balances,\n        // arguments OwnerAllowance\n        uint256 _allowanceInterval, uint256 _allowanceValue,\n        // arguments TaskVoting\n        uint256 _proposalDuration_Task, uint256 _minVotes_Task\n        ) public {\n\n        // constructor Token\n        name = _name;\n        symbol = _symbol;\n        decimals = 18;\n        // constructor Funding\n        owner = msg.sender;\n        maxSupply = _maxSupply;\n        require(_tokensPerEth > 0);\n        tokensPerEth = _tokensPerEth;\n        require(_owners.length == _balances.length);\n        for (uint256 i = 0; i < _owners.length; i++) {\n            balanceOf[_owners[i]] = balanceOf[_owners[i]].add(_balances[i]);\n            totalSupply = totalSupply.add(_balances[i]);\n            emit Transfer(address(this), _owners[i], _balances[i]);\n        }\n        require(_maxSupply >= totalSupply);\n        require(_maxStake > 0 && _maxStake <= 100);\n        maxStake = _maxStake;\n        // constructor OwnerAllowance\n        allowanceTimeCounter = now;\n        allowanceInterval = _allowanceInterval;\n        allowanceValue = _allowanceValue;\n        allowanceBalance = _allowanceValue;\n        // constructor TaskVoting\n        proposalDuration_Task = _proposalDuration_Task;\n        minVotes_Task = _minVotes_Task;\n    }\n}\n",
  "sourcePath": "/Users/gretzke/Documents/Projekte/InnoChain/Chainge/git/tApp/contracts/DevToken.sol",
  "compiler": {
    "name": "solc",
    "version": "0.4.21+commit.dfe3193c.Emscripten.clang"
  },
  "schemaVersion": "2.0.0",
  "updatedAt": "2018-04-12T14:41:07.320Z"
}