{
  "contractName": "DevToken",
  "abi": [
    {
      "constant": true,
      "inputs": [],
      "name": "maxInvestment",
      "outputs": [
        {
          "name": "",
          "type": "uint256"
        }
      ],
      "payable": false,
      "stateMutability": "view",
      "type": "function"
    },
    {
      "constant": true,
      "inputs": [
        {
          "name": "_ID",
          "type": "uint256"
        }
      ],
      "name": "getProposalStart",
      "outputs": [
        {
          "name": "start",
          "type": "uint256"
        }
      ],
      "payable": false,
      "stateMutability": "view",
      "type": "function"
    },
    {
      "constant": true,
      "inputs": [],
      "name": "name",
      "outputs": [
        {
          "name": "",
          "type": "string"
        }
      ],
      "payable": false,
      "stateMutability": "view",
      "type": "function"
    },
    {
      "constant": false,
      "inputs": [
        {
          "name": "_ID",
          "type": "uint256"
        }
      ],
      "name": "end",
      "outputs": [],
      "payable": false,
      "stateMutability": "nonpayable",
      "type": "function"
    },
    {
      "constant": true,
      "inputs": [],
      "name": "totalSupply",
      "outputs": [
        {
          "name": "",
          "type": "uint256"
        }
      ],
      "payable": false,
      "stateMutability": "view",
      "type": "function"
    },
    {
      "constant": true,
      "inputs": [
        {
          "name": "_ID",
          "type": "uint256"
        }
      ],
      "name": "getProposalDescription",
      "outputs": [
        {
          "name": "description",
          "type": "string"
        }
      ],
      "payable": false,
      "stateMutability": "view",
      "type": "function"
    },
    {
      "constant": true,
      "inputs": [],
      "name": "decimals",
      "outputs": [
        {
          "name": "",
          "type": "uint8"
        }
      ],
      "payable": false,
      "stateMutability": "view",
      "type": "function"
    },
    {
      "constant": true,
      "inputs": [
        {
          "name": "_ID",
          "type": "uint256"
        }
      ],
      "name": "getProposalName",
      "outputs": [
        {
          "name": "name",
          "type": "string"
        }
      ],
      "payable": false,
      "stateMutability": "view",
      "type": "function"
    },
    {
      "constant": true,
      "inputs": [],
      "name": "RevTokenAddress",
      "outputs": [
        {
          "name": "",
          "type": "address"
        }
      ],
      "payable": false,
      "stateMutability": "view",
      "type": "function"
    },
    {
      "constant": true,
      "inputs": [],
      "name": "allowanceTimeCounter",
      "outputs": [
        {
          "name": "",
          "type": "uint256"
        }
      ],
      "payable": false,
      "stateMutability": "view",
      "type": "function"
    },
    {
      "constant": false,
      "inputs": [
        {
          "name": "_contractAddress",
          "type": "address"
        }
      ],
      "name": "setRevContract",
      "outputs": [],
      "payable": false,
      "stateMutability": "nonpayable",
      "type": "function"
    },
    {
      "constant": true,
      "inputs": [
        {
          "name": "",
          "type": "address"
        }
      ],
      "name": "balanceOf",
      "outputs": [
        {
          "name": "",
          "type": "uint256"
        }
      ],
      "payable": false,
      "stateMutability": "view",
      "type": "function"
    },
    {
      "constant": true,
      "inputs": [
        {
          "name": "_ID",
          "type": "uint256"
        }
      ],
      "name": "getProposalYes",
      "outputs": [
        {
          "name": "yes",
          "type": "uint256"
        }
      ],
      "payable": false,
      "stateMutability": "view",
      "type": "function"
    },
    {
      "constant": true,
      "inputs": [],
      "name": "getProposalLength",
      "outputs": [
        {
          "name": "length",
          "type": "uint256"
        }
      ],
      "payable": false,
      "stateMutability": "view",
      "type": "function"
    },
    {
      "constant": true,
      "inputs": [],
      "name": "owner",
      "outputs": [
        {
          "name": "",
          "type": "address"
        }
      ],
      "payable": false,
      "stateMutability": "view",
      "type": "function"
    },
    {
      "constant": true,
      "inputs": [],
      "name": "allowanceBalance",
      "outputs": [
        {
          "name": "",
          "type": "uint256"
        }
      ],
      "payable": false,
      "stateMutability": "view",
      "type": "function"
    },
    {
      "constant": true,
      "inputs": [
        {
          "name": "_ID",
          "type": "uint256"
        }
      ],
      "name": "getProposalRewarded",
      "outputs": [
        {
          "name": "rewarded",
          "type": "bool"
        }
      ],
      "payable": false,
      "stateMutability": "view",
      "type": "function"
    },
    {
      "constant": false,
      "inputs": [
        {
          "name": "_tokenAmount",
          "type": "uint256"
        }
      ],
      "name": "swap",
      "outputs": [],
      "payable": false,
      "stateMutability": "nonpayable",
      "type": "function"
    },
    {
      "constant": true,
      "inputs": [],
      "name": "symbol",
      "outputs": [
        {
          "name": "",
          "type": "string"
        }
      ],
      "payable": false,
      "stateMutability": "view",
      "type": "function"
    },
    {
      "constant": true,
      "inputs": [],
      "name": "allowanceInterval",
      "outputs": [
        {
          "name": "",
          "type": "uint256"
        }
      ],
      "payable": false,
      "stateMutability": "view",
      "type": "function"
    },
    {
      "constant": false,
      "inputs": [
        {
          "name": "_name",
          "type": "string"
        },
        {
          "name": "_description",
          "type": "string"
        },
        {
          "name": "_value",
          "type": "uint256"
        }
      ],
      "name": "propose",
      "outputs": [],
      "payable": false,
      "stateMutability": "nonpayable",
      "type": "function"
    },
    {
      "constant": true,
      "inputs": [
        {
          "name": "_ID",
          "type": "uint256"
        }
      ],
      "name": "getProposalActive",
      "outputs": [
        {
          "name": "active",
          "type": "bool"
        }
      ],
      "payable": false,
      "stateMutability": "view",
      "type": "function"
    },
    {
      "constant": true,
      "inputs": [
        {
          "name": "_ID",
          "type": "uint256"
        }
      ],
      "name": "getProposalAccepted",
      "outputs": [
        {
          "name": "accepted",
          "type": "bool"
        }
      ],
      "payable": false,
      "stateMutability": "view",
      "type": "function"
    },
    {
      "constant": true,
      "inputs": [
        {
          "name": "_ID",
          "type": "uint256"
        }
      ],
      "name": "getProposalValue",
      "outputs": [
        {
          "name": "value",
          "type": "uint256"
        }
      ],
      "payable": false,
      "stateMutability": "view",
      "type": "function"
    },
    {
      "constant": false,
      "inputs": [
        {
          "name": "_value",
          "type": "uint256"
        }
      ],
      "name": "allowanceWithdrawal",
      "outputs": [],
      "payable": false,
      "stateMutability": "nonpayable",
      "type": "function"
    },
    {
      "constant": true,
      "inputs": [
        {
          "name": "",
          "type": "uint256"
        }
      ],
      "name": "proposals_Task",
      "outputs": [
        {
          "name": "ID",
          "type": "uint256"
        },
        {
          "name": "name",
          "type": "string"
        },
        {
          "name": "description",
          "type": "string"
        },
        {
          "name": "value",
          "type": "uint256"
        },
        {
          "name": "start",
          "type": "uint256"
        },
        {
          "name": "yes",
          "type": "uint256"
        },
        {
          "name": "no",
          "type": "uint256"
        },
        {
          "name": "active",
          "type": "bool"
        },
        {
          "name": "accepted",
          "type": "bool"
        },
        {
          "name": "rewarded",
          "type": "bool"
        }
      ],
      "payable": false,
      "stateMutability": "view",
      "type": "function"
    },
    {
      "constant": false,
      "inputs": [
        {
          "name": "_ID",
          "type": "uint256"
        },
        {
          "name": "_vote",
          "type": "bool"
        }
      ],
      "name": "vote",
      "outputs": [],
      "payable": false,
      "stateMutability": "nonpayable",
      "type": "function"
    },
    {
      "constant": true,
      "inputs": [
        {
          "name": "_ID",
          "type": "uint256"
        }
      ],
      "name": "getProposalNo",
      "outputs": [
        {
          "name": "no",
          "type": "uint256"
        }
      ],
      "payable": false,
      "stateMutability": "view",
      "type": "function"
    },
    {
      "constant": true,
      "inputs": [],
      "name": "maxSupply",
      "outputs": [
        {
          "name": "",
          "type": "uint256"
        }
      ],
      "payable": false,
      "stateMutability": "view",
      "type": "function"
    },
    {
      "constant": true,
      "inputs": [],
      "name": "allowanceValue",
      "outputs": [
        {
          "name": "",
          "type": "uint256"
        }
      ],
      "payable": false,
      "stateMutability": "view",
      "type": "function"
    },
    {
      "constant": true,
      "inputs": [],
      "name": "maxStake",
      "outputs": [
        {
          "name": "",
          "type": "uint256"
        }
      ],
      "payable": false,
      "stateMutability": "view",
      "type": "function"
    },
    {
      "constant": true,
      "inputs": [],
      "name": "tokensPerEther",
      "outputs": [
        {
          "name": "",
          "type": "uint256"
        }
      ],
      "payable": false,
      "stateMutability": "view",
      "type": "function"
    },
    {
      "inputs": [
        {
          "name": "_name",
          "type": "string"
        },
        {
          "name": "_symbol",
          "type": "string"
        },
        {
          "name": "_maxSupply",
          "type": "uint256"
        },
        {
          "name": "_maxStake",
          "type": "uint256"
        },
        {
          "name": "_tokensPerEther",
          "type": "uint256"
        },
        {
          "name": "_owners",
          "type": "address[]"
        },
        {
          "name": "_balances",
          "type": "uint256[]"
        },
        {
          "name": "_proposalDuration_Task",
          "type": "uint256"
        },
        {
          "name": "_minVotes_Task",
          "type": "uint256"
        }
      ],
      "payable": false,
      "stateMutability": "nonpayable",
      "type": "constructor"
    },
    {
      "payable": true,
      "stateMutability": "payable",
      "type": "fallback"
    },
    {
      "anonymous": false,
      "inputs": [
        {
          "indexed": true,
          "name": "ID",
          "type": "uint256"
        },
        {
          "indexed": true,
          "name": "description",
          "type": "string"
        }
      ],
      "name": "ProposalCreation_Task",
      "type": "event"
    },
    {
      "anonymous": false,
      "inputs": [
        {
          "indexed": true,
          "name": "ID",
          "type": "uint256"
        },
        {
          "indexed": true,
          "name": "user",
          "type": "address"
        },
        {
          "indexed": true,
          "name": "value",
          "type": "bool"
        }
      ],
      "name": "UserVote_Task",
      "type": "event"
    },
    {
      "anonymous": false,
      "inputs": [
        {
          "indexed": true,
          "name": "ID",
          "type": "uint256"
        },
        {
          "indexed": true,
          "name": "description",
          "type": "string"
        },
        {
          "indexed": true,
          "name": "value",
          "type": "uint256"
        }
      ],
      "name": "SuccessfulProposal_Task",
      "type": "event"
    },
    {
      "anonymous": false,
      "inputs": [
        {
          "indexed": true,
          "name": "ID",
          "type": "uint256"
        },
        {
          "indexed": true,
          "name": "description",
          "type": "string"
        },
        {
          "indexed": true,
          "name": "reason",
          "type": "string"
        }
      ],
      "name": "RejectedProposal_Task",
      "type": "event"
    },
    {
      "anonymous": false,
      "inputs": [
        {
          "indexed": true,
          "name": "from",
          "type": "address"
        },
        {
          "indexed": true,
          "name": "to",
          "type": "address"
        },
        {
          "indexed": false,
          "name": "value",
          "type": "uint256"
        }
      ],
      "name": "Transfer",
      "type": "event"
    }
  ],
  "bytecode": "0x60606040526000601060006101000a81548160ff02191690831515021790555034156200002b57600080fd5b60405162002917380380620029178339810160405280805182019190602001805182019190602001805190602001909190805190602001909190805190602001909190805182019190602001805182019190602001805190602001909190805190602001909190505060008960029080519060200190620000ae929190620002fc565b508860039080519060200190620000c7929190620002fc565b506012600460006101000a81548160ff021916908360ff16021790555033600460016101000a81548173ffffffffffffffffffffffffffffffffffffffff021916908373ffffffffffffffffffffffffffffffffffffffff160217905550426008819055508760058190555085600781905550835185511415156200014b57600080fd5b600090505b84518110156200029657620001eb84828151811015156200016d57fe5b9060200190602002015160008088858151811015156200018957fe5b9060200190602002015173ffffffffffffffffffffffffffffffffffffffff1673ffffffffffffffffffffffffffffffffffffffff16815260200190815260200160002054620002cd6401000000000262000cc3179091906401000000009004565b6000808784815181101515620001fd57fe5b9060200190602002015173ffffffffffffffffffffffffffffffffffffffff1673ffffffffffffffffffffffffffffffffffffffff168152602001908152602001600020819055506200028284828151811015156200025857fe5b90602001906020020151600154620002cd6401000000000262000cc3179091906401000000009004565b600181905550808060010191505062000150565b6001548810151515620002a857600080fd5b8660068190555082600d8190555081600e8190555050505050505050505050620003ab565b6000808284019050838110158015620002e65750828110155b1515620002f257600080fd5b8091505092915050565b828054600181600116156101000203166002900490600052602060002090601f016020900481019282601f106200033f57805160ff191683800117855562000370565b8280016001018555821562000370579182015b828111156200036f57825182559160200191906001019062000352565b5b5090506200037f919062000383565b5090565b620003a891905b80821115620003a45760008160009055506001016200038a565b5090565b90565b61255c80620003bb6000396000f300606060405260043610610195576000357c0100000000000000000000000000000000000000000000000000000000900463ffffffff1680622e13161461032757806306aebc421461035057806306fdde03146103875780630ad245281461041557806318160ddd14610438578063229acb1714610461578063313ce567146104fd578063429b92bf1461052c57806343ea17be146105c857806348489ed01461061d57806363a116e31461064657806370a082311461067f5780637a6c5544146106cc5780638263a938146107035780638da5cb5b1461072c5780638f776ff114610781578063921f9f27146107aa57806394b918de146107e557806395d89b41146108085780639a892b4514610896578063ab43015a146108bf578063aeccd00314610968578063b8e4783d146109a3578063ba63453f146109de578063c2c9813114610a15578063c6f17bc114610a38578063c9d27afe14610b84578063cc1f3e5514610bb2578063d5abeb0114610be9578063deb80fe814610c12578063ea1b28e014610c3b578063f856d60514610c64575b6101fa6101ad60075434610c8d90919063ffffffff16565b6000803373ffffffffffffffffffffffffffffffffffffffff1673ffffffffffffffffffffffffffffffffffffffff16815260200190815260200160002054610cc390919063ffffffff16565b5061022461021360075434610c8d90919063ffffffff16565b600154610cc390919063ffffffff16565b6001819055506005546001541115151561023d57600080fd5b6064610256600654600554610c8d90919063ffffffff16565b81151561025f57fe5b046000803373ffffffffffffffffffffffffffffffffffffffff1673ffffffffffffffffffffffffffffffffffffffff16815260200190815260200160002054111515156102ac57600080fd5b3373ffffffffffffffffffffffffffffffffffffffff163073ffffffffffffffffffffffffffffffffffffffff167fddf252ad1be2c89b69c2b068fc378daa952ba7f163c4a11628f55a4df523b3ef61031060075434610c8d90919063ffffffff16565b6040518082815260200191505060405180910390a3005b341561033257600080fd5b61033a610cf0565b6040518082815260200191505060405180910390f35b341561035b57600080fd5b6103716004808035906020019091905050610d1a565b6040518082815260200191505060405180910390f35b341561039257600080fd5b61039a610d44565b6040518080602001828103825283818151815260200191508051906020019080838360005b838110156103da5780820151818401526020810190506103bf565b50505050905090810190601f1680156104075780820380516001836020036101000a031916815260200191505b509250505060405180910390f35b341561042057600080fd5b6104366004808035906020019091905050610de2565b005b341561044357600080fd5b61044b61129c565b6040518082815260200191505060405180910390f35b341561046c57600080fd5b61048260048080359060200190919050506112a2565b6040518080602001828103825283818151815260200191508051906020019080838360005b838110156104c25780820151818401526020810190506104a7565b50505050905090810190601f1680156104ef5780820380516001836020036101000a031916815260200191505b509250505060405180910390f35b341561050857600080fd5b61051061136a565b604051808260ff1660ff16815260200191505060405180910390f35b341561053757600080fd5b61054d600480803590602001909190505061137d565b6040518080602001828103825283818151815260200191508051906020019080838360005b8381101561058d578082015181840152602081019050610572565b50505050905090810190601f1680156105ba5780820380516001836020036101000a031916815260200191505b509250505060405180910390f35b34156105d357600080fd5b6105db611445565b604051808273ffffffffffffffffffffffffffffffffffffffff1673ffffffffffffffffffffffffffffffffffffffff16815260200191505060405180910390f35b341561062857600080fd5b61063061146b565b6040518082815260200191505060405180910390f35b341561065157600080fd5b61067d600480803573ffffffffffffffffffffffffffffffffffffffff16906020019091905050611471565b005b341561068a57600080fd5b6106b6600480803573ffffffffffffffffffffffffffffffffffffffff1690602001909190505061156b565b6040518082815260200191505060405180910390f35b34156106d757600080fd5b6106ed6004808035906020019091905050611583565b6040518082815260200191505060405180910390f35b341561070e57600080fd5b6107166115ad565b6040518082815260200191505060405180910390f35b341561073757600080fd5b61073f6115ba565b604051808273ffffffffffffffffffffffffffffffffffffffff1673ffffffffffffffffffffffffffffffffffffffff16815260200191505060405180910390f35b341561078c57600080fd5b6107946115e0565b6040518082815260200191505060405180910390f35b34156107b557600080fd5b6107cb60048080359060200190919050506115e6565b604051808215151515815260200191505060405180910390f35b34156107f057600080fd5b610806600480803590602001909190505061161d565b005b341561081357600080fd5b61081b6118be565b6040518080602001828103825283818151815260200191508051906020019080838360005b8381101561085b578082015181840152602081019050610840565b50505050905090810190601f1680156108885780820380516001836020036101000a031916815260200191505b509250505060405180910390f35b34156108a157600080fd5b6108a961195c565b6040518082815260200191505060405180910390f35b34156108ca57600080fd5b610966600480803590602001908201803590602001908080601f0160208091040260200160405190810160405280939291908181526020018383808284378201915050505050509190803590602001908201803590602001908080601f01602080910402602001604051908101604052809392919081815260200183838082843782019150505050505091908035906020019091905050611962565b005b341561097357600080fd5b6109896004808035906020019091905050611c64565b604051808215151515815260200191505060405180910390f35b34156109ae57600080fd5b6109c46004808035906020019091905050611c9b565b604051808215151515815260200191505060405180910390f35b34156109e957600080fd5b6109ff6004808035906020019091905050611cd2565b6040518082815260200191505060405180910390f35b3415610a2057600080fd5b610a366004808035906020019091905050611cfc565b005b3415610a4357600080fd5b610a596004808035906020019091905050611e07565b604051808b815260200180602001806020018a815260200189815260200188815260200187815260200186151515158152602001851515151581526020018415151515815260200183810383528c818151815260200191508051906020019080838360005b83811015610ad9578082015181840152602081019050610abe565b50505050905090810190601f168015610b065780820380516001836020036101000a031916815260200191505b5083810382528b818151815260200191508051906020019080838360005b83811015610b3f578082015181840152602081019050610b24565b50505050905090810190601f168015610b6c5780820380516001836020036101000a031916815260200191505b509c5050505050505050505050505060405180910390f35b3415610b8f57600080fd5b610bb060048080359060200190919080351515906020019091905050611fc1565b005b3415610bbd57600080fd5b610bd360048080359060200190919050506122fc565b6040518082815260200191505060405180910390f35b3415610bf457600080fd5b610bfc612326565b6040518082815260200191505060405180910390f35b3415610c1d57600080fd5b610c2561232c565b6040518082815260200191505060405180910390f35b3415610c4657600080fd5b610c4e612332565b6040518082815260200191505060405180910390f35b3415610c6f57600080fd5b610c77612338565b6040518082815260200191505060405180910390f35b60008082840290506000841480610cae5750828482811515610cab57fe5b04145b1515610cb957600080fd5b8091505092915050565b6000808284019050838110158015610cdb5750828110155b1515610ce657600080fd5b8091505092915050565b60006064610d0b600654600154610c8d90919063ffffffff16565b811515610d1457fe5b04905090565b6000600f82815481101515610d2b57fe5b9060005260206000209060090201600401549050919050565b60028054600181600116156101000203166002900480601f016020809104026020016040519081016040528092919081815260200182805460018160011615610100020316600290048015610dda5780601f10610daf57610100808354040283529160200191610dda565b820191906000526020600020905b815481529060010190602001808311610dbd57829003601f168201915b505050505081565b60008060003373ffffffffffffffffffffffffffffffffffffffff1673ffffffffffffffffffffffffffffffffffffffff16815260200190815260200160002054111515610e2f57600080fd5b600d54610e65600f83815481101515610e4457fe5b9060005260206000209060090201600401544261233e90919063ffffffff16565b10151515610e7257600080fd5b600f81815481101515610e8157fe5b906000526020600020906009020160080160009054906101000a900460ff161515610eab57600080fd5b6000600f82815481101515610ebc57fe5b906000526020600020906009020160080160006101000a81548160ff0219169083151502179055506064610efd600154600e54610c8d90919063ffffffff16565b811515610f0657fe5b04610f5a600f83815481101515610f1957fe5b906000526020600020906009020160050154600f84815481101515610f3a57fe5b906000526020600020906009020160060154610cc390919063ffffffff16565b10156110505760405180807f50617274696369706174696f6e20746f6f206c6f77000000000000000000000081525060150190506040518091039020600f82815481101515610fa557fe5b906000526020600020906009020160020160405180828054600181600116156101000203166002900480156110115780601f10610fef576101008083540402835291820191611011565b820191906000526020600020905b815481529060010190602001808311610ffd575b50509150506040518091039020827f876c20b08550f4ae22fba74da817782aae5c3948223df4d406846d04aae91bf560405160405180910390a4611299565b600f8181548110151561105f57fe5b906000526020600020906009020160060154600f8281548110151561108057fe5b90600052602060002090600902016005015411156111ac576001600f828154811015156110a957fe5b906000526020600020906009020160080160016101000a81548160ff021916908315150217905550600f818154811015156110e057fe5b906000526020600020906009020160030154600f8281548110151561110157fe5b9060005260206000209060090201600201604051808280546001816001161561010002031660029004801561116d5780601f1061114b57610100808354040283529182019161116d565b820191906000526020600020905b815481529060010190602001808311611159575b50509150506040518091039020827fa9acdc5e61d2a6ae00c0c76f856a20d9c9c247c3731151c32d842f0117d8b53c60405160405180910390a4611298565b60405180807f50726f706f73616c2072656a656374656420627920766f74650000000000000081525060190190506040518091039020600f828154811015156111f157fe5b9060005260206000209060090201600201604051808280546001816001161561010002031660029004801561125d5780601f1061123b57610100808354040283529182019161125d565b820191906000526020600020905b815481529060010190602001808311611249575b50509150506040518091039020827f876c20b08550f4ae22fba74da817782aae5c3948223df4d406846d04aae91bf560405160405180910390a45b5b50565b60015481565b6112aa61235a565b600f828154811015156112b957fe5b90600052602060002090600902016002018054600181600116156101000203166002900480601f01602080910402602001604051908101604052809291908181526020018280546001816001161561010002031660029004801561135e5780601f106113335761010080835404028352916020019161135e565b820191906000526020600020905b81548152906001019060200180831161134157829003601f168201915b50505050509050919050565b600460009054906101000a900460ff1681565b61138561235a565b600f8281548110151561139457fe5b90600052602060002090600902016001018054600181600116156101000203166002900480601f0160208091040260200160405190810160405280929190818152602001828054600181600116156101000203166002900480156114395780601f1061140e57610100808354040283529160200191611439565b820191906000526020600020905b81548152906001019060200180831161141c57829003601f168201915b50505050509050919050565b601060019054906101000a900473ffffffffffffffffffffffffffffffffffffffff1681565b60085481565b600460019054906101000a900473ffffffffffffffffffffffffffffffffffffffff1673ffffffffffffffffffffffffffffffffffffffff163373ffffffffffffffffffffffffffffffffffffffff161415156114cd57600080fd5b601060009054906101000a900460ff16158015611501575060008173ffffffffffffffffffffffffffffffffffffffff1614155b151561150c57600080fd5b6001601060006101000a81548160ff02191690831515021790555080601060016101000a81548173ffffffffffffffffffffffffffffffffffffffff021916908373ffffffffffffffffffffffffffffffffffffffff16021790555050565b60006020528060005260406000206000915090505481565b6000600f8281548110151561159457fe5b9060005260206000209060090201600501549050919050565b6000600f80549050905090565b600460019054906101000a900473ffffffffffffffffffffffffffffffffffffffff1681565b600b5481565b6000600f828154811015156115f757fe5b906000526020600020906009020160080160029054906101000a900460ff169050919050565b60008060003373ffffffffffffffffffffffffffffffffffffffff1673ffffffffffffffffffffffffffffffffffffffff1681526020019081526020016000205411151561166a57600080fd5b601060009054906101000a900460ff16151561168557600080fd5b6116d6816000803373ffffffffffffffffffffffffffffffffffffffff1673ffffffffffffffffffffffffffffffffffffffff1681526020019081526020016000205461233e90919063ffffffff16565b6000803373ffffffffffffffffffffffffffffffffffffffff1673ffffffffffffffffffffffffffffffffffffffff1681526020019081526020016000208190555061172d8160015461233e90919063ffffffff16565b6001819055506117488160055461233e90919063ffffffff16565b600581905550601060019054906101000a900473ffffffffffffffffffffffffffffffffffffffff1673ffffffffffffffffffffffffffffffffffffffff1663d3986f0882336040518363ffffffff167c0100000000000000000000000000000000000000000000000000000000028152600401808381526020018273ffffffffffffffffffffffffffffffffffffffff1673ffffffffffffffffffffffffffffffffffffffff16815260200192505050602060405180830381600087803b151561181257600080fd5b5af1151561181f57600080fd5b50505060405180519050151561183457600080fd5b601060019054906101000a900473ffffffffffffffffffffffffffffffffffffffff1673ffffffffffffffffffffffffffffffffffffffff163373ffffffffffffffffffffffffffffffffffffffff167fddf252ad1be2c89b69c2b068fc378daa952ba7f163c4a11628f55a4df523b3ef836040518082815260200191505060405180910390a350565b60038054600181600116156101000203166002900480601f0160208091040260200160405190810160405280929190818152602001828054600181600116156101000203166002900480156119545780601f1061192957610100808354040283529160200191611954565b820191906000526020600020905b81548152906001019060200180831161193757829003601f168201915b505050505081565b60095481565b6000806000803373ffffffffffffffffffffffffffffffffffffffff1673ffffffffffffffffffffffffffffffffffffffff168152602001908152602001600020541115156119b057600080fd5b3073ffffffffffffffffffffffffffffffffffffffff1631821115156119d557600080fd5b600d54611a2a600c60003373ffffffffffffffffffffffffffffffffffffffff1673ffffffffffffffffffffffffffffffffffffffff168152602001908152602001600020544261233e90919063ffffffff16565b111515611a3657600080fd5b42600c60003373ffffffffffffffffffffffffffffffffffffffff1673ffffffffffffffffffffffffffffffffffffffff16815260200190815260200160002081905550600f805490509050600f8054806001018281611a96919061236e565b91600052602060002090600902016000610140604051908101604052808581526020018881526020018781526020018681526020014281526020016000815260200160008152602001600115158152602001600015158152602001600015158152509091909150600082015181600001556020820151816001019080519060200190611b239291906123a0565b506040820151816002019080519060200190611b409291906123a0565b50606082015181600301556080820151816004015560a0820151816005015560c0820151816006015560e08201518160080160006101000a81548160ff0219169083151502179055506101008201518160080160016101000a81548160ff0219169083151502179055506101208201518160080160026101000a81548160ff021916908315150217905550505050826040518082805190602001908083835b602083101515611c045780518252602082019150602081019050602083039250611bdf565b6001836020036101000a0380198251168184511680821785525050505050509050019150506040518091039020817f99302e2af76c2b15baadb0a49b1bd6eb054e52aca45affa743c730af4492643960405160405180910390a350505050565b6000600f82815481101515611c7557fe5b906000526020600020906009020160080160009054906101000a900460ff169050919050565b6000600f82815481101515611cac57fe5b906000526020600020906009020160080160019054906101000a900460ff169050919050565b6000600f82815481101515611ce357fe5b9060005260206000209060090201600301549050919050565b600460019054906101000a900473ffffffffffffffffffffffffffffffffffffffff1673ffffffffffffffffffffffffffffffffffffffff163373ffffffffffffffffffffffffffffffffffffffff16141515611d5857600080fd5b600954611d706008544261233e90919063ffffffff16565b1115611d8757600a54600b81905550426008819055505b611d9c81600b5461233e90919063ffffffff16565b600b81905550600460019054906101000a900473ffffffffffffffffffffffffffffffffffffffff1673ffffffffffffffffffffffffffffffffffffffff166108fc829081150290604051600060405180830381858888f193505050501515611e0457600080fd5b50565b600f81815481101515611e1657fe5b9060005260206000209060090201600091509050806000015490806001018054600181600116156101000203166002900480601f016020809104026020016040519081016040528092919081815260200182805460018160011615610100020316600290048015611ec85780601f10611e9d57610100808354040283529160200191611ec8565b820191906000526020600020905b815481529060010190602001808311611eab57829003601f168201915b505050505090806002018054600181600116156101000203166002900480601f016020809104026020016040519081016040528092919081815260200182805460018160011615610100020316600290048015611f665780601f10611f3b57610100808354040283529160200191611f66565b820191906000526020600020905b815481529060010190602001808311611f4957829003601f168201915b5050505050908060030154908060040154908060050154908060060154908060080160009054906101000a900460ff16908060080160019054906101000a900460ff16908060080160029054906101000a900460ff1690508a565b60008060003373ffffffffffffffffffffffffffffffffffffffff1673ffffffffffffffffffffffffffffffffffffffff1681526020019081526020016000205411151561200e57600080fd5b600f8281548110151561201d57fe5b906000526020600020906009020160080160009054906101000a900460ff16151561204757600080fd5b600d5461207d600f8481548110151561205c57fe5b9060005260206000209060090201600401544261233e90919063ffffffff16565b10151561208e5761208d82610de2565b5b600f8281548110151561209d57fe5b906000526020600020906009020160070160003373ffffffffffffffffffffffffffffffffffffffff1673ffffffffffffffffffffffffffffffffffffffff16815260200190815260200160002060009054906101000a900460ff1615151561210557600080fd5b6001600f8381548110151561211657fe5b906000526020600020906009020160070160003373ffffffffffffffffffffffffffffffffffffffff1673ffffffffffffffffffffffffffffffffffffffff16815260200190815260200160002060006101000a81548160ff021916908315150217905550801561221b576121f26000803373ffffffffffffffffffffffffffffffffffffffff1673ffffffffffffffffffffffffffffffffffffffff16815260200190815260200160002054600f848154811015156121d257fe5b906000526020600020906009020160050154610cc390919063ffffffff16565b600f8381548110151561220157fe5b9060005260206000209060090201600501819055506122b1565b61228c6000803373ffffffffffffffffffffffffffffffffffffffff1673ffffffffffffffffffffffffffffffffffffffff16815260200190815260200160002054600f8481548110151561226c57fe5b906000526020600020906009020160060154610cc390919063ffffffff16565b600f8381548110151561229b57fe5b9060005260206000209060090201600601819055505b8015153373ffffffffffffffffffffffffffffffffffffffff16837f1d595aa6b214c8b2455e6ce08896d7de7750ad057c9370772d798e85b664790e60405160405180910390a45050565b6000600f8281548110151561230d57fe5b9060005260206000209060090201600601549050919050565b60055481565b600a5481565b60065481565b60075481565b600082821115151561234f57600080fd5b818303905092915050565b602060405190810160405280600081525090565b81548183558181151161239b5760090281600902836000526020600020918201910161239a9190612420565b5b505050565b828054600181600116156101000203166002900490600052602060002090601f016020900481019282601f106123e157805160ff191683800117855561240f565b8280016001018555821561240f579182015b8281111561240e5782518255916020019190600101906123f3565b5b50905061241c91906124c3565b5090565b6124c091905b808211156124bc5760008082016000905560018201600061244791906124e8565b60028201600061245791906124e8565b60038201600090556004820160009055600582016000905560068201600090556008820160006101000a81549060ff02191690556008820160016101000a81549060ff02191690556008820160026101000a81549060ff021916905550600901612426565b5090565b90565b6124e591905b808211156124e15760008160009055506001016124c9565b5090565b90565b50805460018160011615610100020316600290046000825580601f1061250e575061252d565b601f01602090049060005260206000209081019061252c91906124c3565b5b505600a165627a7a723058205d7545935143f91fed3204e67a5f83adb96a6d47c78af881e3498a66c83fee540029",
  "source": "pragma solidity 0.4.21;\n\ninterface RevToken {\n    function swap(uint256 _tokenAmount, address _tokenHolder) external returns(bool success);\n}\n\n// Safe Math library that automatically checks for overflows and underflows\nlibrary SafeMath {\n    // Safe multiplication\n    function mul(uint256 a, uint256 b) internal pure returns (uint256) {\n        uint256 c = a * b;\n        require(a == 0 || c / a == b);\n        return c;\n    }\n    // Safe subtraction\n    function sub(uint256 a, uint256 b) internal pure returns (uint256) {\n        require(b <= a);\n        return a - b;\n    }\n    // Safe addition\n    function add(uint256 a, uint256 b) internal pure returns (uint256) {\n        uint256 c = a + b;\n        require(c>=a && c>=b);\n        return c;\n    }\n}\n\n// Basic ERC20 functions\ncontract Token {\n\n    using SafeMath for uint256;\n\n    event Transfer(address indexed from, address indexed to, uint256 value);\n\n    // mapping of all balances\n    mapping (address => uint256) public balanceOf;\n    // The total supply of the token\n    uint256 public totalSupply;\n\n    // Some variables for nice wallet integration\n    string public name;          // name of token\n    string public symbol;        // symbol of token\n    uint8 public decimals;       // decimals of token\n}\n\ncontract Owned is Token {\n    // address of the developers\n    address public owner;\n    // modifiers: only allows Owner/Pool/Contract to call certain functions\n    modifier onlyOwner {\n        require(msg.sender == owner);\n        _;\n    }\n    modifier onlyTokenHolder {\n        require(balanceOf[msg.sender] > 0);\n        _;\n    }\n}\n\n// DevToken functions which are active during development phase\ncontract Funding is Owned {\n\n    // maximum supply of the token\n    uint256 public maxSupply;\n    // maximum stake someone can have of all tokens (in percent)\n    uint256 public maxStake;\n    // tokens that are being sold per ether\n    uint256 public tokensPerEther;\n\n    // lock ETH in contract and return DevTokens\n    function () public payable {\n        // adds the amount of ETH sent as DevToken value and increases total supply\n        balanceOf[msg.sender].add(msg.value.mul(tokensPerEther));\n        totalSupply = totalSupply.add(msg.value.mul(tokensPerEther));\n\n        // fails if total supply surpasses maximum supply\n        require(totalSupply <= maxSupply);\n        // user cannot deposit more than \"maxStake\"% of the total supply\n        require(balanceOf[msg.sender] <= maxSupply.mul(maxStake)/100);\n\n        // transfer event\n        emit Transfer(address(this), msg.sender, msg.value.mul(tokensPerEther));\n    }\n\n    // constant function: return maximum possible investment per person\n    function maxInvestment() public view returns(uint256) {\n        return totalSupply.mul(maxStake)/100;\n    }\n}\n\ncontract OwnerAllowance is Funding {\n    // time since last use of allowance\n    uint256 public allowanceTimeCounter;\n    // interval how often allowance is reset\n    uint256 public allowanceInterval;\n    // allowance amount per interval\n    uint256 public allowanceValue;\n    // current allowance balance\n    uint256 public allowanceBalance;\n\n    // allows owner to withdraw ether in an interval\n    function allowanceWithdrawal(uint256 _value) public onlyOwner {\n        if (now.sub(allowanceTimeCounter) > allowanceInterval) {\n            allowanceBalance = allowanceValue;\n            allowanceTimeCounter = now;\n        }\n        allowanceBalance = allowanceBalance.sub(_value);\n        owner.transfer(_value);\n    }\n}\n\n// task voting implementation\ncontract Voting_Task is OwnerAllowance {\n\n    mapping(address => uint256) lastProposal_Task;\n    uint256 proposalDuration_Task;\n    uint256 minVotes_Task;\n\n    event ProposalCreation_Task(uint256 indexed ID, string indexed description);\n    event UserVote_Task(uint256 indexed ID, address indexed user, bool indexed value);\n    event SuccessfulProposal_Task(uint256 indexed ID, string indexed description, uint256 indexed value);\n    event RejectedProposal_Task(uint256 indexed ID, string indexed description, string indexed reason);\n\n    struct Proposal_Task {\n        uint256 ID;\n        string name;\n        string description;\n        // (optional) amount of ETH-reward for development tasks\n        uint256 value;\n        uint256 start;\n        uint256 yes;\n        uint256 no;\n        mapping(address => bool) voted;\n        bool active;\n        bool accepted;\n        // (optional) bool if proposal was rewarded\n        bool rewarded;\n    }\n\n    // array of polls\n    Proposal_Task[] public proposals_Task;\n\n    function propose(string _name, string _description, uint256 _value) public onlyTokenHolder {\n\n        require(_value > address(this).balance);\n        // allows one proposal per week and resets value after successful proposal\n        require(now.sub(lastProposal_Task[msg.sender]) > proposalDuration_Task);\n        lastProposal_Task[msg.sender] = now;\n\n        // saves ID of proposal which is equal to the array index\n        uint256 ID = proposals_Task.length;\n\n        // initializes new proposal as a struct and pushes it into the proposal array\n        proposals_Task.push(Proposal_Task({ID: ID, name: _name, description: _description, value: _value, start: now, yes: 0, no: 0, active: true, accepted: false, rewarded: false}));\n\n        // event generated for proposal creation\n        emit ProposalCreation_Task(ID, _description);\n\n    }\n\n    // vote on a development task\n    function vote(uint256 _ID, bool _vote) public onlyTokenHolder {\n\n        // proposal has to be active\n        require(proposals_Task[_ID].active);\n\n        // proposal has to be active less than one week\n        if (now.sub(proposals_Task[_ID].start) >= proposalDuration_Task) {\n            end(_ID);\n        }\n\n        // checks if tokenholder has already voted\n        require(!proposals_Task[_ID].voted[msg.sender]);\n        // registers vote\n        proposals_Task[_ID].voted[msg.sender] = true;\n\n        // if the value is 0 it's considered no\n        if (_vote) {\n            // registers the balance of msg.sender as a yes vote\n            proposals_Task[_ID].yes = proposals_Task[_ID].yes.add(balanceOf[msg.sender]);\n        } else {\n            // registers the balance of msg.sender as a no vote\n            proposals_Task[_ID].no = proposals_Task[_ID].no.add(balanceOf[msg.sender]);\n        }\n        // event generated for tokenholder vote\n        emit UserVote_Task(_ID, msg.sender, _vote);\n\n    }\n\n\n    // end voting for a development task\n    function end(uint256 _ID) public onlyTokenHolder {\n\n        // requires proposal to be running for a week\n        require(now.sub(proposals_Task[_ID].start) >= proposalDuration_Task);\n\n        // requires proposal to be active\n        require(proposals_Task[_ID].active);\n        proposals_Task[_ID].active = false;\n\n        // rejects proposal if not enough people voted on it\n        if (proposals_Task[_ID].no.add(proposals_Task[_ID].yes) < (minVotes_Task.mul(totalSupply))/100) {\n            // event generation\n            emit RejectedProposal_Task(_ID, proposals_Task[_ID].description, \"Participation too low\");\n\n        // compares yes and no votes\n        } else if (proposals_Task[_ID].yes > proposals_Task[_ID].no) {\n            proposals_Task[_ID].accepted = true;\n            // event generation\n            emit SuccessfulProposal_Task(_ID, proposals_Task[_ID].description, proposals_Task[_ID].value);\n\n        } else {\n            // event generation\n            emit RejectedProposal_Task(_ID, proposals_Task[_ID].description, \"Proposal rejected by vote\");\n        }\n\n    }\n\n    function getProposalLength() public view returns(uint256 length) {\n        return proposals_Task.length;\n    }\n\n    function getProposalName(uint256 _ID) public view returns(string name) {\n        return proposals_Task[_ID].name;\n    }\n\n    function getProposalDescription(uint256 _ID) public view returns(string description) {\n        return proposals_Task[_ID].description;\n    }\n\n    function getProposalValue(uint256 _ID) public view returns(uint256 value) {\n        return proposals_Task[_ID].value;\n    }\n\n    function getProposalStart(uint256 _ID) public view returns(uint256 start) {\n        return proposals_Task[_ID].start;\n    }\n\n    function getProposalYes(uint256 _ID) public view returns(uint256 yes) {\n        return proposals_Task[_ID].yes;\n    }\n\n    function getProposalNo(uint256 _ID) public view returns(uint256 no) {\n        return proposals_Task[_ID].no;\n    }\n\n    function getProposalActive(uint256 _ID) public view returns(bool active) {\n        return proposals_Task[_ID].active;\n    }\n\n    function getProposalAccepted(uint256 _ID) public view returns(bool accepted) {\n        return proposals_Task[_ID].accepted;\n    }\n\n    function getProposalRewarded(uint256 _ID) public view returns(bool rewarded) {\n        return proposals_Task[_ID].rewarded;\n    }\n}\n\ncontract DevRev is Voting_Task {\n    // bool to see if RevToken was set\n    bool private set = false;\n    address public RevTokenAddress;\n\n    function setRevContract(address _contractAddress) public onlyOwner {\n        require(!set && _contractAddress != 0x0);\n        set = true;\n        RevTokenAddress = _contractAddress;\n    }\n\n    function swap(uint256 _tokenAmount) public onlyTokenHolder {\n        require(set);\n        balanceOf[msg.sender] = balanceOf[msg.sender].sub(_tokenAmount);\n        totalSupply = totalSupply.sub(_tokenAmount);\n        maxSupply = maxSupply.sub(_tokenAmount);\n        require(RevToken(RevTokenAddress).swap(_tokenAmount, msg.sender));\n        emit Transfer(msg.sender, RevTokenAddress, _tokenAmount);\n    }\n\n}\n\n// DevRevToken combines DevToken and RevToken into one token\ncontract DevToken is DevRev {\n    function DevToken(\n        // arguments Token\n        string _name, string _symbol,\n        // arguments Funding\n        uint256 _maxSupply, uint256 _maxStake, uint256 _tokensPerEther, address[] _owners, uint256[] _balances,\n        // arguments TaskVoting\n        uint256 _proposalDuration_Task, uint256 _minVotes_Task\n        ) public {\n\n        // constructor Token\n        name = _name;\n        symbol = _symbol;\n        decimals = 18;\n        // constructor Funding\n        owner = msg.sender;\n        allowanceTimeCounter = now;\n        maxSupply = _maxSupply;\n        // Adjust the token value to variable decimal-counts\n        tokensPerEther = _tokensPerEther;\n        require(_owners.length == _balances.length);\n        for (uint256 i = 0; i < _owners.length; i++) {\n            balanceOf[_owners[i]] = balanceOf[_owners[i]].add(_balances[i]);\n            totalSupply = totalSupply.add(_balances[i]);\n        }\n        require(_maxSupply >= totalSupply);\n        maxStake = _maxStake;\n        // constructor TaskVoting\n        proposalDuration_Task = _proposalDuration_Task;\n        minVotes_Task = _minVotes_Task;\n    }\n}\n",
  "sourcePath": "/Users/gretzke/Documents/Projekte/InnoChain/Chainge/git/tApp/contracts/DevToken.sol",
  "compiler": {
    "name": "solc",
    "version": "0.4.21+commit.dfe3193c.Emscripten.clang"
  },
  "schemaVersion": "2.0.0",
  "updatedAt": "2018-04-08T14:11:26.312Z"
}