{
  "contractName": "Funding",
  "abi": [
    {
      "constant": true,
      "inputs": [],
      "name": "name",
      "outputs": [
        {
          "name": "",
          "type": "string"
        }
      ],
      "payable": false,
      "stateMutability": "view",
      "type": "function"
    },
    {
      "constant": true,
      "inputs": [],
      "name": "totalSupply",
      "outputs": [
        {
          "name": "",
          "type": "uint256"
        }
      ],
      "payable": false,
      "stateMutability": "view",
      "type": "function"
    },
    {
      "constant": true,
      "inputs": [],
      "name": "decimals",
      "outputs": [
        {
          "name": "",
          "type": "uint8"
        }
      ],
      "payable": false,
      "stateMutability": "view",
      "type": "function"
    },
    {
      "constant": true,
      "inputs": [
        {
          "name": "",
          "type": "address"
        }
      ],
      "name": "balanceOf",
      "outputs": [
        {
          "name": "",
          "type": "uint256"
        }
      ],
      "payable": false,
      "stateMutability": "view",
      "type": "function"
    },
    {
      "constant": true,
      "inputs": [],
      "name": "owner",
      "outputs": [
        {
          "name": "",
          "type": "address"
        }
      ],
      "payable": false,
      "stateMutability": "view",
      "type": "function"
    },
    {
      "constant": true,
      "inputs": [],
      "name": "symbol",
      "outputs": [
        {
          "name": "",
          "type": "string"
        }
      ],
      "payable": false,
      "stateMutability": "view",
      "type": "function"
    },
    {
      "constant": true,
      "inputs": [],
      "name": "maxSupply",
      "outputs": [
        {
          "name": "",
          "type": "uint256"
        }
      ],
      "payable": false,
      "stateMutability": "view",
      "type": "function"
    },
    {
      "constant": true,
      "inputs": [],
      "name": "maxStake",
      "outputs": [
        {
          "name": "",
          "type": "uint256"
        }
      ],
      "payable": false,
      "stateMutability": "view",
      "type": "function"
    },
    {
      "constant": true,
      "inputs": [],
      "name": "tokensPerEther",
      "outputs": [
        {
          "name": "",
          "type": "uint256"
        }
      ],
      "payable": false,
      "stateMutability": "view",
      "type": "function"
    },
    {
      "payable": true,
      "stateMutability": "payable",
      "type": "fallback"
    },
    {
      "anonymous": false,
      "inputs": [
        {
          "indexed": true,
          "name": "from",
          "type": "address"
        },
        {
          "indexed": true,
          "name": "to",
          "type": "address"
        },
        {
          "indexed": false,
          "name": "value",
          "type": "uint256"
        }
      ],
      "name": "Transfer",
      "type": "event"
    },
    {
      "constant": true,
      "inputs": [],
      "name": "maxInvestment",
      "outputs": [
        {
          "name": "",
          "type": "uint256"
        }
      ],
      "payable": false,
      "stateMutability": "view",
      "type": "function"
    }
  ],
  "bytecode": "0x6060604052341561000f57600080fd5b61074d8061001e6000396000f3006060604052600436106100a3576000357c0100000000000000000000000000000000000000000000000000000000900463ffffffff1680622e13161461023557806306fdde031461025e57806318160ddd146102ec578063313ce5671461031557806370a08231146103445780638da5cb5b1461039157806395d89b41146103e6578063d5abeb0114610474578063ea1b28e01461049d578063f856d605146104c6575b6101086100bb600754346104ef90919063ffffffff16565b6000803373ffffffffffffffffffffffffffffffffffffffff1673ffffffffffffffffffffffffffffffffffffffff1681526020019081526020016000205461052590919063ffffffff16565b50610132610121600754346104ef90919063ffffffff16565b60015461052590919063ffffffff16565b6001819055506005546001541115151561014b57600080fd5b60646101646006546005546104ef90919063ffffffff16565b81151561016d57fe5b046000803373ffffffffffffffffffffffffffffffffffffffff1673ffffffffffffffffffffffffffffffffffffffff16815260200190815260200160002054111515156101ba57600080fd5b3373ffffffffffffffffffffffffffffffffffffffff163073ffffffffffffffffffffffffffffffffffffffff167fddf252ad1be2c89b69c2b068fc378daa952ba7f163c4a11628f55a4df523b3ef61021e600754346104ef90919063ffffffff16565b6040518082815260200191505060405180910390a3005b341561024057600080fd5b610248610552565b6040518082815260200191505060405180910390f35b341561026957600080fd5b61027161057c565b6040518080602001828103825283818151815260200191508051906020019080838360005b838110156102b1578082015181840152602081019050610296565b50505050905090810190601f1680156102de5780820380516001836020036101000a031916815260200191505b509250505060405180910390f35b34156102f757600080fd5b6102ff61061a565b6040518082815260200191505060405180910390f35b341561032057600080fd5b610328610620565b604051808260ff1660ff16815260200191505060405180910390f35b341561034f57600080fd5b61037b600480803573ffffffffffffffffffffffffffffffffffffffff16906020019091905050610633565b6040518082815260200191505060405180910390f35b341561039c57600080fd5b6103a461064b565b604051808273ffffffffffffffffffffffffffffffffffffffff1673ffffffffffffffffffffffffffffffffffffffff16815260200191505060405180910390f35b34156103f157600080fd5b6103f9610671565b6040518080602001828103825283818151815260200191508051906020019080838360005b8381101561043957808201518184015260208101905061041e565b50505050905090810190601f1680156104665780820380516001836020036101000a031916815260200191505b509250505060405180910390f35b341561047f57600080fd5b61048761070f565b6040518082815260200191505060405180910390f35b34156104a857600080fd5b6104b0610715565b6040518082815260200191505060405180910390f35b34156104d157600080fd5b6104d961071b565b6040518082815260200191505060405180910390f35b60008082840290506000841480610510575082848281151561050d57fe5b04145b151561051b57600080fd5b8091505092915050565b600080828401905083811015801561053d5750828110155b151561054857600080fd5b8091505092915050565b6000606461056d6006546001546104ef90919063ffffffff16565b81151561057657fe5b04905090565b60028054600181600116156101000203166002900480601f0160208091040260200160405190810160405280929190818152602001828054600181600116156101000203166002900480156106125780601f106105e757610100808354040283529160200191610612565b820191906000526020600020905b8154815290600101906020018083116105f557829003601f168201915b505050505081565b60015481565b600460009054906101000a900460ff1681565b60006020528060005260406000206000915090505481565b600460019054906101000a900473ffffffffffffffffffffffffffffffffffffffff1681565b60038054600181600116156101000203166002900480601f0160208091040260200160405190810160405280929190818152602001828054600181600116156101000203166002900480156107075780601f106106dc57610100808354040283529160200191610707565b820191906000526020600020905b8154815290600101906020018083116106ea57829003601f168201915b505050505081565b60055481565b60065481565b600754815600a165627a7a72305820c2452b121b95aa68717af3cf985a57e8cc0b4a4f7b9a21ba69ecc88acd033f3f0029",
  "source": "pragma solidity 0.4.21;\n\ninterface RevToken {\n    function swap(uint256 _tokenAmount, address _tokenHolder) external returns(bool success);\n}\n\n// Safe Math library that automatically checks for overflows and underflows\nlibrary SafeMath {\n    // Safe multiplication\n    function mul(uint256 a, uint256 b) internal pure returns (uint256) {\n        uint256 c = a * b;\n        require(a == 0 || c / a == b);\n        return c;\n    }\n    // Safe subtraction\n    function sub(uint256 a, uint256 b) internal pure returns (uint256) {\n        require(b <= a);\n        return a - b;\n    }\n    // Safe addition\n    function add(uint256 a, uint256 b) internal pure returns (uint256) {\n        uint256 c = a + b;\n        require(c>=a && c>=b);\n        return c;\n    }\n}\n\n// Basic ERC20 functions\ncontract Token {\n\n    using SafeMath for uint256;\n\n    event Transfer(address indexed from, address indexed to, uint256 value);\n\n    // mapping of all balances\n    mapping (address => uint256) public balanceOf;\n    // The total supply of the token\n    uint256 public totalSupply;\n\n    // Some variables for nice wallet integration\n    string public name;          // name of token\n    string public symbol;        // symbol of token\n    uint8 public decimals;       // decimals of token\n}\n\ncontract Owned is Token {\n    // address of the developers\n    address public owner;\n    // modifiers: only allows Owner/Pool/Contract to call certain functions\n    modifier onlyOwner {\n        require(msg.sender == owner);\n        _;\n    }\n    modifier onlyTokenHolder {\n        require(balanceOf[msg.sender] > 0);\n        _;\n    }\n}\n\n// DevToken functions which are active during development phase\ncontract Funding is Owned {\n\n    // maximum supply of the token\n    uint256 public maxSupply;\n    // maximum stake someone can have of all tokens (in percent)\n    uint256 public maxStake;\n    // tokens that are being sold per ether\n    uint256 public tokensPerEther;\n\n    // lock ETH in contract and return DevTokens\n    function () public payable {\n        // adds the amount of ETH sent as DevToken value and increases total supply\n        balanceOf[msg.sender].add(msg.value.mul(tokensPerEther));\n        totalSupply = totalSupply.add(msg.value.mul(tokensPerEther));\n\n        // fails if total supply surpasses maximum supply\n        require(totalSupply <= maxSupply);\n        // user cannot deposit more than \"maxStake\"% of the total supply\n        require(balanceOf[msg.sender] <= maxSupply.mul(maxStake)/100);\n\n        // transfer event\n        emit Transfer(address(this), msg.sender, msg.value.mul(tokensPerEther));\n    }\n\n    // constant function: return maximum possible investment per person\n    function maxInvestment() public view returns(uint256) {\n        return totalSupply.mul(maxStake)/100;\n    }\n}\n\ncontract OwnerAllowance is Funding {\n    // time since last use of allowance\n    uint256 public allowanceTimeCounter;\n    // interval how often allowance is reset\n    uint256 public allowanceInterval;\n    // allowance amount per interval\n    uint256 public allowanceValue;\n    // current allowance balance\n    uint256 public allowanceBalance;\n\n    // allows owner to withdraw ether in an interval\n    function allowanceWithdrawal(uint256 _value) public onlyOwner {\n        if (now.sub(allowanceTimeCounter) > allowanceInterval) {\n            allowanceBalance = allowanceValue;\n            allowanceTimeCounter = now;\n        }\n        allowanceBalance = allowanceBalance.sub(_value);\n        owner.transfer(_value);\n    }\n}\n\n// task voting implementation\ncontract Voting_Task is OwnerAllowance {\n\n    mapping(address => uint256) lastProposal_Task;\n    uint256 proposalDuration_Task;\n    uint256 minVotes_Task;\n\n    event ProposalCreation_Task(uint256 indexed ID, string indexed description);\n    event UserVote_Task(uint256 indexed ID, address indexed user, bool indexed value);\n    event SuccessfulProposal_Task(uint256 indexed ID, string indexed description, uint256 indexed value);\n    event RejectedProposal_Task(uint256 indexed ID, string indexed description, string indexed reason);\n\n    struct Proposal_Task {\n        uint256 ID;\n        string name;\n        string description;\n        // (optional) amount of ETH-reward for development tasks\n        uint256 value;\n        uint256 start;\n        uint256 yes;\n        uint256 no;\n        mapping(address => bool) voted;\n        bool active;\n        bool accepted;\n        // (optional) bool if proposal was rewarded\n        bool rewarded;\n    }\n\n    // array of polls\n    Proposal_Task[] public proposals_Task;\n\n    function propose(string _name, string _description, uint256 _value) public onlyTokenHolder {\n\n        require(_value > address(this).balance);\n        // allows one proposal per week and resets value after successful proposal\n        require(now.sub(lastProposal_Task[msg.sender]) > proposalDuration_Task);\n        lastProposal_Task[msg.sender] = now;\n\n        // saves ID of proposal which is equal to the array index\n        uint256 ID = proposals_Task.length;\n\n        // initializes new proposal as a struct and pushes it into the proposal array\n        proposals_Task.push(Proposal_Task({ID: ID, name: _name, description: _description, value: _value, start: now, yes: 0, no: 0, active: true, accepted: false, rewarded: false}));\n\n        // event generated for proposal creation\n        emit ProposalCreation_Task(ID, _description);\n\n    }\n\n    // vote on a development task\n    function vote(uint256 _ID, bool _vote) public onlyTokenHolder {\n\n        // proposal has to be active\n        require(proposals_Task[_ID].active);\n\n        // proposal has to be active less than one week\n        if (now.sub(proposals_Task[_ID].start) >= proposalDuration_Task) {\n            end(_ID);\n        }\n\n        // checks if tokenholder has already voted\n        require(!proposals_Task[_ID].voted[msg.sender]);\n        // registers vote\n        proposals_Task[_ID].voted[msg.sender] = true;\n\n        // if the value is 0 it's considered no\n        if (_vote) {\n            // registers the balance of msg.sender as a yes vote\n            proposals_Task[_ID].yes = proposals_Task[_ID].yes.add(balanceOf[msg.sender]);\n        } else {\n            // registers the balance of msg.sender as a no vote\n            proposals_Task[_ID].no = proposals_Task[_ID].no.add(balanceOf[msg.sender]);\n        }\n        // event generated for tokenholder vote\n        emit UserVote_Task(_ID, msg.sender, _vote);\n\n    }\n\n\n    // end voting for a development task\n    function end(uint256 _ID) public onlyTokenHolder {\n\n        // requires proposal to be running for a week\n        require(now.sub(proposals_Task[_ID].start) >= proposalDuration_Task);\n\n        // requires proposal to be active\n        require(proposals_Task[_ID].active);\n        proposals_Task[_ID].active = false;\n\n        // rejects proposal if not enough people voted on it\n        if (proposals_Task[_ID].no.add(proposals_Task[_ID].yes) < (minVotes_Task.mul(totalSupply))/100) {\n            // event generation\n            emit RejectedProposal_Task(_ID, proposals_Task[_ID].description, \"Participation too low\");\n\n        // compares yes and no votes\n        } else if (proposals_Task[_ID].yes > proposals_Task[_ID].no) {\n            proposals_Task[_ID].accepted = true;\n            // event generation\n            emit SuccessfulProposal_Task(_ID, proposals_Task[_ID].description, proposals_Task[_ID].value);\n\n        } else {\n            // event generation\n            emit RejectedProposal_Task(_ID, proposals_Task[_ID].description, \"Proposal rejected by vote\");\n        }\n\n    }\n\n    function getProposalLength() public view returns(uint256 length) {\n        return proposals_Task.length;\n    }\n\n    function getProposalName(uint256 _ID) public view returns(string name) {\n        return proposals_Task[_ID].name;\n    }\n\n    function getProposalDescription(uint256 _ID) public view returns(string description) {\n        return proposals_Task[_ID].description;\n    }\n\n    function getProposalValue(uint256 _ID) public view returns(uint256 value) {\n        return proposals_Task[_ID].value;\n    }\n\n    function getProposalStart(uint256 _ID) public view returns(uint256 start) {\n        return proposals_Task[_ID].start;\n    }\n\n    function getProposalYes(uint256 _ID) public view returns(uint256 yes) {\n        return proposals_Task[_ID].yes;\n    }\n\n    function getProposalNo(uint256 _ID) public view returns(uint256 no) {\n        return proposals_Task[_ID].no;\n    }\n\n    function getProposalActive(uint256 _ID) public view returns(bool active) {\n        return proposals_Task[_ID].active;\n    }\n\n    function getProposalAccepted(uint256 _ID) public view returns(bool accepted) {\n        return proposals_Task[_ID].accepted;\n    }\n\n    function getProposalRewarded(uint256 _ID) public view returns(bool rewarded) {\n        return proposals_Task[_ID].rewarded;\n    }\n}\n\ncontract DevRev is Voting_Task {\n    // bool to see if RevToken was set\n    bool private set = false;\n    address public RevTokenAddress;\n\n    function setRevContract(address _contractAddress) public onlyOwner {\n        require(!set && _contractAddress != 0x0);\n        set = true;\n        RevTokenAddress = _contractAddress;\n    }\n\n    function swap(uint256 _tokenAmount) public onlyTokenHolder {\n        require(set);\n        balanceOf[msg.sender] = balanceOf[msg.sender].sub(_tokenAmount);\n        totalSupply = totalSupply.sub(_tokenAmount);\n        maxSupply = maxSupply.sub(_tokenAmount);\n        require(RevToken(RevTokenAddress).swap(_tokenAmount, msg.sender));\n        emit Transfer(msg.sender, RevTokenAddress, _tokenAmount);\n    }\n\n}\n\n// DevRevToken combines DevToken and RevToken into one token\ncontract DevToken is DevRev {\n    function DevToken(\n        // arguments Token\n        string _name, string _symbol,\n        // arguments Funding\n        uint256 _maxSupply, uint256 _maxStake, uint256 _tokensPerEther, address[] _owners, uint256[] _balances,\n        // arguments TaskVoting\n        uint256 _proposalDuration_Task, uint256 _minVotes_Task\n        ) public {\n\n        // constructor Token\n        name = _name;\n        symbol = _symbol;\n        decimals = 18;\n        // constructor Funding\n        owner = msg.sender;\n        allowanceTimeCounter = now;\n        maxSupply = _maxSupply;\n        // Adjust the token value to variable decimal-counts\n        tokensPerEther = _tokensPerEther;\n        require(_owners.length == _balances.length);\n        for (uint256 i = 0; i < _owners.length; i++) {\n            balanceOf[_owners[i]] = balanceOf[_owners[i]].add(_balances[i]);\n            totalSupply = totalSupply.add(_balances[i]);\n        }\n        require(_maxSupply >= totalSupply);\n        maxStake = _maxStake;\n        // constructor TaskVoting\n        proposalDuration_Task = _proposalDuration_Task;\n        minVotes_Task = _minVotes_Task;\n    }\n}\n",
  "sourcePath": "/Users/gretzke/Documents/Projekte/InnoChain/Chainge/git/tApp/contracts/DevToken.sol",
  "compiler": {
    "name": "solc",
    "version": "0.4.21+commit.dfe3193c.Emscripten.clang"
  },
  "schemaVersion": "2.0.0",
  "updatedAt": "2018-04-08T14:06:13.346Z"
}