{
  "contractName": "KYC",
  "abi": [
    {
      "constant": true,
      "inputs": [],
      "name": "maxInvestment",
      "outputs": [
        {
          "name": "",
          "type": "uint256"
        }
      ],
      "payable": false,
      "stateMutability": "view",
      "type": "function"
    },
    {
      "constant": true,
      "inputs": [],
      "name": "name",
      "outputs": [
        {
          "name": "",
          "type": "string"
        }
      ],
      "payable": false,
      "stateMutability": "view",
      "type": "function"
    },
    {
      "constant": true,
      "inputs": [],
      "name": "totalSupply",
      "outputs": [
        {
          "name": "",
          "type": "uint256"
        }
      ],
      "payable": false,
      "stateMutability": "view",
      "type": "function"
    },
    {
      "constant": true,
      "inputs": [
        {
          "name": "_ID",
          "type": "uint256"
        }
      ],
      "name": "getProposalRewarded_Task",
      "outputs": [
        {
          "name": "rewarded",
          "type": "bool"
        }
      ],
      "payable": false,
      "stateMutability": "view",
      "type": "function"
    },
    {
      "constant": true,
      "inputs": [
        {
          "name": "_ID",
          "type": "uint256"
        }
      ],
      "name": "getProposalDescription_Task",
      "outputs": [
        {
          "name": "description",
          "type": "string"
        }
      ],
      "payable": false,
      "stateMutability": "view",
      "type": "function"
    },
    {
      "constant": true,
      "inputs": [],
      "name": "decimals",
      "outputs": [
        {
          "name": "",
          "type": "uint8"
        }
      ],
      "payable": false,
      "stateMutability": "view",
      "type": "function"
    },
    {
      "constant": false,
      "inputs": [
        {
          "name": "_name",
          "type": "string"
        },
        {
          "name": "_description",
          "type": "string"
        },
        {
          "name": "_value",
          "type": "uint256"
        }
      ],
      "name": "propose_Task",
      "outputs": [],
      "payable": false,
      "stateMutability": "nonpayable",
      "type": "function"
    },
    {
      "constant": true,
      "inputs": [],
      "name": "RevTokenAddress",
      "outputs": [
        {
          "name": "",
          "type": "address"
        }
      ],
      "payable": false,
      "stateMutability": "view",
      "type": "function"
    },
    {
      "constant": true,
      "inputs": [],
      "name": "allowanceTimeCounter",
      "outputs": [
        {
          "name": "",
          "type": "uint256"
        }
      ],
      "payable": false,
      "stateMutability": "view",
      "type": "function"
    },
    {
      "constant": true,
      "inputs": [
        {
          "name": "_ID",
          "type": "uint256"
        }
      ],
      "name": "getProposalYes_Task",
      "outputs": [
        {
          "name": "yes",
          "type": "uint256"
        }
      ],
      "payable": false,
      "stateMutability": "view",
      "type": "function"
    },
    {
      "constant": true,
      "inputs": [],
      "name": "getProposalLength_Task",
      "outputs": [
        {
          "name": "length",
          "type": "uint256"
        }
      ],
      "payable": false,
      "stateMutability": "view",
      "type": "function"
    },
    {
      "constant": false,
      "inputs": [
        {
          "name": "_contractAddress",
          "type": "address"
        }
      ],
      "name": "setRevContract",
      "outputs": [],
      "payable": false,
      "stateMutability": "nonpayable",
      "type": "function"
    },
    {
      "constant": true,
      "inputs": [
        {
          "name": "",
          "type": "address"
        }
      ],
      "name": "balanceOf",
      "outputs": [
        {
          "name": "",
          "type": "uint256"
        }
      ],
      "payable": false,
      "stateMutability": "view",
      "type": "function"
    },
    {
      "constant": true,
      "inputs": [
        {
          "name": "_ID",
          "type": "uint256"
        }
      ],
      "name": "getProposalNo_Task",
      "outputs": [
        {
          "name": "no",
          "type": "uint256"
        }
      ],
      "payable": false,
      "stateMutability": "view",
      "type": "function"
    },
    {
      "constant": true,
      "inputs": [
        {
          "name": "_ID",
          "type": "uint256"
        }
      ],
      "name": "getProposalName_Task",
      "outputs": [
        {
          "name": "name",
          "type": "string"
        }
      ],
      "payable": false,
      "stateMutability": "view",
      "type": "function"
    },
    {
      "constant": true,
      "inputs": [],
      "name": "owner",
      "outputs": [
        {
          "name": "",
          "type": "address"
        }
      ],
      "payable": false,
      "stateMutability": "view",
      "type": "function"
    },
    {
      "constant": true,
      "inputs": [],
      "name": "allowanceBalance",
      "outputs": [
        {
          "name": "",
          "type": "uint256"
        }
      ],
      "payable": false,
      "stateMutability": "view",
      "type": "function"
    },
    {
      "constant": false,
      "inputs": [
        {
          "name": "_tokenAmount",
          "type": "uint256"
        }
      ],
      "name": "swap",
      "outputs": [],
      "payable": false,
      "stateMutability": "nonpayable",
      "type": "function"
    },
    {
      "constant": true,
      "inputs": [],
      "name": "symbol",
      "outputs": [
        {
          "name": "",
          "type": "string"
        }
      ],
      "payable": false,
      "stateMutability": "view",
      "type": "function"
    },
    {
      "constant": false,
      "inputs": [
        {
          "name": "_ID",
          "type": "uint256"
        }
      ],
      "name": "payReward_Task",
      "outputs": [],
      "payable": false,
      "stateMutability": "nonpayable",
      "type": "function"
    },
    {
      "constant": true,
      "inputs": [],
      "name": "allowanceInterval",
      "outputs": [
        {
          "name": "",
          "type": "uint256"
        }
      ],
      "payable": false,
      "stateMutability": "view",
      "type": "function"
    },
    {
      "constant": true,
      "inputs": [
        {
          "name": "_ID",
          "type": "uint256"
        }
      ],
      "name": "getProposalValue_Task",
      "outputs": [
        {
          "name": "value",
          "type": "uint256"
        }
      ],
      "payable": false,
      "stateMutability": "view",
      "type": "function"
    },
    {
      "constant": false,
      "inputs": [
        {
          "name": "_ID",
          "type": "uint256"
        }
      ],
      "name": "end_Task",
      "outputs": [],
      "payable": false,
      "stateMutability": "nonpayable",
      "type": "function"
    },
    {
      "constant": false,
      "inputs": [
        {
          "name": "_ID",
          "type": "uint256"
        },
        {
          "name": "_vote",
          "type": "bool"
        }
      ],
      "name": "vote_Task",
      "outputs": [],
      "payable": false,
      "stateMutability": "nonpayable",
      "type": "function"
    },
    {
      "constant": true,
      "inputs": [
        {
          "name": "_ID",
          "type": "uint256"
        }
      ],
      "name": "getProposalActive_Task",
      "outputs": [
        {
          "name": "active",
          "type": "bool"
        }
      ],
      "payable": false,
      "stateMutability": "view",
      "type": "function"
    },
    {
      "constant": false,
      "inputs": [
        {
          "name": "_value",
          "type": "uint256"
        }
      ],
      "name": "allowanceWithdrawal",
      "outputs": [],
      "payable": false,
      "stateMutability": "nonpayable",
      "type": "function"
    },
    {
      "constant": true,
      "inputs": [
        {
          "name": "",
          "type": "uint256"
        }
      ],
      "name": "proposals_Task",
      "outputs": [
        {
          "name": "ID",
          "type": "uint256"
        },
        {
          "name": "name",
          "type": "string"
        },
        {
          "name": "description",
          "type": "string"
        },
        {
          "name": "value",
          "type": "uint256"
        },
        {
          "name": "start",
          "type": "uint256"
        },
        {
          "name": "yes",
          "type": "uint256"
        },
        {
          "name": "no",
          "type": "uint256"
        },
        {
          "name": "active",
          "type": "bool"
        },
        {
          "name": "accepted",
          "type": "bool"
        },
        {
          "name": "rewarded",
          "type": "bool"
        }
      ],
      "payable": false,
      "stateMutability": "view",
      "type": "function"
    },
    {
      "constant": true,
      "inputs": [],
      "name": "tokensPerEth",
      "outputs": [
        {
          "name": "",
          "type": "uint256"
        }
      ],
      "payable": false,
      "stateMutability": "view",
      "type": "function"
    },
    {
      "constant": true,
      "inputs": [],
      "name": "maxSupply",
      "outputs": [
        {
          "name": "",
          "type": "uint256"
        }
      ],
      "payable": false,
      "stateMutability": "view",
      "type": "function"
    },
    {
      "constant": true,
      "inputs": [],
      "name": "allowanceValue",
      "outputs": [
        {
          "name": "",
          "type": "uint256"
        }
      ],
      "payable": false,
      "stateMutability": "view",
      "type": "function"
    },
    {
      "constant": true,
      "inputs": [
        {
          "name": "_ID",
          "type": "uint256"
        }
      ],
      "name": "getProposalStart_Task",
      "outputs": [
        {
          "name": "start",
          "type": "uint256"
        }
      ],
      "payable": false,
      "stateMutability": "view",
      "type": "function"
    },
    {
      "constant": true,
      "inputs": [
        {
          "name": "_ID",
          "type": "uint256"
        }
      ],
      "name": "getProposalAccepted_Task",
      "outputs": [
        {
          "name": "accepted",
          "type": "bool"
        }
      ],
      "payable": false,
      "stateMutability": "view",
      "type": "function"
    },
    {
      "constant": true,
      "inputs": [],
      "name": "maxStake",
      "outputs": [
        {
          "name": "",
          "type": "uint256"
        }
      ],
      "payable": false,
      "stateMutability": "view",
      "type": "function"
    },
    {
      "payable": true,
      "stateMutability": "payable",
      "type": "fallback"
    },
    {
      "anonymous": false,
      "inputs": [
        {
          "indexed": true,
          "name": "ID",
          "type": "uint256"
        },
        {
          "indexed": false,
          "name": "description",
          "type": "string"
        }
      ],
      "name": "ProposalCreation_Task",
      "type": "event"
    },
    {
      "anonymous": false,
      "inputs": [
        {
          "indexed": true,
          "name": "ID",
          "type": "uint256"
        },
        {
          "indexed": false,
          "name": "user",
          "type": "address"
        },
        {
          "indexed": false,
          "name": "vote",
          "type": "bool"
        },
        {
          "indexed": false,
          "name": "balance",
          "type": "uint256"
        }
      ],
      "name": "UserVote_Task",
      "type": "event"
    },
    {
      "anonymous": false,
      "inputs": [
        {
          "indexed": true,
          "name": "ID",
          "type": "uint256"
        },
        {
          "indexed": false,
          "name": "description",
          "type": "string"
        },
        {
          "indexed": false,
          "name": "value",
          "type": "uint256"
        }
      ],
      "name": "SuccessfulProposal_Task",
      "type": "event"
    },
    {
      "anonymous": false,
      "inputs": [
        {
          "indexed": true,
          "name": "ID",
          "type": "uint256"
        },
        {
          "indexed": false,
          "name": "description",
          "type": "string"
        },
        {
          "indexed": false,
          "name": "reason",
          "type": "string"
        }
      ],
      "name": "RejectedProposal_Task",
      "type": "event"
    },
    {
      "anonymous": false,
      "inputs": [
        {
          "indexed": true,
          "name": "from",
          "type": "address"
        },
        {
          "indexed": true,
          "name": "to",
          "type": "address"
        },
        {
          "indexed": false,
          "name": "value",
          "type": "uint256"
        }
      ],
      "name": "Transfer",
      "type": "event"
    },
    {
      "constant": true,
      "inputs": [],
      "name": "shareCap",
      "outputs": [
        {
          "name": "currentShareCap",
          "type": "uint256"
        }
      ],
      "payable": false,
      "stateMutability": "view",
      "type": "function"
    }
  ],
  "bytecode": "0x60606040526000601160006101000a81548160ff021916908315150217905550341561002a57600080fd5b612843806100396000396000f3006060604052600436106101ab576000357c0100000000000000000000000000000000000000000000000000000000900463ffffffff1680622e13161461038d57806306fdde03146103b657806318160ddd1461044457806319372c9f1461046d5780632547a206146104a8578063313ce56714610544578063343fe4da1461057357806343ea17be146105be57806348489ed0146106135780635a29acef1461063c5780635eda46941461067357806363a116e31461069c57806370a08231146106d557806381ae2d8e146107225780638936a3f5146107595780638da5cb5b146107f55780638f776ff11461084a57806394b918de1461087357806395d89b411461089657806399d5f8b7146109245780639a892b4514610947578063a76607a214610970578063a9237f9e146109a7578063adceaed0146109ca578063c0b34d8a146109f8578063c29696b314610a33578063c2c9813114610a5c578063c6f17bc114610a7f578063cbdd69b514610bcb578063d5abeb0114610bf4578063deb80fe814610c1d578063e15232ea14610c46578063e5de911614610c7d578063ea1b28e014610cb8575b6000341115156101ba57600080fd5b61021f6101d260075434610ce190919063ffffffff16565b6000803373ffffffffffffffffffffffffffffffffffffffff1673ffffffffffffffffffffffffffffffffffffffff16815260200190815260200160002054610d1790919063ffffffff16565b6000803373ffffffffffffffffffffffffffffffffffffffff1673ffffffffffffffffffffffffffffffffffffffff1681526020019081526020016000208190555061028a61027960075434610ce190919063ffffffff16565b600154610d1790919063ffffffff16565b60018190555060646102a9600654600554610ce190919063ffffffff16565b8115156102b257fe5b046000803373ffffffffffffffffffffffffffffffffffffffff1673ffffffffffffffffffffffffffffffffffffffff16815260200190815260200160002054111515156102ff57600080fd5b6005546001541115151561031257600080fd5b3373ffffffffffffffffffffffffffffffffffffffff163073ffffffffffffffffffffffffffffffffffffffff167fddf252ad1be2c89b69c2b068fc378daa952ba7f163c4a11628f55a4df523b3ef61037660075434610ce190919063ffffffff16565b6040518082815260200191505060405180910390a3005b341561039857600080fd5b6103a0610d44565b6040518082815260200191505060405180910390f35b34156103c157600080fd5b6103c9610d6e565b6040518080602001828103825283818151815260200191508051906020019080838360005b838110156104095780820151818401526020810190506103ee565b50505050905090810190601f1680156104365780820380516001836020036101000a031916815260200191505b509250505060405180910390f35b341561044f57600080fd5b610457610e0c565b6040518082815260200191505060405180910390f35b341561047857600080fd5b61048e6004808035906020019091905050610e12565b604051808215151515815260200191505060405180910390f35b34156104b357600080fd5b6104c96004808035906020019091905050610e49565b6040518080602001828103825283818151815260200191508051906020019080838360005b838110156105095780820151818401526020810190506104ee565b50505050905090810190601f1680156105365780820380516001836020036101000a031916815260200191505b509250505060405180910390f35b341561054f57600080fd5b610557610f11565b604051808260ff1660ff16815260200191505060405180910390f35b341561057e57600080fd5b6105bc600480803590602001908201803590602001919091929080359060200190820180359060200191909192908035906020019091905050610f24565b005b34156105c957600080fd5b6105d161124f565b604051808273ffffffffffffffffffffffffffffffffffffffff1673ffffffffffffffffffffffffffffffffffffffff16815260200191505060405180910390f35b341561061e57600080fd5b610626611275565b6040518082815260200191505060405180910390f35b341561064757600080fd5b61065d600480803590602001909190505061127b565b6040518082815260200191505060405180910390f35b341561067e57600080fd5b6106866112a5565b6040518082815260200191505060405180910390f35b34156106a757600080fd5b6106d3600480803573ffffffffffffffffffffffffffffffffffffffff169060200190919050506112b2565b005b34156106e057600080fd5b61070c600480803573ffffffffffffffffffffffffffffffffffffffff169060200190919050506113ac565b6040518082815260200191505060405180910390f35b341561072d57600080fd5b61074360048080359060200190919050506113c4565b6040518082815260200191505060405180910390f35b341561076457600080fd5b61077a60048080359060200190919050506113ee565b6040518080602001828103825283818151815260200191508051906020019080838360005b838110156107ba57808201518184015260208101905061079f565b50505050905090810190601f1680156107e75780820380516001836020036101000a031916815260200191505b509250505060405180910390f35b341561080057600080fd5b6108086114b6565b604051808273ffffffffffffffffffffffffffffffffffffffff1673ffffffffffffffffffffffffffffffffffffffff16815260200191505060405180910390f35b341561085557600080fd5b61085d6114dc565b6040518082815260200191505060405180910390f35b341561087e57600080fd5b61089460048080359060200190919050506114e2565b005b34156108a157600080fd5b6108a9611783565b6040518080602001828103825283818151815260200191508051906020019080838360005b838110156108e95780820151818401526020810190506108ce565b50505050905090810190601f1680156109165780820380516001836020036101000a031916815260200191505b509250505060405180910390f35b341561092f57600080fd5b6109456004808035906020019091905050611821565b005b341561095257600080fd5b61095a61194f565b6040518082815260200191505060405180910390f35b341561097b57600080fd5b6109916004808035906020019091905050611955565b6040518082815260200191505060405180910390f35b34156109b257600080fd5b6109c8600480803590602001909190505061197f565b005b34156109d557600080fd5b6109f660048080359060200190919080351515906020019091905050611efc565b005b3415610a0357600080fd5b610a1960048080359060200190919050506122a6565b604051808215151515815260200191505060405180910390f35b3415610a3e57600080fd5b610a466122dd565b6040518082815260200191505060405180910390f35b3415610a6757600080fd5b610a7d60048080359060200190919050506122e7565b005b3415610a8a57600080fd5b610aa060048080359060200190919050506123f2565b604051808b815260200180602001806020018a815260200189815260200188815260200187815260200186151515158152602001851515151581526020018415151515815260200183810383528c818151815260200191508051906020019080838360005b83811015610b20578082015181840152602081019050610b05565b50505050905090810190601f168015610b4d5780820380516001836020036101000a031916815260200191505b5083810382528b818151815260200191508051906020019080838360005b83811015610b86578082015181840152602081019050610b6b565b50505050905090810190601f168015610bb35780820380516001836020036101000a031916815260200191505b509c5050505050505050505050505060405180910390f35b3415610bd657600080fd5b610bde6125ac565b6040518082815260200191505060405180910390f35b3415610bff57600080fd5b610c076125b2565b6040518082815260200191505060405180910390f35b3415610c2857600080fd5b610c306125b8565b6040518082815260200191505060405180910390f35b3415610c5157600080fd5b610c6760048080359060200190919050506125be565b6040518082815260200191505060405180910390f35b3415610c8857600080fd5b610c9e60048080359060200190919050506125e8565b604051808215151515815260200191505060405180910390f35b3415610cc357600080fd5b610ccb61261f565b6040518082815260200191505060405180910390f35b60008082840290506000841480610d025750828482811515610cff57fe5b04145b1515610d0d57600080fd5b8091505092915050565b6000808284019050838110158015610d2f5750828110155b1515610d3a57600080fd5b8091505092915050565b60006064610d5f600654600154610ce190919063ffffffff16565b811515610d6857fe5b04905090565b60028054600181600116156101000203166002900480601f016020809104026020016040519081016040528092919081815260200182805460018160011615610100020316600290048015610e045780601f10610dd957610100808354040283529160200191610e04565b820191906000526020600020905b815481529060010190602001808311610de757829003601f168201915b505050505081565b60015481565b6000601082815481101515610e2357fe5b906000526020600020906009020160080160029054906101000a900460ff169050919050565b610e51612641565b601082815481101515610e6057fe5b90600052602060002090600902016002018054600181600116156101000203166002900480601f016020809104026020016040519081016040528092919081815260200182805460018160011615610100020316600290048015610f055780601f10610eda57610100808354040283529160200191610f05565b820191906000526020600020905b815481529060010190602001808311610ee857829003601f168201915b50505050509050919050565b600460009054906101000a900460ff1681565b6000806000803373ffffffffffffffffffffffffffffffffffffffff1673ffffffffffffffffffffffffffffffffffffffff16815260200190815260200160002054111515610f7257600080fd5b3073ffffffffffffffffffffffffffffffffffffffff16318211151515610f9857600080fd5b600d54610fed600c60003373ffffffffffffffffffffffffffffffffffffffff1673ffffffffffffffffffffffffffffffffffffffff168152602001908152602001600020544261262590919063ffffffff16565b111515610ff957600080fd5b42600c60003373ffffffffffffffffffffffffffffffffffffffff1673ffffffffffffffffffffffffffffffffffffffff168152602001908152602001600020819055506010805490509050601080548060010182816110599190612655565b91600052602060002090600902016000610140604051908101604052808581526020018a8a8080601f016020809104026020016040519081016040528093929190818152602001838380828437820191505050505050815260200188888080601f0160208091040260200160405190810160405280939291908181526020018383808284378201915050505050508152602001868152602001428152602001600081526020016000815260200160011515815260200160001515815260200160001515815250909190915060008201518160000155602082015181600101908051906020019061114a929190612687565b506040820151816002019080519060200190611167929190612687565b50606082015181600301556080820151816004015560a0820151816005015560c0820151816006015560e08201518160080160006101000a81548160ff0219169083151502179055506101008201518160080160016101000a81548160ff0219169083151502179055506101208201518160080160026101000a81548160ff021916908315150217905550505050807f99302e2af76c2b15baadb0a49b1bd6eb054e52aca45affa743c730af449264398585604051808060200182810382528484828181526020019250808284378201915050935050505060405180910390a2505050505050565b601160019054906101000a900473ffffffffffffffffffffffffffffffffffffffff1681565b60085481565b600060108281548110151561128c57fe5b9060005260206000209060090201600501549050919050565b6000601080549050905090565b600460019054906101000a900473ffffffffffffffffffffffffffffffffffffffff1673ffffffffffffffffffffffffffffffffffffffff163373ffffffffffffffffffffffffffffffffffffffff1614151561130e57600080fd5b601160009054906101000a900460ff16158015611342575060008173ffffffffffffffffffffffffffffffffffffffff1614155b151561134d57600080fd5b6001601160006101000a81548160ff02191690831515021790555080601160016101000a81548173ffffffffffffffffffffffffffffffffffffffff021916908373ffffffffffffffffffffffffffffffffffffffff16021790555050565b60006020528060005260406000206000915090505481565b60006010828154811015156113d557fe5b9060005260206000209060090201600601549050919050565b6113f6612641565b60108281548110151561140557fe5b90600052602060002090600902016001018054600181600116156101000203166002900480601f0160208091040260200160405190810160405280929190818152602001828054600181600116156101000203166002900480156114aa5780601f1061147f576101008083540402835291602001916114aa565b820191906000526020600020905b81548152906001019060200180831161148d57829003601f168201915b50505050509050919050565b600460019054906101000a900473ffffffffffffffffffffffffffffffffffffffff1681565b600b5481565b60008060003373ffffffffffffffffffffffffffffffffffffffff1673ffffffffffffffffffffffffffffffffffffffff1681526020019081526020016000205411151561152f57600080fd5b601160009054906101000a900460ff16151561154a57600080fd5b61159b816000803373ffffffffffffffffffffffffffffffffffffffff1673ffffffffffffffffffffffffffffffffffffffff1681526020019081526020016000205461262590919063ffffffff16565b6000803373ffffffffffffffffffffffffffffffffffffffff1673ffffffffffffffffffffffffffffffffffffffff168152602001908152602001600020819055506115f28160015461262590919063ffffffff16565b60018190555061160d8160055461262590919063ffffffff16565b600581905550601160019054906101000a900473ffffffffffffffffffffffffffffffffffffffff1673ffffffffffffffffffffffffffffffffffffffff1663d3986f0882336040518363ffffffff167c0100000000000000000000000000000000000000000000000000000000028152600401808381526020018273ffffffffffffffffffffffffffffffffffffffff1673ffffffffffffffffffffffffffffffffffffffff16815260200192505050602060405180830381600087803b15156116d757600080fd5b5af115156116e457600080fd5b5050506040518051905015156116f957600080fd5b601160019054906101000a900473ffffffffffffffffffffffffffffffffffffffff1673ffffffffffffffffffffffffffffffffffffffff163373ffffffffffffffffffffffffffffffffffffffff167fddf252ad1be2c89b69c2b068fc378daa952ba7f163c4a11628f55a4df523b3ef836040518082815260200191505060405180910390a350565b60038054600181600116156101000203166002900480601f0160208091040260200160405190810160405280929190818152602001828054600181600116156101000203166002900480156118195780601f106117ee57610100808354040283529160200191611819565b820191906000526020600020905b8154815290600101906020018083116117fc57829003601f168201915b505050505081565b60108181548110151561183057fe5b906000526020600020906009020160080160019054906101000a900460ff168015611886575060108181548110151561186557fe5b906000526020600020906009020160080160029054906101000a900460ff16155b151561189157600080fd5b60016010828154811015156118a257fe5b906000526020600020906009020160080160026101000a81548160ff021916908315150217905550600460019054906101000a900473ffffffffffffffffffffffffffffffffffffffff1673ffffffffffffffffffffffffffffffffffffffff166108fc60108381548110151561191557fe5b9060005260206000209060090201600301549081150290604051600060405180830381858888f19350505050151561194c57600080fd5b50565b60095481565b600060108281548110151561196657fe5b9060005260206000209060090201600301549050919050565b6000806000803373ffffffffffffffffffffffffffffffffffffffff1673ffffffffffffffffffffffffffffffffffffffff168152602001908152602001600020541115156119cd57600080fd5b600d54611a036010848154811015156119e257fe5b9060005260206000209060090201600401544261262590919063ffffffff16565b10151515611a1057600080fd5b601082815481101515611a1f57fe5b906000526020600020906009020160080160009054906101000a900460ff161515611a4957600080fd5b6000601083815481101515611a5a57fe5b906000526020600020906009020160080160006101000a81548160ff0219169083151502179055506064611a9b600154600e54610ce190919063ffffffff16565b811515611aa457fe5b04611af8601084815481101515611ab757fe5b906000526020600020906009020160050154601085815481101515611ad857fe5b906000526020600020906009020160060154610d1790919063ffffffff16565b1015611c1557817f876c20b08550f4ae22fba74da817782aae5c3948223df4d406846d04aae91bf5601084815481101515611b2f57fe5b9060005260206000209060090201600201604051808060200180602001838103835284818154600181600116156101000203166002900481526020019150805460018160011615610100020316600290048015611bcd5780601f10611ba257610100808354040283529160200191611bcd565b820191906000526020600020905b815481529060010190602001808311611bb057829003601f168201915b5050838103825260158152602001807f50617274696369706174696f6e20746f6f206c6f770000000000000000000000815250602001935050505060405180910390a2611ef8565b60649050611c4e600f54601084815481101515611c2e57fe5b906000526020600020906009020160060154610ce190919063ffffffff16565b611c95611c66600f548461262590919063ffffffff16565b601085815481101515611c7557fe5b906000526020600020906009020160050154610ce190919063ffffffff16565b101515611de4576001601083815481101515611cad57fe5b906000526020600020906009020160080160016101000a81548160ff021916908315150217905550817fa9acdc5e61d2a6ae00c0c76f856a20d9c9c247c3731151c32d842f0117d8b53c601084815481101515611d0657fe5b9060005260206000209060090201600201601085815481101515611d2657fe5b9060005260206000209060090201600301546040518080602001838152602001828103825284818154600181600116156101000203166002900481526020019150805460018160011615610100020316600290048015611dc75780601f10611d9c57610100808354040283529160200191611dc7565b820191906000526020600020905b815481529060010190602001808311611daa57829003601f168201915b5050935050505060405180910390a2611ddf82611821565b611ef7565b817f876c20b08550f4ae22fba74da817782aae5c3948223df4d406846d04aae91bf5601084815481101515611e1557fe5b9060005260206000209060090201600201604051808060200180602001838103835284818154600181600116156101000203166002900481526020019150805460018160011615610100020316600290048015611eb35780601f10611e8857610100808354040283529160200191611eb3565b820191906000526020600020905b815481529060010190602001808311611e9657829003601f168201915b5050838103825260198152602001807f50726f706f73616c2072656a656374656420627920766f746500000000000000815250602001935050505060405180910390a25b5b5050565b60008060003373ffffffffffffffffffffffffffffffffffffffff1673ffffffffffffffffffffffffffffffffffffffff16815260200190815260200160002054111515611f4957600080fd5b601082815481101515611f5857fe5b906000526020600020906009020160080160009054906101000a900460ff161515611f8257600080fd5b600d54611fb8601084815481101515611f9757fe5b9060005260206000209060090201600401544261262590919063ffffffff16565b101515611fc957611fc88261197f565b5b601082815481101515611fd857fe5b906000526020600020906009020160070160003373ffffffffffffffffffffffffffffffffffffffff1673ffffffffffffffffffffffffffffffffffffffff16815260200190815260200160002060009054906101000a900460ff1615151561204057600080fd5b600160108381548110151561205157fe5b906000526020600020906009020160070160003373ffffffffffffffffffffffffffffffffffffffff1673ffffffffffffffffffffffffffffffffffffffff16815260200190815260200160002060006101000a81548160ff02191690831515021790555080156121565761212d6000803373ffffffffffffffffffffffffffffffffffffffff1673ffffffffffffffffffffffffffffffffffffffff1681526020019081526020016000205460108481548110151561210d57fe5b906000526020600020906009020160050154610d1790919063ffffffff16565b60108381548110151561213c57fe5b9060005260206000209060090201600501819055506121ec565b6121c76000803373ffffffffffffffffffffffffffffffffffffffff1673ffffffffffffffffffffffffffffffffffffffff168152602001908152602001600020546010848154811015156121a757fe5b906000526020600020906009020160060154610d1790919063ffffffff16565b6010838154811015156121d657fe5b9060005260206000209060090201600601819055505b817f402e9b31132034353c107bb3d3bccb777d722844ada05d77f00ca7e8d38bdd7b33836000803373ffffffffffffffffffffffffffffffffffffffff1673ffffffffffffffffffffffffffffffffffffffff16815260200190815260200160002054604051808473ffffffffffffffffffffffffffffffffffffffff1673ffffffffffffffffffffffffffffffffffffffff16815260200183151515158152602001828152602001935050505060405180910390a25050565b60006010828154811015156122b757fe5b906000526020600020906009020160080160009054906101000a900460ff169050919050565b6000600154905090565b600460019054906101000a900473ffffffffffffffffffffffffffffffffffffffff1673ffffffffffffffffffffffffffffffffffffffff163373ffffffffffffffffffffffffffffffffffffffff1614151561234357600080fd5b60095461235b6008544261262590919063ffffffff16565b111561237257600a54600b81905550426008819055505b61238781600b5461262590919063ffffffff16565b600b81905550600460019054906101000a900473ffffffffffffffffffffffffffffffffffffffff1673ffffffffffffffffffffffffffffffffffffffff166108fc829081150290604051600060405180830381858888f1935050505015156123ef57600080fd5b50565b60108181548110151561240157fe5b9060005260206000209060090201600091509050806000015490806001018054600181600116156101000203166002900480601f0160208091040260200160405190810160405280929190818152602001828054600181600116156101000203166002900480156124b35780601f10612488576101008083540402835291602001916124b3565b820191906000526020600020905b81548152906001019060200180831161249657829003601f168201915b505050505090806002018054600181600116156101000203166002900480601f0160208091040260200160405190810160405280929190818152602001828054600181600116156101000203166002900480156125515780601f1061252657610100808354040283529160200191612551565b820191906000526020600020905b81548152906001019060200180831161253457829003601f168201915b5050505050908060030154908060040154908060050154908060060154908060080160009054906101000a900460ff16908060080160019054906101000a900460ff16908060080160029054906101000a900460ff1690508a565b60075481565b60055481565b600a5481565b60006010828154811015156125cf57fe5b9060005260206000209060090201600401549050919050565b60006010828154811015156125f957fe5b906000526020600020906009020160080160019054906101000a900460ff169050919050565b60065481565b600082821115151561263657600080fd5b818303905092915050565b602060405190810160405280600081525090565b815481835581811511612682576009028160090283600052602060002091820191016126819190612707565b5b505050565b828054600181600116156101000203166002900490600052602060002090601f016020900481019282601f106126c857805160ff19168380011785556126f6565b828001600101855582156126f6579182015b828111156126f55782518255916020019190600101906126da565b5b50905061270391906127aa565b5090565b6127a791905b808211156127a35760008082016000905560018201600061272e91906127cf565b60028201600061273e91906127cf565b60038201600090556004820160009055600582016000905560068201600090556008820160006101000a81549060ff02191690556008820160016101000a81549060ff02191690556008820160026101000a81549060ff02191690555060090161270d565b5090565b90565b6127cc91905b808211156127c85760008160009055506001016127b0565b5090565b90565b50805460018160011615610100020316600290046000825580601f106127f55750612814565b601f01602090049060005260206000209081019061281391906127aa565b5b505600a165627a7a72305820f292662e4b51916e1cd8771a73dfa5abc4ecfe3ccb7f7162695cb2102649a7cb0029",
  "source": "/*\nDevToken - Documentation\n\nContract to deploy: DevToken\n\nArguments (with example-values):\n{   name: \"DevToken\",                       // Name of the token\n    symbol: \"DVT\",                          // Symbol of the token\n    maxSupply: web3.toWei(100, 'ether'),    // max number of tokens\n    maxStake: 25,                           // percentage of tokens anyone can hold\n    tokensPerEther: 5,                      // tokens bought per ether\n    owners: [                               // array of owner/founder accounts\n        web3.eth.accounts[0],\n    ],\n    balances: [                             // balances of the indiviual owners/founders\n        web3.toWei(20, 'ether'),\n    ],\n    allowanceInterval: 60,                  // interval of the owner allowance in seconds\n    allowanceValue: web3.toWei(1, 'ether'), // value of the owner allowance\n    proposalDuration: 60,                   // duration of a proposal/vote\n    minVotes: 50,                           // minumum vote participation in percent to end a vote\n    ratio_Task: 60                          // ratio of the votes on a proposal that are neccessary to be accepted\n};\n*/\n\npragma solidity 0.4.21;\n\n/// @title Interface for Revenue Token\n/// @author chainge.network\n/// @notice Interaction with the respective counterpart token - the Revenue Token\ninterface RevToken {\n    /// @notice Exchanges a certain amount of DevCoins to RevTokens\n    /// @param _tokenAmount The amount of DevTokens that will be converted to RevTokens\n    /// @param _tokenHolder The address that will receive the RevTokens\n    /// @return true if the swap was successful\n    function swap(uint256 _tokenAmount, address _tokenHolder) external returns(bool success);\n}\n\n// SafeMath library that automatically checks for overflows and underflows\nlibrary SafeMath {\n    // Safe multiplication\n    function mul(uint256 a, uint256 b) internal pure returns (uint256) {\n        uint256 c = a * b;\n        require(a == 0 || c / a == b);\n        return c;\n    }\n\n    // Safe subtraction\n    function sub(uint256 a, uint256 b) internal pure returns (uint256) {\n        require(b <= a);\n        return a - b;\n    }\n\n    // Safe addition\n    function add(uint256 a, uint256 b) internal pure returns (uint256) {\n        uint256 c = a + b;\n        require(c>=a && c>=b);\n        return c;\n    }\n}\n\n/// @title Basic ERC20 Token\n/// @author chainge.network\n/// @notice Basic ERC20 functionality, minus the ability to transfer/trade tokens\n/// @dev Contains no ERC-20 functions, just the mapping and general variables\ncontract Token {\n    using SafeMath for uint256;\n\n    event Transfer(address indexed from, address indexed to, uint256 value);\n\n    // mapping of all token-balances\n    mapping (address => uint256) public balanceOf;\n\n    // the amount of token already issued\n    uint256 public totalSupply;\n\n    // variables for nice wallet integration\n    string public name;     // name of the token\n    string public symbol;   // symbol of the token\n    uint8 public decimals;  // decimals of the token\n}\n\n\n/// @title Basic Owned contract\n/// @author chainge.network\n/// @notice You can use this contract for only the most basic simulation\n/// @dev Contains no ERC-20 functions, just the mapping and general variables\ncontract Owned is Token {\n    // address of the owner/developer who deployed the contract\n    address public owner;\n\n    // only allow owner to call certain functions\n    modifier onlyOwner {\n        require(msg.sender == owner);\n        _;\n    }\n    // only allow a user with a tokenbalance > 0 to call certain functions\n    modifier onlyTokenHolder {\n        require(balanceOf[msg.sender] > 0);\n        _;\n    }\n}\n\n/// @title Funding contract for the DevToken\n/// @author chainge.network\n/// @notice Provides the user with the ability to buy DevCoins for ETH during the funding phase\n/// @dev Contains a payable function\ncontract Funding is Owned {\n    // maximum supply of the token\n    uint256 public maxSupply;\n    // maximum share of all tokens anyone is allowed to hold\n    uint256 public maxStake;\n    // number of tokens being sold per ETH\n    uint256 public tokensPerEth;\n\n    /// @notice Provides the user with `tokensPerEth` per ETH being sent, up to the limit of `maxSupply * maxStake / 100`\n    function () public payable {\n        // function call needs to send a non-zero amount of ETH\n        require(msg.value > 0);\n\n        // adds the amount of bought DevTokens (sent ETH multiplied with tokensPerEth) to the balance of the calling address\n        balanceOf[msg.sender] = balanceOf[msg.sender].add(msg.value.mul(tokensPerEth));\n\n        // adds the same amount of DevTokens to the total supply\n        totalSupply = totalSupply.add(msg.value.mul(tokensPerEth));\n\n        // the calling address is not allowed to hold more than maxStake (in percent) of the maximum amount of tokens\n        require(balanceOf[msg.sender] <= maxSupply.mul(maxStake)/100);\n\n        // the amount of tokens already issued has to be less or equal than the maximum number of tokens  \n        require(totalSupply <= maxSupply);\n\n        // emitting the ERC20 Transfer event\n        emit Transfer(address(this), msg.sender, msg.value.mul(tokensPerEth));\n    }\n\n    /// @notice `totalSupply * maxStake / 100` is currently the maximum amount any address can hold\n    /// @return maxStake (in percent) of the current amount of tokens already issued\n    function maxInvestment() public view returns(uint256) {\n        return totalSupply.mul(maxStake)/100;\n    }\n}\n\n/// @title Allowance of the owner\n/// @author chainge.network\n/// @notice Allows the owner to withdraw a certain amount of ETH in each specified timeframe\ncontract OwnerAllowance is Funding {\n    // time of last use of the allowance\n    uint256 public allowanceTimeCounter;\n\n    // reset interval of the allowance\n    uint256 public allowanceInterval;\n\n    // allowance amount per interval\n    uint256 public allowanceValue;\n\n    // remaining balance of the total allowance value in the current interval\n    uint256 public allowanceBalance;\n\n    /// @notice The owner is able to withdraw `allowanceValue` every `allowanceInterval` seconds\n    /// @param _value The amount of ETH that the owner wishes to withdraw\n    function allowanceWithdrawal(uint256 _value) public onlyOwner {\n        // If the time that has passed since the last use of the allowance exceeds the interval\n        if (now.sub(allowanceTimeCounter) > allowanceInterval) {\n            // resetting the balance to the allowance amount per interval\n            allowanceBalance = allowanceValue;\n\n            // resetting the time of the last use to now\n            allowanceTimeCounter = now;\n        }\n        // subtracting the desired amount of ETH from the current balance\n        allowanceBalance = allowanceBalance.sub(_value);\n\n        // transferring the desired amount of ETH to the owners address\n        owner.transfer(_value);\n    }\n}\n\n/// @title Voting contract for tasks\n/// @author chainge.network\n/// @notice Allows all token-holders to propose and vote on tasks\ncontract Voting_Task is OwnerAllowance {\n    // mapping of an address to the time of its last proposal (only one proposal at a time per address)\n    mapping(address => uint256) lastProposal_Task;\n\n    // duration of a proposal in seconds\n    uint256 proposalDuration_Task;\n\n    // percentage of minimum votes for proposal to get accepted\n    uint256 minVotes_Task;\n\n    // threshold (in percent) of votes for a proposal to be accepted\n    uint256 ratio_Task;\n\n    // event: a new task was proposed to be voted on (contains the ID of the porposal and its description)\n    event ProposalCreation_Task(uint256 indexed ID, string description);\n    // event: a user voted on a proposed task (contains the ID of the porposal, the address of the user, his vote and his balance)\n    event UserVote_Task(uint256 indexed ID, address user, bool vote, uint256 balance);\n    // event: a task proposal was successful (contains the ID of the porposal, its description and the value in ETH)\n    event SuccessfulProposal_Task(uint256 indexed ID, string description, uint256 value);\n    // event: a task proposal was rejected (contains the ID of the porposal, its description and the reason of the rejection)\n    event RejectedProposal_Task(uint256 indexed ID, string description, string reason);\n\n    struct Proposal_Task {\n        uint256 ID;                     // id of the proposed task\n        string name;                    // name of the proposed task\n        string description;             // description of the proposed task\n        uint256 value;                  // (optional) amount of ETH-reward for the proposed tasks\n        uint256 start;                  // starting timestamp of the proposal\n        uint256 yes;                    // yes-votes (in tokens) of the proposal\n        uint256 no;                     // no-votes (in tokens) of the proposal\n        mapping(address => bool) voted; // mapping to check whether an address has already voted or not\n        bool active;                    // true if the proposal is still active, otherwise false\n        bool accepted;                  // true if the proposal has been accepted, otherwise false\n        bool rewarded;                  // (optional) true if proposal was rewarded, otherwise false\n    }\n\n    // array of all proposals\n    Proposal_Task[] public proposals_Task;\n\n    /// @notice Propose a new task as a token-holder \n    /// @param _name The name of the proposed task\n    /// @param _description The description of the proposed task\n    /// @param _value The value of the proposed task in ETH\n    function propose_Task(string _name, string _description, uint256 _value) external onlyTokenHolder {\n        // the ETH balance of the contract has to be at least the same as the value of the proposed task \n        require(_value <= address(this).balance);\n\n        // allows one proposal per interval for each token-holder\n        require(now.sub(lastProposal_Task[msg.sender]) > proposalDuration_Task);\n\n        // sets the time of the last proposal for the caller to now\n        lastProposal_Task[msg.sender] = now;\n\n        // saves the ID of a proposal which is equal to the current array length\n        uint256 ID = proposals_Task.length;\n\n        // initializes new proposal as a struct and pushes it into the proposal array\n        proposals_Task.push(Proposal_Task({ID: ID, name: _name, description: _description, value: _value, start: now, yes: 0, no: 0, active: true, accepted: false, rewarded: false}));\n\n        // event emitted for proposal creation\n        emit ProposalCreation_Task(ID, _description);\n\n    }\n\n    /// @notice Vote on an active proposal for a development task \n    /// @param _ID The ID of the proposal\n    /// @param _vote The decision of the caller regarding the proposed task \n    function vote_Task(uint256 _ID, bool _vote) external onlyTokenHolder {\n        // proposal has to be active\n        require(proposals_Task[_ID].active);\n\n        // if the proposal has been active for a longer time than the allowed duration of a task-proposal\n        if (now.sub(proposals_Task[_ID].start) >= proposalDuration_Task) {\n            // ending of the proposal\n            end_Task(_ID);\n        }\n\n        // checks if tokenholder has already voted\n        require(!proposals_Task[_ID].voted[msg.sender]);\n\n        // registers vote\n        proposals_Task[_ID].voted[msg.sender] = true;\n\n        // if the value of _vote is false it's considered no\n        if (_vote) {\n            // registers the balance of msg.sender as a yes vote\n            proposals_Task[_ID].yes = proposals_Task[_ID].yes.add(balanceOf[msg.sender]);\n        } else {\n            // registers the balance of msg.sender as a no vote\n            proposals_Task[_ID].no = proposals_Task[_ID].no.add(balanceOf[msg.sender]);\n        }\n        // event emitted for token-holder vote\n        emit UserVote_Task(_ID, msg.sender, _vote, balanceOf[msg.sender]);\n\n    }\n\n\n    /// @notice Ending an active proposal for a development task \n    /// @param _ID The ID of the proposal\n    function end_Task(uint256 _ID) public onlyTokenHolder {\n        // the proposal has been active for a longer time than the allowed duration of a task-proposal\n        require(now.sub(proposals_Task[_ID].start) >= proposalDuration_Task);\n\n        // requires proposal to be active\n        require(proposals_Task[_ID].active);\n\n        // sets the proposal to be inactive\n        proposals_Task[_ID].active = false;\n\n        // rejects proposal if not enough people voted on it\n        // (sum of all balances that voted need is smaller than the percentage of minimum votes of the currently issued token count)\n        if (proposals_Task[_ID].no.add(proposals_Task[_ID].yes) < (minVotes_Task.mul(totalSupply))/100) {\n            // event emitted for a rejected proposal\n            emit RejectedProposal_Task(_ID, proposals_Task[_ID].description, \"Participation too low\");\n        } else {\n            // 100 percent (for calculation purposes)\n            uint256 max = 100;\n\n            // compares yes and no votes\n            if (proposals_Task[_ID].yes.mul(max.sub(ratio_Task)) >= proposals_Task[_ID].no.mul(ratio_Task)) {\n                // vote has been accepted\n                proposals_Task[_ID].accepted = true;\n                // event emitted for a successfull proposal\n                emit SuccessfulProposal_Task(_ID, proposals_Task[_ID].description, proposals_Task[_ID].value);\n                // value of the proposed task will be paid to the owner\n                payReward_Task(_ID);\n            } else {\n                 // event emitted for a rejected proposal\n                emit RejectedProposal_Task(_ID, proposals_Task[_ID].description, \"Proposal rejected by vote\");\n            }\n        }\n    }\n\n    /// @notice Sending the amount of ETH of an accepted proposal to the owner \n    /// @param _ID The ID of the proposal\n    function payReward_Task(uint256 _ID) public {\n        // proposal has to be accepted and not been rewarded\n        require(proposals_Task[_ID].accepted && !proposals_Task[_ID].rewarded);\n        // set proposal to be rewarded\n        proposals_Task[_ID].rewarded = true;\n        // send the value of the proposal to the owners address\n        owner.transfer(proposals_Task[_ID].value);\n    }\n\n    /// @return The amount of proposals (past and current)\n    function getProposalLength_Task() public view returns(uint256 length) {\n        return proposals_Task.length;\n    }\n\n    /// @param _ID The ID of the proposal\n    /// @return The name of a proposal\n    function getProposalName_Task(uint256 _ID) public view returns(string name) {\n        return proposals_Task[_ID].name;\n    }\n\n    /// @param _ID The ID of the proposal\n    /// @return The description of a proposal\n    function getProposalDescription_Task(uint256 _ID) public view returns(string description) {\n        return proposals_Task[_ID].description;\n    }\n\n    /// @param _ID The ID of the proposal\n    /// @return The value (in ETH) of a proposal\n    function getProposalValue_Task(uint256 _ID) public view returns(uint256 value) {\n        return proposals_Task[_ID].value;\n    }\n\n    /// @param _ID The ID of the proposal\n    /// @return The starting timestamp of a proposal\n    function getProposalStart_Task(uint256 _ID) public view returns(uint256 start) {\n        return proposals_Task[_ID].start;\n    }\n\n    /// @param _ID The ID of the proposal\n    /// @return The amount of tokens that voted for yes on a proposal\n    function getProposalYes_Task(uint256 _ID) public view returns(uint256 yes) {\n        return proposals_Task[_ID].yes;\n    }\n\n    /// @param _ID The ID of the proposal\n    /// @return The amount of tokens that voted for no on a proposal\n    function getProposalNo_Task(uint256 _ID) public view returns(uint256 no) {\n        return proposals_Task[_ID].no;\n    }\n\n    /// @param _ID The ID of the proposal\n    /// @return True if the proposal is still active (can be voted on), otherwise false\n    function getProposalActive_Task(uint256 _ID) public view returns(bool active) {\n        return proposals_Task[_ID].active;\n    }\n\n    /// @param _ID The ID of the proposal\n    /// @return True if the proposal has been accepted through voting, otherwise false\n    function getProposalAccepted_Task(uint256 _ID) public view returns(bool accepted) {\n        return proposals_Task[_ID].accepted;\n    }\n\n    /// @param _ID The ID of the proposal\n    /// @return True if the proposed value (in ETH) has been rewarded to the owner active, otherwise false\n    function getProposalRewarded_Task(uint256 _ID) public view returns(bool rewarded) {\n        return proposals_Task[_ID].rewarded;\n    }\n}\n\n/// @title Contract to interact between Dev- and RevTokens\n/// @author chainge.network\n/// @notice Allows DevToken-holders to swap to RevTokens\ncontract DevRev is Voting_Task {\n    // bool to see if RevToken contract address was already set\n    bool private set = false;\n\n    // the address of the RevToken contract\n    address public RevTokenAddress;\n\n    /// @notice Allows the owner of the DevToken contract to set the address of the RevToken contract once\n    /// @param _contractAddress The address of the RevToken contract\n    function setRevContract(address _contractAddress) public onlyOwner {\n        // check whether the RevToken address has already been set and the address is not 0x0\n        require(!set && _contractAddress != 0x0);\n        \n        // address has been set now\n        set = true;\n        \n        // setting the address of the \n        RevTokenAddress = _contractAddress;\n    }\n\n    /// @notice Allows the DevToken holders to swap their tokens to RevTokens\n    /// @param _tokenAmount The amount of DevTokens that will be swapped to RevTokens\n    function swap(uint256 _tokenAmount) public onlyTokenHolder {\n        // the address of the RevToken contract has to be set\n        require(set);\n\n        // subtracting the amount of swapped tokens from the DevToken balance\n        balanceOf[msg.sender] = balanceOf[msg.sender].sub(_tokenAmount);\n\n        // subtracting the amount of swapped tokens from the total issued DevTokens\n        totalSupply = totalSupply.sub(_tokenAmount);\n\n        // subtracting the amount of swapped tokens from the maximum amount of DevTokens\n        maxSupply = maxSupply.sub(_tokenAmount);\n\n        // requires the call of the corresponding swap function in the RevToken contract to execute successfully\n        require(RevToken(RevTokenAddress).swap(_tokenAmount, msg.sender));\n\n        // emitting the ERC20 Transfer event\n        emit Transfer(msg.sender, RevTokenAddress, _tokenAmount);\n    }\n\n}\n\n/// @title TO BE DONE\n/// @author chainge.network\n/// @notice TO BE DONE\ncontract KYC is DevRev {\n    ///@return the amount of tokens that are already issued\n    function shareCap() public view returns (uint256 currentShareCap) {\n        return totalSupply;\n    }\n\n}\n\n/// @title Constructing contract of the DevToken and the RevToken\n/// @author chainge.network\n/// @notice Connects the DevToken and the RevToken\n/// @dev This is the contract to be deployed; all constructur values are mandatory\ncontract DevToken is KYC {\n    /// @notice Constructor of the DevToken that is being deployed\n    /// @dev All constructur values are mandatory\n    /// @param _name Name of the token\n    /// @param _symbol Symbol of the token\n    /// @param _maxSupply Maximum number of tokens\n    /// @param _maxStake Percentage of tokens anyone can hold\n    /// @param _tokensPerEth Tokens bought per ether\n    /// @param _owners Array of owner/founder accounts\n    /// @param _balances Array of balances of the indiviual owners/founders\n    /// @param _allowanceInterval Interval of the owner allowance in seconds\n    /// @param _allowanceValue Value of the owner allowance\n    /// @param _proposalDuration_Task Duration of a proposal/vote\n    /// @param _minVotes_Task Minumum vote participation in percent to end a vote\n    /// @param _ratio_Task Ratio of the votes on a proposal that are neccessary to be accepted\n    function DevToken(\n        // arguments of the DevToken\n        string _name, string _symbol,\n        // arguments Funding\n        uint256 _maxSupply, uint256 _maxStake, uint256 _tokensPerEth, address[] _owners, uint256[] _balances,\n        // arguments OwnerAllowance\n        uint256 _allowanceInterval, uint256 _allowanceValue,\n        // arguments TaskVoting\n        uint256 _proposalDuration_Task, uint256 _minVotes_Task, uint256 _ratio_Task\n        ) public {\n\n        // constructor: Token\n        name = _name;\n        symbol = _symbol;\n        decimals = 18;\n\n        // constructor: Additional Token-Variables\n        owner = msg.sender;\n        maxSupply = _maxSupply;\n\n        // at least 1 Token should be received per ETH/Wei\n        require(_tokensPerEth > 0);\n        tokensPerEth = _tokensPerEth;\n\n        // the length of the owners array needs to be the same as their balances-array\n        require(_owners.length == _balances.length);\n\n        // loop over said arrays\n        for (uint256 i = 0; i < _owners.length; i++) {\n            // Adding the specified amount of tokens to their balances\n            balanceOf[_owners[i]] = balanceOf[_owners[i]].add(_balances[i]);\n            // Increasing the count of issued tokes accordingly\n            totalSupply = totalSupply.add(_balances[i]);\n            // emitting the ERC20-Transfer event\n            emit Transfer(address(this), _owners[i], _balances[i]);\n        }\n\n        // maximum number of tokens has to be greater than or equal to the currently issued token count\n        require(_maxSupply >= totalSupply);\n\n        // percentage of tokens anyone can hold needs to be a value from 1 to 100\n        require(_maxStake > 0 && _maxStake <= 100);        \n        maxStake = _maxStake;\n\n        // constructor: OwnerAllowance\n        allowanceTimeCounter = now;\n        allowanceInterval = _allowanceInterval;\n        allowanceValue = _allowanceValue;\n        allowanceBalance = _allowanceValue;\n\n        // constructor: TaskVoting\n        proposalDuration_Task = _proposalDuration_Task;\n        minVotes_Task = _minVotes_Task;\n        // percentage of votes neccessary to succeed with a proposal needs to be a value from 1 to 100 \n        require(_ratio_Task > 0 && _ratio_Task <= 100);\n        ratio_Task = _ratio_Task;\n    }\n}\n",
  "sourcePath": "/Users/marvinkruse/Downloads/bin/coding/seedICO/tApp/contracts/DevToken.sol",
  "compiler": {
    "name": "solc",
    "version": "0.4.21+commit.dfe3193c.Emscripten.clang"
  },
  "schemaVersion": "2.0.0",
  "updatedAt": "2018-04-14T10:05:13.799Z"
}