{
  "contractName": "OwnerAllowance",
  "abi": [
    {
      "constant": true,
      "inputs": [],
      "name": "maxInvestment",
      "outputs": [
        {
          "name": "",
          "type": "uint256"
        }
      ],
      "payable": false,
      "stateMutability": "view",
      "type": "function"
    },
    {
      "constant": true,
      "inputs": [],
      "name": "name",
      "outputs": [
        {
          "name": "",
          "type": "string"
        }
      ],
      "payable": false,
      "stateMutability": "view",
      "type": "function"
    },
    {
      "constant": true,
      "inputs": [],
      "name": "totalSupply",
      "outputs": [
        {
          "name": "",
          "type": "uint256"
        }
      ],
      "payable": false,
      "stateMutability": "view",
      "type": "function"
    },
    {
      "constant": true,
      "inputs": [],
      "name": "decimals",
      "outputs": [
        {
          "name": "",
          "type": "uint8"
        }
      ],
      "payable": false,
      "stateMutability": "view",
      "type": "function"
    },
    {
      "constant": true,
      "inputs": [],
      "name": "allowanceTimeCounter",
      "outputs": [
        {
          "name": "",
          "type": "uint256"
        }
      ],
      "payable": false,
      "stateMutability": "view",
      "type": "function"
    },
    {
      "constant": true,
      "inputs": [
        {
          "name": "",
          "type": "address"
        }
      ],
      "name": "balanceOf",
      "outputs": [
        {
          "name": "",
          "type": "uint256"
        }
      ],
      "payable": false,
      "stateMutability": "view",
      "type": "function"
    },
    {
      "constant": true,
      "inputs": [],
      "name": "owner",
      "outputs": [
        {
          "name": "",
          "type": "address"
        }
      ],
      "payable": false,
      "stateMutability": "view",
      "type": "function"
    },
    {
      "constant": true,
      "inputs": [],
      "name": "allowanceBalance",
      "outputs": [
        {
          "name": "",
          "type": "uint256"
        }
      ],
      "payable": false,
      "stateMutability": "view",
      "type": "function"
    },
    {
      "constant": true,
      "inputs": [],
      "name": "symbol",
      "outputs": [
        {
          "name": "",
          "type": "string"
        }
      ],
      "payable": false,
      "stateMutability": "view",
      "type": "function"
    },
    {
      "constant": true,
      "inputs": [],
      "name": "allowanceInterval",
      "outputs": [
        {
          "name": "",
          "type": "uint256"
        }
      ],
      "payable": false,
      "stateMutability": "view",
      "type": "function"
    },
    {
      "constant": true,
      "inputs": [],
      "name": "maxSupply",
      "outputs": [
        {
          "name": "",
          "type": "uint256"
        }
      ],
      "payable": false,
      "stateMutability": "view",
      "type": "function"
    },
    {
      "constant": true,
      "inputs": [],
      "name": "allowanceValue",
      "outputs": [
        {
          "name": "",
          "type": "uint256"
        }
      ],
      "payable": false,
      "stateMutability": "view",
      "type": "function"
    },
    {
      "constant": true,
      "inputs": [],
      "name": "maxStake",
      "outputs": [
        {
          "name": "",
          "type": "uint256"
        }
      ],
      "payable": false,
      "stateMutability": "view",
      "type": "function"
    },
    {
      "constant": true,
      "inputs": [],
      "name": "tokensPerEther",
      "outputs": [
        {
          "name": "",
          "type": "uint256"
        }
      ],
      "payable": false,
      "stateMutability": "view",
      "type": "function"
    },
    {
      "payable": true,
      "stateMutability": "payable",
      "type": "fallback"
    },
    {
      "anonymous": false,
      "inputs": [
        {
          "indexed": true,
          "name": "from",
          "type": "address"
        },
        {
          "indexed": true,
          "name": "to",
          "type": "address"
        },
        {
          "indexed": false,
          "name": "value",
          "type": "uint256"
        }
      ],
      "name": "Transfer",
      "type": "event"
    },
    {
      "constant": false,
      "inputs": [
        {
          "name": "_value",
          "type": "uint256"
        }
      ],
      "name": "allowanceWithdrawal",
      "outputs": [],
      "payable": false,
      "stateMutability": "nonpayable",
      "type": "function"
    }
  ],
  "bytecode": "0x6060604052341561000f57600080fd5b6109da8061001e6000396000f3006060604052600436106100da576000357c0100000000000000000000000000000000000000000000000000000000900463ffffffff1680622e1316146102bc57806306fdde03146102e557806318160ddd14610373578063313ce5671461039c57806348489ed0146103cb57806370a08231146103f45780638da5cb5b146104415780638f776ff11461049657806395d89b41146104bf5780639a892b451461054d578063c2c9813114610576578063d5abeb0114610599578063deb80fe8146105c2578063ea1b28e0146105eb578063f856d60514610614575b6000341115156100e957600080fd5b61014e6101016007543461063d90919063ffffffff16565b6000803373ffffffffffffffffffffffffffffffffffffffff1673ffffffffffffffffffffffffffffffffffffffff1681526020019081526020016000205461067390919063ffffffff16565b6000803373ffffffffffffffffffffffffffffffffffffffff1673ffffffffffffffffffffffffffffffffffffffff168152602001908152602001600020819055506101b96101a86007543461063d90919063ffffffff16565b60015461067390919063ffffffff16565b600181905550600554600154111515156101d257600080fd5b60646101eb60065460055461063d90919063ffffffff16565b8115156101f457fe5b046000803373ffffffffffffffffffffffffffffffffffffffff1673ffffffffffffffffffffffffffffffffffffffff168152602001908152602001600020541115151561024157600080fd5b3373ffffffffffffffffffffffffffffffffffffffff163073ffffffffffffffffffffffffffffffffffffffff167fddf252ad1be2c89b69c2b068fc378daa952ba7f163c4a11628f55a4df523b3ef6102a56007543461063d90919063ffffffff16565b6040518082815260200191505060405180910390a3005b34156102c757600080fd5b6102cf6106a0565b6040518082815260200191505060405180910390f35b34156102f057600080fd5b6102f86106ca565b6040518080602001828103825283818151815260200191508051906020019080838360005b8381101561033857808201518184015260208101905061031d565b50505050905090810190601f1680156103655780820380516001836020036101000a031916815260200191505b509250505060405180910390f35b341561037e57600080fd5b610386610768565b6040518082815260200191505060405180910390f35b34156103a757600080fd5b6103af61076e565b604051808260ff1660ff16815260200191505060405180910390f35b34156103d657600080fd5b6103de610781565b6040518082815260200191505060405180910390f35b34156103ff57600080fd5b61042b600480803573ffffffffffffffffffffffffffffffffffffffff16906020019091905050610787565b6040518082815260200191505060405180910390f35b341561044c57600080fd5b61045461079f565b604051808273ffffffffffffffffffffffffffffffffffffffff1673ffffffffffffffffffffffffffffffffffffffff16815260200191505060405180910390f35b34156104a157600080fd5b6104a96107c5565b6040518082815260200191505060405180910390f35b34156104ca57600080fd5b6104d26107cb565b6040518080602001828103825283818151815260200191508051906020019080838360005b838110156105125780820151818401526020810190506104f7565b50505050905090810190601f16801561053f5780820380516001836020036101000a031916815260200191505b509250505060405180910390f35b341561055857600080fd5b610560610869565b6040518082815260200191505060405180910390f35b341561058157600080fd5b610597600480803590602001909190505061086f565b005b34156105a457600080fd5b6105ac61097a565b6040518082815260200191505060405180910390f35b34156105cd57600080fd5b6105d5610980565b6040518082815260200191505060405180910390f35b34156105f657600080fd5b6105fe610986565b6040518082815260200191505060405180910390f35b341561061f57600080fd5b61062761098c565b6040518082815260200191505060405180910390f35b6000808284029050600084148061065e575082848281151561065b57fe5b04145b151561066957600080fd5b8091505092915050565b600080828401905083811015801561068b5750828110155b151561069657600080fd5b8091505092915050565b600060646106bb60065460015461063d90919063ffffffff16565b8115156106c457fe5b04905090565b60028054600181600116156101000203166002900480601f0160208091040260200160405190810160405280929190818152602001828054600181600116156101000203166002900480156107605780601f1061073557610100808354040283529160200191610760565b820191906000526020600020905b81548152906001019060200180831161074357829003601f168201915b505050505081565b60015481565b600460009054906101000a900460ff1681565b60085481565b60006020528060005260406000206000915090505481565b600460019054906101000a900473ffffffffffffffffffffffffffffffffffffffff1681565b600b5481565b60038054600181600116156101000203166002900480601f0160208091040260200160405190810160405280929190818152602001828054600181600116156101000203166002900480156108615780601f1061083657610100808354040283529160200191610861565b820191906000526020600020905b81548152906001019060200180831161084457829003601f168201915b505050505081565b60095481565b600460019054906101000a900473ffffffffffffffffffffffffffffffffffffffff1673ffffffffffffffffffffffffffffffffffffffff163373ffffffffffffffffffffffffffffffffffffffff161415156108cb57600080fd5b6009546108e36008544261099290919063ffffffff16565b11156108fa57600a54600b81905550426008819055505b61090f81600b5461099290919063ffffffff16565b600b81905550600460019054906101000a900473ffffffffffffffffffffffffffffffffffffffff1673ffffffffffffffffffffffffffffffffffffffff166108fc829081150290604051600060405180830381858888f19350505050151561097757600080fd5b50565b60055481565b600a5481565b60065481565b60075481565b60008282111515156109a357600080fd5b8183039050929150505600a165627a7a72305820551dcb4ff5498a9a5d6260b56a3d5d1135cea9563dd6598b9f29b8dbc26a07d20029",
  "source": "pragma solidity 0.4.21;\n\ninterface RevToken {\n    function swap(uint256 _tokenAmount, address _tokenHolder) external returns(bool success);\n}\n\n// Safe Math library that automatically checks for overflows and underflows\nlibrary SafeMath {\n    // Safe multiplication\n    function mul(uint256 a, uint256 b) internal pure returns (uint256) {\n        uint256 c = a * b;\n        require(a == 0 || c / a == b);\n        return c;\n    }\n    // Safe subtraction\n    function sub(uint256 a, uint256 b) internal pure returns (uint256) {\n        require(b <= a);\n        return a - b;\n    }\n    // Safe addition\n    function add(uint256 a, uint256 b) internal pure returns (uint256) {\n        uint256 c = a + b;\n        require(c>=a && c>=b);\n        return c;\n    }\n}\n\n// Basic ERC20 functions\ncontract Token {\n\n    using SafeMath for uint256;\n\n    event Transfer(address indexed from, address indexed to, uint256 value);\n\n    // mapping of all balances\n    mapping (address => uint256) public balanceOf;\n    // The total supply of the token\n    uint256 public totalSupply;\n\n    // Some variables for nice wallet integration\n    string public name;          // name of token\n    string public symbol;        // symbol of token\n    uint8 public decimals;       // decimals of token\n}\n\ncontract Owned is Token {\n    // address of the developers\n    address public owner;\n    // modifiers: only allows Owner/Pool/Contract to call certain functions\n    modifier onlyOwner {\n        require(msg.sender == owner);\n        _;\n    }\n    modifier onlyTokenHolder {\n        require(balanceOf[msg.sender] > 0);\n        _;\n    }\n}\n\n// DevToken functions which are active during development phase\ncontract Funding is Owned {\n\n    // maximum supply of the token\n    uint256 public maxSupply;\n    // maximum stake someone can have of all tokens (in percent)\n    uint256 public maxStake;\n    // tokens that are being sold per ether\n    uint256 public tokensPerEther;\n\n    // lock ETH in contract and return DevTokens\n    function () public payable {\n        require(msg.value > 0);\n        // adds the amount of ETH sent as DevToken value and increases total supply\n        balanceOf[msg.sender] = balanceOf[msg.sender].add(msg.value.mul(tokensPerEther));\n        totalSupply = totalSupply.add(msg.value.mul(tokensPerEther));\n\n        // fails if total supply surpasses maximum supply\n        require(totalSupply <= maxSupply);\n        // user cannot deposit more than \"maxStake\"% of the total supply\n        require(balanceOf[msg.sender] <= maxSupply.mul(maxStake)/100);\n\n        // transfer event\n        emit Transfer(address(this), msg.sender, msg.value.mul(tokensPerEther));\n    }\n\n    // constant function: return maximum possible investment per person\n    function maxInvestment() public view returns(uint256) {\n        return totalSupply.mul(maxStake)/100;\n    }\n}\n\ncontract OwnerAllowance is Funding {\n    // time since last use of allowance\n    uint256 public allowanceTimeCounter;\n    // interval how often allowance is reset\n    uint256 public allowanceInterval;\n    // allowance amount per interval\n    uint256 public allowanceValue;\n    // current allowance balance\n    uint256 public allowanceBalance;\n\n    // allows owner to withdraw ether in an interval\n    function allowanceWithdrawal(uint256 _value) public onlyOwner {\n        if (now.sub(allowanceTimeCounter) > allowanceInterval) {\n            allowanceBalance = allowanceValue;\n            allowanceTimeCounter = now;\n        }\n        allowanceBalance = allowanceBalance.sub(_value);\n        owner.transfer(_value);\n    }\n}\n\n// task voting implementation\ncontract Voting_Task is OwnerAllowance {\n\n    mapping(address => uint256) lastProposal_Task;\n    uint256 proposalDuration_Task;\n    uint256 minVotes_Task;\n\n    event ProposalCreation_Task(uint256 indexed ID, string indexed description);\n    event UserVote_Task(uint256 indexed ID, address indexed user, bool indexed value);\n    event SuccessfulProposal_Task(uint256 indexed ID, string indexed description, uint256 indexed value);\n    event RejectedProposal_Task(uint256 indexed ID, string indexed description, string indexed reason);\n\n    struct Proposal_Task {\n        uint256 ID;\n        string name;\n        string description;\n        // (optional) amount of ETH-reward for development tasks\n        uint256 value;\n        uint256 start;\n        uint256 yes;\n        uint256 no;\n        mapping(address => bool) voted;\n        bool active;\n        bool accepted;\n        // (optional) bool if proposal was rewarded\n        bool rewarded;\n    }\n\n    // array of polls\n    Proposal_Task[] public proposals_Task;\n\n    function propose(string _name, string _description, uint256 _value) public onlyTokenHolder {\n\n        require(_value > address(this).balance);\n        // allows one proposal per week and resets value after successful proposal\n        require(now.sub(lastProposal_Task[msg.sender]) > proposalDuration_Task);\n        lastProposal_Task[msg.sender] = now;\n\n        // saves ID of proposal which is equal to the array index\n        uint256 ID = proposals_Task.length;\n\n        // initializes new proposal as a struct and pushes it into the proposal array\n        proposals_Task.push(Proposal_Task({ID: ID, name: _name, description: _description, value: _value, start: now, yes: 0, no: 0, active: true, accepted: false, rewarded: false}));\n\n        // event generated for proposal creation\n        emit ProposalCreation_Task(ID, _description);\n\n    }\n\n    // vote on a development task\n    function vote(uint256 _ID, bool _vote) public onlyTokenHolder {\n\n        // proposal has to be active\n        require(proposals_Task[_ID].active);\n\n        // proposal has to be active less than one week\n        if (now.sub(proposals_Task[_ID].start) >= proposalDuration_Task) {\n            end(_ID);\n        }\n\n        // checks if tokenholder has already voted\n        require(!proposals_Task[_ID].voted[msg.sender]);\n        // registers vote\n        proposals_Task[_ID].voted[msg.sender] = true;\n\n        // if the value is 0 it's considered no\n        if (_vote) {\n            // registers the balance of msg.sender as a yes vote\n            proposals_Task[_ID].yes = proposals_Task[_ID].yes.add(balanceOf[msg.sender]);\n        } else {\n            // registers the balance of msg.sender as a no vote\n            proposals_Task[_ID].no = proposals_Task[_ID].no.add(balanceOf[msg.sender]);\n        }\n        // event generated for tokenholder vote\n        emit UserVote_Task(_ID, msg.sender, _vote);\n\n    }\n\n\n    // end voting for a development task\n    function end(uint256 _ID) public onlyTokenHolder {\n\n        // requires proposal to be running for a week\n        require(now.sub(proposals_Task[_ID].start) >= proposalDuration_Task);\n\n        // requires proposal to be active\n        require(proposals_Task[_ID].active);\n        proposals_Task[_ID].active = false;\n\n        // rejects proposal if not enough people voted on it\n        if (proposals_Task[_ID].no.add(proposals_Task[_ID].yes) < (minVotes_Task.mul(totalSupply))/100) {\n            // event generation\n            emit RejectedProposal_Task(_ID, proposals_Task[_ID].description, \"Participation too low\");\n\n        // compares yes and no votes\n        } else if (proposals_Task[_ID].yes > proposals_Task[_ID].no) {\n            proposals_Task[_ID].accepted = true;\n            // event generation\n            emit SuccessfulProposal_Task(_ID, proposals_Task[_ID].description, proposals_Task[_ID].value);\n\n        } else {\n            // event generation\n            emit RejectedProposal_Task(_ID, proposals_Task[_ID].description, \"Proposal rejected by vote\");\n        }\n\n    }\n\n    function getProposalLength() public view returns(uint256 length) {\n        return proposals_Task.length;\n    }\n\n    function getProposalName(uint256 _ID) public view returns(string name) {\n        return proposals_Task[_ID].name;\n    }\n\n    function getProposalDescription(uint256 _ID) public view returns(string description) {\n        return proposals_Task[_ID].description;\n    }\n\n    function getProposalValue(uint256 _ID) public view returns(uint256 value) {\n        return proposals_Task[_ID].value;\n    }\n\n    function getProposalStart(uint256 _ID) public view returns(uint256 start) {\n        return proposals_Task[_ID].start;\n    }\n\n    function getProposalYes(uint256 _ID) public view returns(uint256 yes) {\n        return proposals_Task[_ID].yes;\n    }\n\n    function getProposalNo(uint256 _ID) public view returns(uint256 no) {\n        return proposals_Task[_ID].no;\n    }\n\n    function getProposalActive(uint256 _ID) public view returns(bool active) {\n        return proposals_Task[_ID].active;\n    }\n\n    function getProposalAccepted(uint256 _ID) public view returns(bool accepted) {\n        return proposals_Task[_ID].accepted;\n    }\n\n    function getProposalRewarded(uint256 _ID) public view returns(bool rewarded) {\n        return proposals_Task[_ID].rewarded;\n    }\n}\n\ncontract DevRev is Voting_Task {\n    // bool to see if RevToken was set\n    bool private set = false;\n    address public RevTokenAddress;\n\n    function setRevContract(address _contractAddress) public onlyOwner {\n        require(!set && _contractAddress != 0x0);\n        set = true;\n        RevTokenAddress = _contractAddress;\n    }\n\n    function swap(uint256 _tokenAmount) public onlyTokenHolder {\n        require(set);\n        balanceOf[msg.sender] = balanceOf[msg.sender].sub(_tokenAmount);\n        totalSupply = totalSupply.sub(_tokenAmount);\n        maxSupply = maxSupply.sub(_tokenAmount);\n        require(RevToken(RevTokenAddress).swap(_tokenAmount, msg.sender));\n        emit Transfer(msg.sender, RevTokenAddress, _tokenAmount);\n    }\n\n}\n\n// DevRevToken combines DevToken and RevToken into one token\ncontract DevToken is DevRev {\n    function DevToken(\n        // arguments Token\n        string _name, string _symbol,\n        // arguments Funding\n        uint256 _maxSupply, uint256 _maxStake, uint256 _tokensPerEther, address[] _owners, uint256[] _balances,\n        // arguments OwnerAllowance\n        uint256 _allowanceInterval, uint256 _allowanceValue,\n        // arguments TaskVoting\n        uint256 _proposalDuration_Task, uint256 _minVotes_Task\n        ) public {\n\n        // constructor Token\n        name = _name;\n        symbol = _symbol;\n        decimals = 18;\n        // constructor Funding\n        owner = msg.sender;\n        maxSupply = _maxSupply;\n        tokensPerEther = _tokensPerEther;\n        require(_owners.length == _balances.length);\n        for (uint256 i = 0; i < _owners.length; i++) {\n            balanceOf[_owners[i]] = balanceOf[_owners[i]].add(_balances[i]);\n            totalSupply = totalSupply.add(_balances[i]);\n            emit Transfer(address(this), _owners[i], _balances[i]);\n        }\n        require(_maxSupply >= totalSupply);\n        maxStake = _maxStake;\n        // constructor OwnerAllowance\n        allowanceTimeCounter = now;\n        allowanceInterval = _allowanceInterval;\n        allowanceValue = _allowanceValue;\n        allowanceBalance = _allowanceValue;\n        // constructor TaskVoting\n        proposalDuration_Task = _proposalDuration_Task;\n        minVotes_Task = _minVotes_Task;\n    }\n}\n",
  "sourcePath": "/Users/gretzke/Documents/Projekte/InnoChain/Chainge/git/tApp/contracts/DevToken.sol",
  "compiler": {
    "name": "solc",
    "version": "0.4.21+commit.dfe3193c.Emscripten.clang"
  },
  "schemaVersion": "2.0.0",
  "updatedAt": "2018-04-11T08:58:30.438Z"
}