{
  "contractName": "RevSale",
  "abi": [
    {
      "constant": true,
      "inputs": [],
      "name": "name",
      "outputs": [
        {
          "name": "",
          "type": "string"
        }
      ],
      "payable": false,
      "stateMutability": "view",
      "type": "function"
    },
    {
      "constant": false,
      "inputs": [
        {
          "name": "_spender",
          "type": "address"
        },
        {
          "name": "_value",
          "type": "uint256"
        }
      ],
      "name": "approve",
      "outputs": [
        {
          "name": "success",
          "type": "bool"
        }
      ],
      "payable": false,
      "stateMutability": "nonpayable",
      "type": "function"
    },
    {
      "constant": true,
      "inputs": [],
      "name": "totalSupply",
      "outputs": [
        {
          "name": "",
          "type": "uint256"
        }
      ],
      "payable": false,
      "stateMutability": "view",
      "type": "function"
    },
    {
      "constant": false,
      "inputs": [
        {
          "name": "_from",
          "type": "address"
        },
        {
          "name": "_to",
          "type": "address"
        },
        {
          "name": "_value",
          "type": "uint256"
        }
      ],
      "name": "transferFrom",
      "outputs": [
        {
          "name": "success",
          "type": "bool"
        }
      ],
      "payable": false,
      "stateMutability": "nonpayable",
      "type": "function"
    },
    {
      "constant": true,
      "inputs": [],
      "name": "decimals",
      "outputs": [
        {
          "name": "",
          "type": "uint8"
        }
      ],
      "payable": false,
      "stateMutability": "view",
      "type": "function"
    },
    {
      "constant": false,
      "inputs": [
        {
          "name": "_spender",
          "type": "address"
        },
        {
          "name": "_subtractedValue",
          "type": "uint256"
        }
      ],
      "name": "decreaseApproval",
      "outputs": [
        {
          "name": "success",
          "type": "bool"
        }
      ],
      "payable": false,
      "stateMutability": "nonpayable",
      "type": "function"
    },
    {
      "constant": true,
      "inputs": [
        {
          "name": "",
          "type": "address"
        }
      ],
      "name": "balanceOf",
      "outputs": [
        {
          "name": "",
          "type": "uint256"
        }
      ],
      "payable": false,
      "stateMutability": "view",
      "type": "function"
    },
    {
      "constant": true,
      "inputs": [],
      "name": "DevTokenAddress",
      "outputs": [
        {
          "name": "",
          "type": "address"
        }
      ],
      "payable": false,
      "stateMutability": "view",
      "type": "function"
    },
    {
      "constant": true,
      "inputs": [],
      "name": "owner",
      "outputs": [
        {
          "name": "",
          "type": "address"
        }
      ],
      "payable": false,
      "stateMutability": "view",
      "type": "function"
    },
    {
      "constant": true,
      "inputs": [],
      "name": "enterprise",
      "outputs": [
        {
          "name": "",
          "type": "address"
        }
      ],
      "payable": false,
      "stateMutability": "view",
      "type": "function"
    },
    {
      "constant": true,
      "inputs": [],
      "name": "symbol",
      "outputs": [
        {
          "name": "",
          "type": "string"
        }
      ],
      "payable": false,
      "stateMutability": "view",
      "type": "function"
    },
    {
      "constant": false,
      "inputs": [
        {
          "name": "_to",
          "type": "address"
        },
        {
          "name": "_value",
          "type": "uint256"
        }
      ],
      "name": "transfer",
      "outputs": [
        {
          "name": "success",
          "type": "bool"
        }
      ],
      "payable": false,
      "stateMutability": "nonpayable",
      "type": "function"
    },
    {
      "constant": true,
      "inputs": [
        {
          "name": "",
          "type": "uint256"
        }
      ],
      "name": "revSaleOffers",
      "outputs": [
        {
          "name": "ID",
          "type": "uint256"
        },
        {
          "name": "seller",
          "type": "address"
        },
        {
          "name": "amount",
          "type": "uint256"
        },
        {
          "name": "price",
          "type": "uint256"
        },
        {
          "name": "receiver",
          "type": "address"
        }
      ],
      "payable": false,
      "stateMutability": "view",
      "type": "function"
    },
    {
      "constant": false,
      "inputs": [
        {
          "name": "_tokenAmount",
          "type": "uint256"
        },
        {
          "name": "_tokenHolder",
          "type": "address"
        }
      ],
      "name": "swap",
      "outputs": [
        {
          "name": "success",
          "type": "bool"
        }
      ],
      "payable": false,
      "stateMutability": "nonpayable",
      "type": "function"
    },
    {
      "constant": false,
      "inputs": [
        {
          "name": "_spender",
          "type": "address"
        },
        {
          "name": "_addedValue",
          "type": "uint256"
        }
      ],
      "name": "increaseApproval",
      "outputs": [
        {
          "name": "success",
          "type": "bool"
        }
      ],
      "payable": false,
      "stateMutability": "nonpayable",
      "type": "function"
    },
    {
      "constant": true,
      "inputs": [
        {
          "name": "",
          "type": "address"
        },
        {
          "name": "",
          "type": "address"
        }
      ],
      "name": "allowance",
      "outputs": [
        {
          "name": "",
          "type": "uint256"
        }
      ],
      "payable": false,
      "stateMutability": "view",
      "type": "function"
    },
    {
      "inputs": [
        {
          "name": "_name",
          "type": "string"
        },
        {
          "name": "_symbol",
          "type": "string"
        },
        {
          "name": "_DevTokenAddress",
          "type": "address"
        }
      ],
      "payable": false,
      "stateMutability": "nonpayable",
      "type": "constructor"
    },
    {
      "anonymous": false,
      "inputs": [
        {
          "indexed": true,
          "name": "from",
          "type": "address"
        },
        {
          "indexed": true,
          "name": "to",
          "type": "address"
        },
        {
          "indexed": false,
          "name": "value",
          "type": "uint256"
        }
      ],
      "name": "Transfer",
      "type": "event"
    },
    {
      "anonymous": false,
      "inputs": [
        {
          "indexed": true,
          "name": "_owner",
          "type": "address"
        },
        {
          "indexed": true,
          "name": "_spender",
          "type": "address"
        },
        {
          "indexed": false,
          "name": "_value",
          "type": "uint256"
        }
      ],
      "name": "Approval",
      "type": "event"
    },
    {
      "constant": false,
      "inputs": [
        {
          "name": "_amount",
          "type": "uint256"
        },
        {
          "name": "_price",
          "type": "uint256"
        },
        {
          "name": "_receiver",
          "type": "address"
        }
      ],
      "name": "addOffer",
      "outputs": [],
      "payable": false,
      "stateMutability": "nonpayable",
      "type": "function"
    },
    {
      "constant": false,
      "inputs": [
        {
          "name": "_id",
          "type": "uint256"
        }
      ],
      "name": "deleteOffer",
      "outputs": [],
      "payable": false,
      "stateMutability": "nonpayable",
      "type": "function"
    },
    {
      "constant": false,
      "inputs": [
        {
          "name": "_id",
          "type": "uint256"
        }
      ],
      "name": "buyOffer",
      "outputs": [],
      "payable": true,
      "stateMutability": "payable",
      "type": "function"
    }
  ],
  "bytecode": "0x606060405273deb80077101d919b6ad1e004cff36203a0f0ce60600160006101000a81548173ffffffffffffffffffffffffffffffffffffffff021916908373ffffffffffffffffffffffffffffffffffffffff16021790555034156200006557600080fd5b6040516200227b3803806200227b83398101604052808051820191906020018051820191906020018051906020019091905050336000806101000a81548173ffffffffffffffffffffffffffffffffffffffff021916908373ffffffffffffffffffffffffffffffffffffffff1602179055508260059080519060200190620000f092919062000197565b5081600690805190602001906200010992919062000197565b506012600760006101000a81548160ff021916908360ff16021790555060008173ffffffffffffffffffffffffffffffffffffffff16141515156200014d57600080fd5b80600760016101000a81548173ffffffffffffffffffffffffffffffffffffffff021916908373ffffffffffffffffffffffffffffffffffffffff16021790555050505062000246565b828054600181600116156101000203166002900490600052602060002090601f016020900481019282601f10620001da57805160ff19168380011785556200020b565b828001600101855582156200020b579182015b828111156200020a578251825591602001919060010190620001ed565b5b5090506200021a91906200021e565b5090565b6200024391905b808211156200023f57600081600090555060010162000225565b5090565b90565b61202580620002566000396000f300606060405260043610610107576000357c0100000000000000000000000000000000000000000000000000000000900463ffffffff16806306fdde031461010c578063095ea7b31461019a57806318160ddd146101f457806323b872dd1461021d578063313ce5671461029657806366188463146102c557806370a082311461031f57806374268ff21461036c5780638ac15d171461038f5780638da5cb5b146103e45780639478a8c01461043957806394d9b8a41461048e57806395d89b41146104d95780639ecce70014610567578063a9059cbb1461057f578063d25450cc146105d9578063d3986f0814610684578063d73dd623146106de578063dd62ed3e14610738575b600080fd5b341561011757600080fd5b61011f6107a4565b6040518080602001828103825283818151815260200191508051906020019080838360005b8381101561015f578082015181840152602081019050610144565b50505050905090810190601f16801561018c5780820380516001836020036101000a031916815260200191505b509250505060405180910390f35b34156101a557600080fd5b6101da600480803573ffffffffffffffffffffffffffffffffffffffff16906020019091908035906020019091905050610842565b604051808215151515815260200191505060405180910390f35b34156101ff57600080fd5b610207610934565b6040518082815260200191505060405180910390f35b341561022857600080fd5b61027c600480803573ffffffffffffffffffffffffffffffffffffffff1690602001909190803573ffffffffffffffffffffffffffffffffffffffff1690602001909190803590602001909190505061093a565b604051808215151515815260200191505060405180910390f35b34156102a157600080fd5b6102a9610c0a565b604051808260ff1660ff16815260200191505060405180910390f35b34156102d057600080fd5b610305600480803573ffffffffffffffffffffffffffffffffffffffff16906020019091908035906020019091905050610c1d565b604051808215151515815260200191505060405180910390f35b341561032a57600080fd5b610356600480803573ffffffffffffffffffffffffffffffffffffffff16906020019091905050610eae565b6040518082815260200191505060405180910390f35b341561037757600080fd5b61038d6004808035906020019091905050610ec6565b005b341561039a57600080fd5b6103a2610fc9565b604051808273ffffffffffffffffffffffffffffffffffffffff1673ffffffffffffffffffffffffffffffffffffffff16815260200191505060405180910390f35b34156103ef57600080fd5b6103f7610fef565b604051808273ffffffffffffffffffffffffffffffffffffffff1673ffffffffffffffffffffffffffffffffffffffff16815260200191505060405180910390f35b341561044457600080fd5b61044c611014565b604051808273ffffffffffffffffffffffffffffffffffffffff1673ffffffffffffffffffffffffffffffffffffffff16815260200191505060405180910390f35b341561049957600080fd5b6104d7600480803590602001909190803590602001909190803573ffffffffffffffffffffffffffffffffffffffff1690602001909190505061103a565b005b34156104e457600080fd5b6104ec6111c3565b6040518080602001828103825283818151815260200191508051906020019080838360005b8381101561052c578082015181840152602081019050610511565b50505050905090810190601f1680156105595780820380516001836020036101000a031916815260200191505b509250505060405180910390f35b61057d6004808035906020019091905050611261565b005b341561058a57600080fd5b6105bf600480803573ffffffffffffffffffffffffffffffffffffffff169060200190919080359060200190919050506117f0565b604051808215151515815260200191505060405180910390f35b34156105e457600080fd5b6105fa60048080359060200190919050506119b0565b604051808681526020018573ffffffffffffffffffffffffffffffffffffffff1673ffffffffffffffffffffffffffffffffffffffff1681526020018481526020018381526020018273ffffffffffffffffffffffffffffffffffffffff1673ffffffffffffffffffffffffffffffffffffffff1681526020019550505050505060405180910390f35b341561068f57600080fd5b6106c4600480803590602001909190803573ffffffffffffffffffffffffffffffffffffffff16906020019091905050611a35565b604051808215151515815260200191505060405180910390f35b34156106e957600080fd5b61071e600480803573ffffffffffffffffffffffffffffffffffffffff16906020019091908035906020019091905050611ca2565b604051808215151515815260200191505060405180910390f35b341561074357600080fd5b61078e600480803573ffffffffffffffffffffffffffffffffffffffff1690602001909190803573ffffffffffffffffffffffffffffffffffffffff16906020019091905050611e9e565b6040518082815260200191505060405180910390f35b60058054600181600116156101000203166002900480601f01602080910402602001604051908101604052809291908181526020018280546001816001161561010002031660029004801561083a5780601f1061080f5761010080835404028352916020019161083a565b820191906000526020600020905b81548152906001019060200180831161081d57829003601f168201915b505050505081565b600081600360003373ffffffffffffffffffffffffffffffffffffffff1673ffffffffffffffffffffffffffffffffffffffff16815260200190815260200160002060008573ffffffffffffffffffffffffffffffffffffffff1673ffffffffffffffffffffffffffffffffffffffff168152602001908152602001600020819055508273ffffffffffffffffffffffffffffffffffffffff163373ffffffffffffffffffffffffffffffffffffffff167f8c5be1e5ebec7d5bd14f71427d1e84f3dd0314c0f7b2291e5b200ac8c7c3b925846040518082815260200191505060405180910390a36001905092915050565b60045481565b6000808373ffffffffffffffffffffffffffffffffffffffff161415151561096157600080fd5b6109b382600260008673ffffffffffffffffffffffffffffffffffffffff1673ffffffffffffffffffffffffffffffffffffffff16815260200190815260200160002054611ec390919063ffffffff16565b600260008573ffffffffffffffffffffffffffffffffffffffff1673ffffffffffffffffffffffffffffffffffffffff16815260200190815260200160002081905550610a4882600260008773ffffffffffffffffffffffffffffffffffffffff1673ffffffffffffffffffffffffffffffffffffffff16815260200190815260200160002054611ef090919063ffffffff16565b600260008673ffffffffffffffffffffffffffffffffffffffff1673ffffffffffffffffffffffffffffffffffffffff16815260200190815260200160002081905550610b1a82600360008773ffffffffffffffffffffffffffffffffffffffff1673ffffffffffffffffffffffffffffffffffffffff16815260200190815260200160002060003373ffffffffffffffffffffffffffffffffffffffff1673ffffffffffffffffffffffffffffffffffffffff16815260200190815260200160002054611ef090919063ffffffff16565b600360008673ffffffffffffffffffffffffffffffffffffffff1673ffffffffffffffffffffffffffffffffffffffff16815260200190815260200160002060003373ffffffffffffffffffffffffffffffffffffffff1673ffffffffffffffffffffffffffffffffffffffff168152602001908152602001600020819055508273ffffffffffffffffffffffffffffffffffffffff168473ffffffffffffffffffffffffffffffffffffffff167fddf252ad1be2c89b69c2b068fc378daa952ba7f163c4a11628f55a4df523b3ef846040518082815260200191505060405180910390a3600190509392505050565b600760009054906101000a900460ff1681565b600080600360003373ffffffffffffffffffffffffffffffffffffffff1673ffffffffffffffffffffffffffffffffffffffff16815260200190815260200160002060008573ffffffffffffffffffffffffffffffffffffffff1673ffffffffffffffffffffffffffffffffffffffff16815260200190815260200160002054905080831115610d2e576000600360003373ffffffffffffffffffffffffffffffffffffffff1673ffffffffffffffffffffffffffffffffffffffff16815260200190815260200160002060008673ffffffffffffffffffffffffffffffffffffffff1673ffffffffffffffffffffffffffffffffffffffff16815260200190815260200160002081905550610dc2565b610d418382611ef090919063ffffffff16565b600360003373ffffffffffffffffffffffffffffffffffffffff1673ffffffffffffffffffffffffffffffffffffffff16815260200190815260200160002060008673ffffffffffffffffffffffffffffffffffffffff1673ffffffffffffffffffffffffffffffffffffffff168152602001908152602001600020819055505b8373ffffffffffffffffffffffffffffffffffffffff163373ffffffffffffffffffffffffffffffffffffffff167f8c5be1e5ebec7d5bd14f71427d1e84f3dd0314c0f7b2291e5b200ac8c7c3b925600360003373ffffffffffffffffffffffffffffffffffffffff1673ffffffffffffffffffffffffffffffffffffffff16815260200190815260200160002060008873ffffffffffffffffffffffffffffffffffffffff1673ffffffffffffffffffffffffffffffffffffffff168152602001908152602001600020546040518082815260200191505060405180910390a3600191505092915050565b60026020528060005260406000206000915090505481565b3373ffffffffffffffffffffffffffffffffffffffff16600882815481101515610eec57fe5b906000526020600020906005020160010160009054906101000a900473ffffffffffffffffffffffffffffffffffffffff1673ffffffffffffffffffffffffffffffffffffffff16141515610f4057600080fd5b600881815481101515610f4f57fe5b90600052602060002090600502016000808201600090556001820160006101000a81549073ffffffffffffffffffffffffffffffffffffffff0219169055600282016000905560038201600090556004820160006101000a81549073ffffffffffffffffffffffffffffffffffffffff0219169055505050565b600760019054906101000a900473ffffffffffffffffffffffffffffffffffffffff1681565b6000809054906101000a900473ffffffffffffffffffffffffffffffffffffffff1681565b600160009054906101000a900473ffffffffffffffffffffffffffffffffffffffff1681565b600080600260003373ffffffffffffffffffffffffffffffffffffffff1673ffffffffffffffffffffffffffffffffffffffff1681526020019081526020016000205411151561108957600080fd5b6008805490509050600880548060010182816110a59190611f42565b9160005260206000209060050201600060a0604051908101604052808581526020013373ffffffffffffffffffffffffffffffffffffffff1681526020018881526020018781526020018673ffffffffffffffffffffffffffffffffffffffff1681525090919091506000820151816000015560208201518160010160006101000a81548173ffffffffffffffffffffffffffffffffffffffff021916908373ffffffffffffffffffffffffffffffffffffffff160217905550604082015181600201556060820151816003015560808201518160040160006101000a81548173ffffffffffffffffffffffffffffffffffffffff021916908373ffffffffffffffffffffffffffffffffffffffff16021790555050505050505050565b60068054600181600116156101000203166002900480601f0160208091040260200160405190810160405280929190818152602001828054600181600116156101000203166002900480156112595780601f1061122e57610100808354040283529160200191611259565b820191906000526020600020905b81548152906001019060200180831161123c57829003601f168201915b505050505081565b60088181548110151561127057fe5b9060005260206000209060050201600201546002600060088481548110151561129557fe5b906000526020600020906005020160010160009054906101000a900473ffffffffffffffffffffffffffffffffffffffff1673ffffffffffffffffffffffffffffffffffffffff1673ffffffffffffffffffffffffffffffffffffffff168152602001908152602001600020541015151561130f57600080fd5b60088181548110151561131e57fe5b9060005260206000209060050201600301543414151561133d57600080fd5b600060088281548110151561134e57fe5b906000526020600020906005020160040160009054906101000a900473ffffffffffffffffffffffffffffffffffffffff1673ffffffffffffffffffffffffffffffffffffffff16141515611418573373ffffffffffffffffffffffffffffffffffffffff166008828154811015156113c357fe5b906000526020600020906005020160040160009054906101000a900473ffffffffffffffffffffffffffffffffffffffff1673ffffffffffffffffffffffffffffffffffffffff1614151561141757600080fd5b5b6114ca60088281548110151561142a57fe5b9060005260206000209060050201600201546002600060088581548110151561144f57fe5b906000526020600020906005020160010160009054906101000a900473ffffffffffffffffffffffffffffffffffffffff1673ffffffffffffffffffffffffffffffffffffffff1673ffffffffffffffffffffffffffffffffffffffff16815260200190815260200160002054611ef090919063ffffffff16565b600260006008848154811015156114dd57fe5b906000526020600020906005020160010160009054906101000a900473ffffffffffffffffffffffffffffffffffffffff1673ffffffffffffffffffffffffffffffffffffffff1673ffffffffffffffffffffffffffffffffffffffff168152602001908152602001600020819055506115bf60088281548110151561155f57fe5b906000526020600020906005020160020154600260003373ffffffffffffffffffffffffffffffffffffffff1673ffffffffffffffffffffffffffffffffffffffff16815260200190815260200160002054611ec390919063ffffffff16565b600260003373ffffffffffffffffffffffffffffffffffffffff1673ffffffffffffffffffffffffffffffffffffffff168152602001908152602001600020819055503373ffffffffffffffffffffffffffffffffffffffff1660088281548110151561162857fe5b906000526020600020906005020160010160009054906101000a900473ffffffffffffffffffffffffffffffffffffffff1673ffffffffffffffffffffffffffffffffffffffff167fddf252ad1be2c89b69c2b068fc378daa952ba7f163c4a11628f55a4df523b3ef6008848154811015156116a057fe5b9060005260206000209060050201600201546040518082815260200191505060405180910390a36008818154811015156116d657fe5b906000526020600020906005020160010160009054906101000a900473ffffffffffffffffffffffffffffffffffffffff1673ffffffffffffffffffffffffffffffffffffffff166108fc60088381548110151561173057fe5b9060005260206000209060050201600301549081150290604051600060405180830381858888f19350505050151561176757600080fd5b60088181548110151561177657fe5b90600052602060002090600502016000808201600090556001820160006101000a81549073ffffffffffffffffffffffffffffffffffffffff0219169055600282016000905560038201600090556004820160006101000a81549073ffffffffffffffffffffffffffffffffffffffff0219169055505050565b6000808373ffffffffffffffffffffffffffffffffffffffff161415151561181757600080fd5b61186982600260003373ffffffffffffffffffffffffffffffffffffffff1673ffffffffffffffffffffffffffffffffffffffff16815260200190815260200160002054611ef090919063ffffffff16565b600260003373ffffffffffffffffffffffffffffffffffffffff1673ffffffffffffffffffffffffffffffffffffffff168152602001908152602001600020819055506118fe82600260008673ffffffffffffffffffffffffffffffffffffffff1673ffffffffffffffffffffffffffffffffffffffff16815260200190815260200160002054611ec390919063ffffffff16565b600260008573ffffffffffffffffffffffffffffffffffffffff1673ffffffffffffffffffffffffffffffffffffffff168152602001908152602001600020819055508273ffffffffffffffffffffffffffffffffffffffff163373ffffffffffffffffffffffffffffffffffffffff167fddf252ad1be2c89b69c2b068fc378daa952ba7f163c4a11628f55a4df523b3ef846040518082815260200191505060405180910390a36001905092915050565b6008818154811015156119bf57fe5b90600052602060002090600502016000915090508060000154908060010160009054906101000a900473ffffffffffffffffffffffffffffffffffffffff16908060020154908060030154908060040160009054906101000a900473ffffffffffffffffffffffffffffffffffffffff16905085565b600080600760019054906101000a900473ffffffffffffffffffffffffffffffffffffffff1673ffffffffffffffffffffffffffffffffffffffff163373ffffffffffffffffffffffffffffffffffffffff16141515611a9457600080fd5b611ae684600260008673ffffffffffffffffffffffffffffffffffffffff1673ffffffffffffffffffffffffffffffffffffffff16815260200190815260200160002054611ec390919063ffffffff16565b506064611afd600586611f0c90919063ffffffff16565b811515611b0657fe5b049050611b7d8160026000600160009054906101000a900473ffffffffffffffffffffffffffffffffffffffff1673ffffffffffffffffffffffffffffffffffffffff1673ffffffffffffffffffffffffffffffffffffffff16815260200190815260200160002054611ec390919063ffffffff16565b50611ba581611b9786600454611ec390919063ffffffff16565b611ec390919063ffffffff16565b6004819055508273ffffffffffffffffffffffffffffffffffffffff163073ffffffffffffffffffffffffffffffffffffffff167fddf252ad1be2c89b69c2b068fc378daa952ba7f163c4a11628f55a4df523b3ef866040518082815260200191505060405180910390a3600160009054906101000a900473ffffffffffffffffffffffffffffffffffffffff1673ffffffffffffffffffffffffffffffffffffffff163073ffffffffffffffffffffffffffffffffffffffff167fddf252ad1be2c89b69c2b068fc378daa952ba7f163c4a11628f55a4df523b3ef836040518082815260200191505060405180910390a3600191505092915050565b6000611d3382600360003373ffffffffffffffffffffffffffffffffffffffff1673ffffffffffffffffffffffffffffffffffffffff16815260200190815260200160002060008673ffffffffffffffffffffffffffffffffffffffff1673ffffffffffffffffffffffffffffffffffffffff16815260200190815260200160002054611ec390919063ffffffff16565b600360003373ffffffffffffffffffffffffffffffffffffffff1673ffffffffffffffffffffffffffffffffffffffff16815260200190815260200160002060008573ffffffffffffffffffffffffffffffffffffffff1673ffffffffffffffffffffffffffffffffffffffff168152602001908152602001600020819055508273ffffffffffffffffffffffffffffffffffffffff163373ffffffffffffffffffffffffffffffffffffffff167f8c5be1e5ebec7d5bd14f71427d1e84f3dd0314c0f7b2291e5b200ac8c7c3b925600360003373ffffffffffffffffffffffffffffffffffffffff1673ffffffffffffffffffffffffffffffffffffffff16815260200190815260200160002060008773ffffffffffffffffffffffffffffffffffffffff1673ffffffffffffffffffffffffffffffffffffffff168152602001908152602001600020546040518082815260200191505060405180910390a36001905092915050565b6003602052816000526040600020602052806000526040600020600091509150505481565b6000808284019050838110158015611edb5750828110155b1515611ee657600080fd5b8091505092915050565b6000828211151515611f0157600080fd5b818303905092915050565b60008082840290506000841480611f2d5750828482811515611f2a57fe5b04145b1515611f3857600080fd5b8091505092915050565b815481835581811511611f6f57600502816005028360005260206000209182019101611f6e9190611f74565b5b505050565b611ff691905b80821115611ff2576000808201600090556001820160006101000a81549073ffffffffffffffffffffffffffffffffffffffff0219169055600282016000905560038201600090556004820160006101000a81549073ffffffffffffffffffffffffffffffffffffffff021916905550600501611f7a565b5090565b905600a165627a7a72305820de97a38ea721f42a7d2debfefb6fc54ae7dad628e9f2e638f6d07115aa63e96c0029",
  "source": "pragma solidity 0.4.21;\n\n// Safe Math library that automatically checks for overflows and underflows\nlibrary SafeMath {\n    // Safe multiplication\n    function mul(uint256 a, uint256 b) internal pure returns (uint256) {\n        uint256 c = a * b;\n        require(a == 0 || c / a == b);\n        return c;\n    }\n    // Safe subtraction\n    function sub(uint256 a, uint256 b) internal pure returns (uint256) {\n        require(b <= a);\n        return a - b;\n    }\n    // Safe addition\n    function add(uint256 a, uint256 b) internal pure returns (uint256) {\n        uint256 c = a + b;\n        require(c>=a && c>=b);\n        return c;\n    }\n}\n\ncontract Owned {\n    address public owner;\n    address public enterprise = 0xDEB80077101d919b6ad1e004Cff36203A0F0CE60;\n\n    modifier onlyOwner {\n        require(msg.sender == owner);\n        _;\n    }\n    function Owned() public {\n        owner = msg.sender;\n    }\n}\n\ncontract Token is Owned {\n    using SafeMath for uint256;\n    \n    event Transfer(address indexed from, address indexed to, uint256 value);\n    event Approval(address indexed _owner, address indexed _spender, uint256 _value);\n\n    // This creates a mapping with all balances\n    mapping (address => uint256) public balanceOf;\n    // Another array with spending allowances\n    mapping (address => mapping (address => uint256)) public allowance;\n    // The total supply of the token\n    uint256 public totalSupply;\n    // Some variables for nice wallet integration\n    string public name;         // name of token\n    string public symbol;       // symbol of token\n    uint8 public decimals;      // decimals of token\n\n    // Send coins\n    function transfer(address _to, uint256 _value) public returns (bool success) {\n        require(_to != 0x0);\n        balanceOf[msg.sender] = balanceOf[msg.sender].sub(_value);\n        balanceOf[_to] = balanceOf[_to].add(_value);\n        emit Transfer(msg.sender, _to, _value);\n        return true;\n    }\n\n    function transferFrom(address _from, address _to, uint256 _value) public returns (bool success) {\n        require(_to != 0x0);\n        balanceOf[_to] = balanceOf[_to].add(_value);\n        balanceOf[_from] = balanceOf[_from].sub(_value);\n        allowance[_from][msg.sender] = allowance[_from][msg.sender].sub(_value);\n        emit Transfer(_from, _to, _value);\n        return true;\n    }\n\n    function approve(address _spender, uint256 _value) public returns (bool success) {\n        allowance[msg.sender][_spender] = _value;\n        emit Approval(msg.sender, _spender, _value);\n        return true;\n    }\n    \n    function increaseApproval(address _spender, uint _addedValue) public returns (bool success) {\n        allowance[msg.sender][_spender] = allowance[msg.sender][_spender].add(_addedValue);\n        emit Approval(msg.sender, _spender, allowance[msg.sender][_spender]);\n        return true;\n    }\n    \n    function decreaseApproval(address _spender, uint _subtractedValue) public returns (bool success) {\n        uint oldValue = allowance[msg.sender][_spender];\n        if (_subtractedValue > oldValue) {\n            allowance[msg.sender][_spender] = 0;\n        } else {\n            allowance[msg.sender][_spender] = oldValue.sub(_subtractedValue);\n        }\n        emit Approval(msg.sender, _spender, allowance[msg.sender][_spender]);\n        return true;\n    }\n}\n\ncontract DevRev is Token {\n    address public DevTokenAddress;\n\n    // swap can be only called by the devtokencontract, adds tokenamount to tokenHolder and 5% to enterprise \n    function swap(uint256 _tokenAmount, address _tokenHolder) external returns(bool success) { \n        require(msg.sender == DevTokenAddress);\n        balanceOf[_tokenHolder].add(_tokenAmount);\n        uint256 fee = _tokenAmount.mul(5)/100;\n        balanceOf[enterprise].add(fee);\n        totalSupply = totalSupply.add(_tokenAmount).add(fee);\n        emit Transfer(address(this), _tokenHolder, _tokenAmount);\n        emit Transfer(address(this), enterprise, fee);\n        return true;\n    }\n}\n\ncontract RevSale is DevRev {\n    // Structure of an offer\n    struct RevSaleOffer {\n        // basic ID for the offer\n        uint256 ID;\n        // address of the seller\n        address seller;\n        // amount of tokens that are being offered\n        uint256 amount;\n        // total price of the tokens that are being sold\n        uint256 price;\n        // the specific address that this offer is for\n        // (if its a public offer this will be 0x0) \n        address receiver;\n    }\n\n    // array of all current offers\n    RevSaleOffer[] public revSaleOffers;\n\n    // constructor\n    function RevSale(string _name, string _symbol, address _DevTokenAddress) public {\n      // name of the RevToken\n      name = _name;\n      // symbol of the RevToken\n      symbol = _symbol;\n      // decimals of the RevToken, fixed to 18\n      decimals = 18;\n\n      // set address of DevContract in constructor\n      require(_DevTokenAddress != 0x0);\n      DevTokenAddress = _DevTokenAddress;\n    }\n\n    // adding a new offer\n    function addOffer(uint256 _amount, uint256 _price, address _receiver) public {\n        // only tokenholder is allowed to add offers\n        require(balanceOf[msg.sender] > 0);\n        uint256 ID = revSaleOffers.length;\n        // add offer to the offers-array\n        revSaleOffers.push(RevSaleOffer(ID, msg.sender, _amount, _price, _receiver));\n    }\n\n    // deleting an offer\n    function deleteOffer(uint256 _id) public {\n        // only the seller is able to delete the offer\n        require(revSaleOffers[_id].seller == msg.sender);\n        // delete the offer from the array\n        delete revSaleOffers[_id];\n    }\n\n    // buying the tokens of a offer\n    function buyOffer(uint256 _id) payable public {\n        // token-balance of the seller has to suffice for the sale\n        require(balanceOf[revSaleOffers[_id].seller] >= revSaleOffers[_id].amount);\n        // buyer has to have enough ether for the current purchase\n        require(msg.value == revSaleOffers[_id].price);\n        // if the offer is not public and it's tailored towards a specific address..\n        if(revSaleOffers[_id].receiver != 0x0) {\n            // ..the receiver has to be correct\n            require(revSaleOffers[_id].receiver == msg.sender);\n        }\n\n        // transfer the RevTokens from the seller to the receiver\n        balanceOf[revSaleOffers[_id].seller] = balanceOf[revSaleOffers[_id].seller].sub(revSaleOffers[_id].amount);\n        balanceOf[msg.sender] = balanceOf[msg.sender].add(revSaleOffers[_id].amount);\n        emit Transfer(revSaleOffers[_id].seller, msg.sender, revSaleOffers[_id].amount);\n\n        // transfer the funds from the receiver to the seller of the tokens\n        revSaleOffers[_id].seller.transfer(revSaleOffers[_id].price);\n        \n        // remove the offer from the array\n        delete revSaleOffers[_id];\n    }\n}",
  "sourcePath": "/Users/gretzke/Documents/Projekte/InnoChain/Chainge/git/tApp/contracts/RevToken.sol",
  "compiler": {
    "name": "solc",
    "version": "0.4.21+commit.dfe3193c.Emscripten.clang"
  },
  "schemaVersion": "2.0.0",
  "updatedAt": "2018-04-11T08:58:30.371Z"
}